:100000000C9462000C948A000C948A000C948A0070
:100010000C948A000C948A000C948A000C94ED02D3
:100020000C948A000C948A000C948A000C948A0028
:100030000C948A000C948A000C948A000C948A0018
:100040000C94A7030C948A000C9417040C94F103ED
:100050000C948A000C948A000C948A000C948A00F8
:100060000C948A000C948A000000000023002600F3
:10007000290000000008000201000003040700003E
:1000800000000000000000000000250028002B00F8
:1000900000000000240027002A00040404040404D3
:1000A0000404020202020202030303030303010227
:1000B00004081020408001020408102001020408F6
:1000C0001020490411241FBECFEFD8E0DEBFCDBF02
:1000D00011E0A0E0B1E0EAECFBE002C005900D9277
:1000E000A231B107D9F722E0A2E1B1E001C01D922F
:1000F000A839B207E1F710E0C2E6D0E004C02197CA
:10010000FE010E94D805C136D107C9F70E947B04C1
:100110000C94E3050C94000090E0FC01E255FF4FC5
:100120002491FC01E656FF4F8491882399F090E0DA
:10013000880F991FFC01E057FF4FA591B491FC0176
:10014000EA57FF4F859194918FB7F894EC91E22B89
:10015000EC938FBF0895833081F028F4813099F0BB
:100160008230A1F008958730A9F08830B9F084304A
:10017000D1F4809180008F7D03C0809180008F77C3
:1001800080938000089584B58F7702C084B58F7DF9
:1001900084BD08958091B0008F7703C08091B00036
:1001A0008F7D8093B0000895CF93DF93282F30E0A8
:1001B000F901EE58FF4F8491F901E255FF4FD491B8
:1001C000F901E656FF4FC491CC2391F081110E94B2
:1001D000AB00EC2FF0E0EE0FFF1FE859FF4FA591A9
:1001E000B491EC91ED2381E090E021F480E002C035
:1001F00080E090E0DF91CF9108951F93CF93DF933C
:10020000282F30E0F901EE58FF4F8491F901E255B3
:10021000FF4FD491F901E656FF4FC491CC23C9F0AA
:10022000162F81110E94AB00EC2FF0E0EE0FFF1FA4
:10023000EA57FF4FA591B4918FB7F894111105C0FB
:100240009C91ED2FE095E92302C0EC91ED2BEC930E
:100250008FBFDF91CF911F9108958E3008F08E509F
:100260008770806480937C0080917A0080648093A2
:100270007A0080917A0086FDFCCF809178002091F1
:10028000790090E0922B08953FB7F8948091250172
:1002900090912601A0912701B091280126B5A89B35
:1002A00005C02F3F19F00196A11DB11D3FBFBA2F08
:1002B000A92F982F8827820F911DA11DB11DBC0168
:1002C000CD0142E0660F771F881F991F4A95D1F72D
:1002D00008958F929F92AF92BF92CF92DF92EF924A
:1002E000FF926B017C010E9444014B015C0184E0A0
:1002F000C81AD108E108F108C80CD91CEA1CFB1C7B
:10030000C814D904EA04FB0438F40E944401861698
:100310009706A806B906C8F30E9444016C157D052E
:100320008E059F05C8F3FF90EF90DF90CF90BF90B0
:10033000AF909F908F900895E0EBF0E080818F7DEB
:10034000808368E572E080E090E00C9469018F9210
:100350009F92AF92BF92CF92DF92EF92FF926B018A
:100360007C010E9444014B015C01C114D104E104F1
:10037000F104F1F00E944401DC01CB0188199909D4
:10038000AA09BB09883E9340A105B10570F321E09D
:10039000C21AD108E108F10888EE880E83E0981EA1
:1003A000A11CB11CC114D104E104F10419F7DDCF83
:1003B000FF90EF90DF90CF90BF90AF909F908F9085
:1003C0000895CF92DF92EF92FF920F931F93CF93F6
:1003D000DF936C017A018B01C0E0D0E0CE15DF0520
:1003E00089F0D8016D918D01D601ED91FC910190BC
:1003F000F081E02DC6010995892B11F47E0102C020
:100400002196ECCFC701DF91CF911F910F91FF9003
:10041000EF90DF90CF900895089580E090E00895E8
:10042000FC01538D448D252F30E0842F90E0821BFA
:10043000930B541710F0CF96089501970895FC017F
:10044000918D828D981761F0828DDF01A80FB11D0B
:100450005D968C91928D9F5F9F73928F90E008952F
:100460008FEF9FEF0895FC01918D828D981731F0E9
:10047000828DE80FF11D858D90E008958FEF9FEF3D
:100480000895FC01918D228D892F90E0805C9F4F13
:10049000821B91098F739927089589E291E00E9448
:1004A000410221E0892B09F420E0822F0895FC010C
:1004B000848DDF01A80FB11DA35ABF4F2C91848DED
:1004C00090E001968F739927848FA689B7892C9322
:1004D000A089B1898C9180648C93938D848D9813BD
:1004E00006C00288F389E02D80818F7D8083089586
:1004F000EF92FF920F931F93CF93DF93EC0181E074
:10050000888F9B8D8C8D981305C0E889F98980812F
:1005100085FD24C0F62E0B8D10E00F5F1F4F0F736B
:100520001127E02E8C8DE8120CC00FB607FCFACF15
:10053000E889F989808185FFF5CFCE010E945702B5
:10054000F1CF8B8DFE01E80FF11DE35AFF4FF082D2
:100550000B8FEA89FB898081806207C0EE89FF8961
:100560006083E889F98980818064808381E090E0FC
:10057000DF91CF911F910F91FF90EF900895CF934E
:10058000DF93EC01888D8823C9F0EA89FB8980819B
:1005900085FD05C0A889B9898C9186FD0FC00FB66D
:1005A00007FCF5CF808185FFF2CFA889B9898C91AE
:1005B00085FFEDCFCE010E945702E7CFDF91CF91AB
:1005C000089580E090E0892B29F00E944D0281116E
:1005D0000C94000008950E94DE051F920F920FB642
:1005E0000F9211242F933F934F935F936F937F93B9
:1005F0008F939F93AF93BF93EF93FF938091C70126
:100600000E94D4002091CB013091CC012F5F3F4F4D
:100610003093CC012093CB019091CA01953618F00C
:1006200096E09093C6019091C6019430C9F128F4E8
:10063000923069F09330D1F05EC0953009F451C02A
:10064000963009F058C091E09093970251C0811103
:1006500052C02091CB013091CC012436310508F4F1
:1006600042C0109297021092CA011CC0813009F05A
:1006700042C0E091CA0191E09E0F9093CA01F0E060
:100680002091CB013091CC01EE0FFF1FEA53FE4FBA
:10069000308727831092CC011092CB0194E029C0BF
:1006A000811117C0E091CA0191E09E0F9093CA0199
:1006B000F0E02091CB013091CC01EE0FFF1FEA5307
:1006C000FE4F308727831092CC011092CB0193E02C
:1006D00010C02091CB013091CC012536310558F066
:1006E00007C0811108C01092CC011092CB0103C049
:1006F00095E09093C6019091C9019923B9F08111B9
:100700000AC08091C801882321F08091C80161E06E
:1007100009C02D9A0BC08091C801882331F08091C7
:10072000C80160E00E94FD0001C02D98FF91EF918B
:10073000BF91AF919F918F917F916F915F914F91F9
:100740003F912F910F900FBE0F901F9018951F9201
:100750000F920FB60F9211242F933F938F939F9375
:10076000AF93BF938091210190912201A091230129
:10077000B09124013091200123E0230F2D3720F484
:100780000196A11DB11D05C026E8230F0296A11DEB
:10079000B11D209320018093210190932201A09309
:1007A0002301B09324018091250190912601A0910D
:1007B0002701B09128010196A11DB11D809325014B
:1007C00090932601A0932701B0932801BF91AF9188
:1007D0009F918F913F912F910F900FBE0F901F907F
:1007E00018951F920F920FB60F9211242F933F93DB
:1007F0004F935F936F937F938F939F93AF93BF9329
:10080000EF93FF9389E291E00E945702FF91EF91ED
:10081000BF91AF919F918F917F916F915F914F9118
:100820003F912F910F900FBE0F901F9018951F9220
:100830000F920FB60F9211242F938F939F93EF93E4
:10084000FF93E0913901F0913A018081E0913F01FD
:10085000F091400182FD12C09081809142018F5F32
:100860008F7320914301821751F0E0914201F0E033
:10087000E75DFE4F958F8093420101C08081FF911B
:10088000EF919F918F912F910F900FBE0F901F901E
:100890001895E9E2F1E01382128288EE93E0A0E07D
:1008A000B0E084839583A683B78384E091E091834D
:1008B000808385EC90E09587848784EC90E097872F
:1008C000868780EC90E0918B808B81EC90E0938B1D
:1008D000828B82EC90E0958B848B86EC90E0978BFA
:1008E000868B118E128E138E148EE6ECF1E08CE066
:1008F000818313820895789484B5826084BD84B521
:10090000816084BD85B5826085BD85B5816085BD0A
:1009100080916E00816080936E00109281008091C2
:10092000810082608093810080918100816080934A
:100930008100809180008160809380008091B1006F
:1009400084608093B1008091B00081608093B0009A
:1009500080917A00846080937A0080917A0082602E
:1009600080937A0080917A00816080937A008091F0
:100970007A00806880937A001092C10085E00E941E
:100980008C008DE00E948C00E0913901F0913A01D9
:1009900082E08083E0913501F09136011082E09190
:1009A0003701F09138018FEC808310924101E09182
:1009B0003D01F0913E0186E08083E0913B01F091A2
:1009C0003C01808180618083E0913B01F0913C019A
:1009D000808188608083E0913B01F0913C018081BF
:1009E00080688083E0913B01F0913C0180818F7DA4
:1009F00080838FE00E948C0001E010E024E1E22E71
:100A0000F12C39E0D32E48ECC42E52E4752E82E04E
:100A10000E94D400EC0190931F0180931E018091ED
:100A2000120190911301C817D907E9F0C130D1051F
:100A3000D1F461E08DE00E94FD0068EE73E080E09B
:100A400090E00E94A70160E08DE00E94FD0062E05E
:100A500070E080E090E00E94A7016AE070E080E032
:100A600090E00E94A701D0931301C09312018EE081
:100A70000E942D01EC0190931D0180931C016AE0FE
:100A800070E080E090E00E94A701C53BD105ECF04A
:100A9000809114019091150144972CF061E08FE052
:100AA0000E94FD00FBCF109315010093140161E03B
:100AB0008FE00E94FD0068EE73E080E090E00E940D
:100AC000A70160E08FE00E94FD0010921D011092CE
:100AD0001C0180E10E942D0190931B0180931A015B
:100AE000813A9F400CF45AC0F0921701E09216012F
:100AF0001092700083E00E948C0060E083E00E940E
:100B0000FD0081E08093B000D092B100C092B300AC
:100B10007092B4008091B00080628093B00060E673
:100B200079E080E090E00E9469010E949C01C1E1AF
:100B3000D0E0812C912C5401A394D501C40180797B
:100B40009B78A670BB27892B8A2B8B2B51F0809129
:100B5000B00080628093B00060EB74E080E090E0D1
:100B600009C08091B00080628093B00068E572E0B7
:100B700080E090E00E9469010E949C01B694A794D5
:100B8000979487942197C9F664E670E080E090E03E
:100B90000E94A701109217011092160183E00E9493
:100BA000D40090931901809318010E94E1022FCF85
:100BB000EE0FFF1F0590F491E02D099481E090E085
:0A0BC000F8940C94E305F894FFCFBD
:100BCA00000000007802E1011002BF0241021F0288
:020BDA003302E4
:00000001FF
