:100000000C943D010C946E010C946E010C946E01E5
:100010000C946E010C946E010C946E010C946E01A4
:100020000C946E010C946E010C946E010C946E0194
:100030000C946E010C946E010C946E010C946E0184
:100040000C946E010C946E010C946E010C946E0174
:100050000C946E010C946E010C946E010C941204BD
:100060000C946E010C94DA040C94B0040C946E01A0
:100070000C946E010C946E010C946E010C946E0144
:100080000C946E010C946E010C946E010C946E0134
:100090000C9486040C945C040C946E010C946E0118
:1000A0000C946E010C946E010C946E010C946E0114
:1000B0000C946E010C946E010C946E010C946E0104
:1000C0000C946E010C946E010C946E010C946E01F4
:1000D0000C946E010C946E010C946E010C946E01E4
:1000E0000C946E01C601C901B801BC01C001000237
:1000F000CD01D101D701DB01DF01E501E901ED010E
:100100000002F301F701FB010C94CD010C94DE0217
:100110000C94E9010C9479030C94F7010C94EC0213
:100120000C94BC010C94C6010C94D1010C94FB01FD
:100130000C942D030C94DF010C94C9010C94F30171
:100140000C94BB020C9404050C94ED010C94DB019F
:100150000C94CA020C9473020C9493060C94D7016D
:100160000C94B8010C94C0010C9400020C94E501AD
:1001700000002100240027002A002D003000330059
:1001800001010000040107010A010000220025000E
:1001900028002B002E003100340002010000050170
:1001A00008010B01050505050705080808080202F6
:1001B00002020A0A08080404040401010101010101
:1001C00001010303030303030303040707070C0CE4
:1001D0000C0C0C0C0C0C02020202060606060606AB
:1001E00006060B0B0B0B0B0B0B0B01021020200850
:1001F0000810204010204080020102010804020182
:1002000001020408102040808040201008040201F0
:100210008004020180402010080402010804020149
:1002200001020408102040800102040810204080D0
:1002300000000A0B02090C0D0E0807030401000060
:1002400000000000000000000000000000000000AE
:10025000000000000000000000000000121110006B
:10026000000000000000000000000000000000008E
:100270000000000000000405930611241FBECFEF0C
:10028000D1E2DEBFCDBF00E00CBF12E0A0E0B2E0E3
:10029000EAEDF1E100E00BBF02C007900D92A03241
:1002A000B107D9F723E0A0E2B2E001C01D92A43764
:1002B000B207E1F711E0CCE3D1E000E006C02197FE
:1002C0000109802FFE010E949F06CB33D10780E0F9
:1002D0000807A9F70E9474050C94DB080C94000031
:1002E000FC01A089B18982E08C93A485B5851C921C
:1002F000A685B78580E18C93108EA489B58986E0A8
:100300008C93A289B3898C9180618C93A289B389E3
:100310008C9188608C93A289B3898C9180688C932E
:100320000288F389E02D80818F7D80830895362FA8
:1003300090E0FC01E05DFD4F4491FC01E651FE4F71
:100340002491FC01EC55FE4F9491992309F46BC064
:10035000442309F455C050E0FA013197E231F10528
:1003600008F04EC08827EE58FF4F8F4F0C949F0621
:10037000809180008F7707C0809180008F7D03C0BF
:1003800080918000877F809380003AC084B58F770A
:1003900002C084B58F7D84BD33C08091B0008F775B
:1003A00003C08091B0008F7D8093B00029C0809100
:1003B00090008F7707C0809190008F7D03C080915F
:1003C0009000877F809390001BC08091A0008F7762
:1003D00007C08091A0008F7D03C08091A000877F1F
:1003E0008093A0000DC0809120018F7707C080917D
:1003F00020018F7D03C080912001877F80932001A1
:10040000E92FF0E0EE0FFF1FE657FE4FA591B491E4
:100410008FB7F894EC91311103C020952E2301C0C1
:100420002E2B2C938FBF08953FB7F894809126020E
:1004300090912702A0912802B091290226B5A89B8D
:1004400005C02F3F19F00196A11DB11D3FBFBA2F66
:10045000A92F982F8827820F911DA11DB11DBC01C6
:10046000CD0142E0660F771F881F991F4A95D1F78B
:1004700008958F929F92AF92BF92CF92DF92EF92A8
:10048000FF926B017C010E9414024B015C01C114BC
:10049000D104E104F104F1F00E941402DC01CB016B
:1004A00088199909AA09BB09883E9340A105B1059D
:1004B00070F321E0C21AD108E108F10888EE880E35
:1004C00083E0981EA11CB11CC114D104E104F10405
:1004D00019F7DDCFFF90EF90DF90CF90BF90AF90F6
:1004E0009F908F900895CF92DF92EF92FF920F939B
:1004F0001F93CF93DF936C017A018B01C0E0D0E0B2
:10050000CE15DF0589F0D8016D918D01D601ED91F1
:10051000FC910190F081E02DC6011995892B11F411
:100520007E0102C02196ECCFC701DF91CF911F91D0
:100530000F91FF90EF90DF90CF900895FC01A0897C
:10054000B1898C91A689B78982FD0FC09C91818D5C
:100550008F5F8F73228D821749F0218DDF01A20FEB
:10056000B11D5D969C93818F08958C910895089597
:1005700080E090E00895FC01538D448D252F30E0FC
:10058000842F90E0821B930B541710F0CF960895A0
:1005900001970895FC01918D828D981761F0828DED
:1005A000DF01A80FB11D5D968C91928D9F5F9F73A7
:1005B000928F90E008958FEF9FEF0895FC01918D49
:1005C000828D981731F0828DE80FF11D858D90E0B6
:1005D00008958FEF9FEF0895FC01918D228D892F53
:1005E00090E0805C9F4F821B91098F73992708953B
:1005F0008AE292E00E94EC0221E0892B09F420E0DB
:10060000822F089587EC92E00E94EC0221E0892B72
:1006100009F420E0822F0895FC01848DDF01A80FEA
:10062000B11DA35ABF4F2C91848D90E001968F731A
:100630009927848FA689B7892C93A089B1898C9139
:1006400080648C93938D848D981306C00288F389FF
:10065000E02D80818F7D80830895EF92FF920F932C
:100660001F93CF93DF93EC0181E0888F9B8D8C8D5E
:10067000981305C0E889F989808185FD24C0F62E8C
:100680000B8D10E00F5F1F4F0F731127E02E8C8D25
:10069000E8120CC00FB607FCFACFE889F98980810F
:1006A00085FFF5CFCE010E940C03F1CF8B8DFE01AB
:1006B000E80FF11DE35AFF4FF0820B8FEA89FB89A7
:1006C0008081806207C0EE89FF896083E889F989AB
:1006D00080818064808381E090E0DF91CF911F91E1
:1006E0000F91FF90EF900895682F87EC92E00C94A3
:1006F0002D03CF93DF93EC01888D8823C9F0EA891D
:10070000FB89808185FD05C0A889B9898C9186FD0A
:100710000FC00FB607FCF5CF808185FFF2CFA88907
:10072000B9898C9185FFEDCFCE010E940C03E7CFF4
:10073000DF91CF91089580E090E0892B21F00E9415
:100740000203811121C080E090E0892B21F00E94FA
:10075000F80281111CC080E090E0892B41F080E01C
:1007600090E0892B21F00E940000811113C080E0ED
:1007700090E0892BA1F080E090E0892B81F00E942D
:10078000000081110AC008950E940000DCCF0E9481
:100790000000E1CF0E940000EACF0C940000089511
:1007A0000E94BD08EF92FF920F931F93CF93DF93A8
:1007B000EC017B018A0188819981009729F02A81C7
:1007C0003B8124173507F8F4B8016F5F7F4F0E9413
:1007D000D407009759F0998388831B830A832C815F
:1007E0003D81232B81F4FC0110820DC08881998109
:1007F000009711F00E943C07198218821D821C820A
:100800001B821A8207C01D830C83B70188819981DE
:100810000E94D408CE01DF91CF911F910F91FF90DC
:10082000EF9008951F920F920FB60F9211242F93FD
:100830003F938F939F93AF93BF93809122029091A8
:100840002302A0912402B09125023091210223E0DD
:10085000230F2D3720F40196A11DB11D05C026E8F8
:10086000230F0296A11DB11D209321028093220225
:1008700090932302A0932402B09325028091260234
:1008800090912702A0912802B09129020196A11D02
:10089000B11D8093260290932702A0932802B09363
:1008A0002902BF91AF919F918F913F912F910F900E
:1008B0000FBE0F901F9018951F920F920FB60F92B8
:1008C00011240BB60F922F933F934F935F936F9327
:1008D0007F938F939F93AF93BF93EF93FF938AE29E
:1008E00092E00E940C03FF91EF91BF91AF919F9115
:1008F0008F917F916F915F914F913F912F910F90C9
:100900000BBE0F900FBE0F901F9018951F920F9265
:100910000FB60F9211240BB60F922F933F934F9364
:100920005F936F937F938F939F93AF93BF93EF9357
:10093000FF938AE292E00E949E02FF91EF91BF91A5
:10094000AF919F918F917F916F915F914F913F9167
:100950002F910F900BBE0F900FBE0F901F90189508
:100960001F920F920FB60F9211240BB60F922F9376
:100970003F934F935F936F937F938F939F93AF9327
:10098000BF93EF93FF9387EC92E00E940C03FF91DB
:10099000EF91BF91AF919F918F917F916F915F91F7
:1009A0004F913F912F910F900BBE0F900FBE0F9064
:1009B0001F9018951F920F920FB60F9211240BB62D
:1009C0000F922F933F934F935F936F937F938F93E8
:1009D0009F93AF93BF93EF93FF9387EC92E00E94B6
:1009E0009E02FF91EF91BF91AF919F918F917F9167
:1009F0006F915F914F913F912F910F900BBE0F9090
:100A00000FBE0F901F901895EAE2F2E01382128257
:100A100048EE53E060E070E044835583668377835B
:100A20008AE092E0918380832DEC30E03587248743
:100A30002CEC30E03787268728EC30E0318B208B98
:100A400029EC30E0338B228B2AEC30E0358B248B81
:100A50002EEC30E0378B268B118E128E138E148E77
:100A6000E7ECF2E013821282448355836683778336
:100A70009183808385EC90E09587848784EC90E077
:100A80009787868780EC90E0918B808B81EC90E05B
:100A9000938B828B82EC90E0958B848B86EC90E03C
:100AA000978B868B118E128E138E148EEAE6F3E0EE
:100AB00011821082138212821582148242E050E069
:100AC00068E172E0CF010E94D203E4E6F3E0118214
:100AD0001082138212821582148242E050E068E193
:100AE00072E0CF010C94D203789484B5826084BD07
:100AF00084B5816084BD85B5826085BD85B5816022
:100B000085BD80916E00816080936E00109281009F
:100B1000809181008260809381008091810081605A
:100B2000809381008091800081608093800080911B
:100B3000B10084608093B1008091B00081608093A7
:100B4000B00080919100826080939100809191002B
:100B500081608093910080919000816080939000EB
:100B60008091A10082608093A1008091A1008160AA
:100B70008093A1008091A00081608093A00080916B
:100B80002101826080932101809121018160809305
:100B900021018091200181608093200180917A0061
:100BA000846080937A0080917A00826080937A00DA
:100BB00080917A00816080937A0080917A008068C9
:100BC00080937A001092C100E7EFF1E02491E1EB0D
:100BD000F1E08491882399F090E0880F991FFC013F
:100BE000E059FE4FA591B491FC01E657FE4F859167
:100BF00094918FB7F894EC91E22BEC938FBF8AE23B
:100C000092E00E94700187EC92E00E94700160ED1A
:100C100077E080E090E00E9439028AE292E00E9450
:100C2000EC02892B79F18AE292E00E94CA02C82F75
:100C30008093200280916E0390916F03892B11F1B4
:100C400068E172E080916A0390916B030E94CB0887
:100C5000892BC1F4CF34B1F48FE490E00E94740387
:100C60001092200243E050E06BE172E084E693E0F2
:100C70000E94D20343E050E06BE172E08AE693E029
:100C80000E94D2038091680390916903892B09F433
:100C900047C06BE172E080916403909165030E940C
:100CA000CB08892BE9F580912002813329F4109239
:100CB000200281E090E014C0823329F410922002D7
:100CC00082E090E00DC0833329F41092200283E08B
:100CD00090E006C0843359F41092200284E090E042
:100CE0000E94740361E08DE00E9497010CC085337F
:100CF00089F41092200261E08DE00E94970185E066
:100D000090E00E94740364EF71E080E090E00E9444
:100D1000390206C060E08DE00E9497011092200227
:100D20000E949B037ACF80916403909165030E9497
:100D30003C0780916A0390916B030C943C07EE0F83
:100D4000FF1F881F8BBF0790F691E02D1994CF935A
:100D5000DF938230910510F482E090E0E09172031D
:100D6000F091730320E030E0C0E0D0E0309711F163
:100D70004081518148175907C0F04817590761F45D
:100D800082819381209719F09B838A832BC0909353
:100D900073038093720326C02115310519F04217A1
:100DA000530718F49A01BE01DF01EF010280F381BD
:100DB000E02DDCCF2115310509F1281B390B24303A
:100DC000310590F412968D919C91139761157105E0
:100DD00021F0FB019383828304C09093730380937B
:100DE0007203FD01329644C0FD01E20FF31F8193AF
:100DF0009193225031092D933C933AC02091700376
:100E000030917103232B41F42091020230910302AF
:100E100030937103209370032091000230910102FE
:100E20002115310541F42DB73EB740910402509190
:100E30000502241B350BE0917003F0917103E2175A
:100E4000F307A0F42E1B3F0B2817390778F0AC01ED
:100E50004E5F5F4F2417350748F04E0F5F1F5093CA
:100E60007103409370038193919302C0E0E0F0E03E
:100E7000CF01DF91CF9108950F931F93CF93DF930D
:100E8000009709F48CC0FC01329713821282009102
:100E90007203109173030115110581F420813181D2
:100EA000820F931F20917003309171032817390727
:100EB00079F5F0937103E093700371C0D80140E0BD
:100EC00050E0AE17BF0750F412962D913C91139746
:100ED000AD012115310509F1D901F3CF9D01DA01E9
:100EE0003383228360817181860F971F8217930756
:100EF00069F4EC0128813981260F371F2E5F3F4F9F
:100F0000318320838A819B8193838283452B29F4BB
:100F1000F0937303E093720342C01396FC93EE9335
:100F20001297ED01499159919E01240F351FE21747
:100F3000F30771F480819181840F951F02961196B9
:100F40009C938E938281938113969C938E93129798
:100F5000E0E0F0E0D80112968D919C9113970097F4
:100F600019F0F8018C01F6CF8D919C9198012E5FBC
:100F70003F4F820F931F2091700330917103281708
:100F8000390769F4309729F41092730310927203B1
:100F900002C0138212821093710300937003DF91D9
:100FA000CF911F910F9108956F927F928F929F9290
:100FB000AF92BF92CF92DF92EF92FF920F931F9367
:100FC000CF93DF93EC01009789F4CB01DF91CF91B0
:100FD0001F910F91FF90EF90DF90CF90BF90AF9057
:100FE0009F908F907F906F900C94A706FC01E60F66
:100FF000F71F9C0122503109E217F30708F4ACC037
:10100000D9010D911C91119706171707B0F0053003
:10101000110508F49FC0C80104978617970708F4C4
:1010200099C002501109061B170B019311936D9380
:101030007C93CF010E943C078DC05B01A01AB10ACE
:101040004C01800E911EA0917203B091730340E099
:1010500050E0E12CF12C109709F44AC0A815B9050D
:10106000D1F56D907C901197630182E0C80ED11C80
:10107000CA14DB0480F1A3014A195B096A0182E00A
:10108000C80ED11C1296BC9012971396AC91B5E085
:10109000CB16D10440F0B282A38351834083D9019F
:1010A0006D937C930AC00E5F1F4FC301800F911F89
:1010B000F90191838083EB2DFA2FE114F10431F0D3
:1010C000D7011396FC93EE93129744C0F0937303E9
:1010D000E09372033FC08D919C9111974817590777
:1010E00008F4AC017D0112960D90BC91A02DB3CFF8
:1010F000809170039091710388159905E1F446176A
:101100005707C8F48091000290910102009741F4C2
:101110008DB79EB74091040250910502841B950B38
:10112000E817F907C8F4F0937103E0937003F9012D
:10113000718360830FC0CB010E94A7067C010097DA
:1011400059F0A801BE010E94C208CE010E943C07CE
:10115000C70104C0CE0102C080E090E0DF91CF91D2
:101160001F910F91FF90EF90DF90CF90BF90AF90C5
:101170009F908F907F906F90089581E090E0F89419
:101180000C94DB08FB01DC0102C001900D92415080
:101190005040D8F70895FB01DC018D910190801932
:1011A0000110D9F3990B0895FB01DC0101900D9218
:1011B0000020E1F7089511E0CCE3D1E000E006C0A3
:1011C000802FFE010E949F062196011DCD33D1077D
:0A11D00080E00807A9F7F894FFCFAC
:1011DA00000074038000000000002D037302BB02AC
:1011EA007903EC02CA02DE024E6F005965730000F1
:00000001FF
