:100000000C9462000C948A000C948A000C948A0070
:100010000C948A000C948A000C948A000C948A0038
:100020000C948A000C948A000C948A000C948A0028
:100030000C948A000C948A000C948A000C948A0018
:100040000C946F020C948A000C94DF020C94B90299
:100050000C948A000C948A000C948A000C948A00F8
:100060000C948A000C948A000000000023002600F3
:10007000290000000008000201000003040700003E
:1000800000000000000000000000250028002B00F8
:1000900000000000240027002A00040404040404D3
:1000A0000404020202020202030303030303010227
:1000B00004081020408001020408102001020408F6
:1000C0001020280411241FBECFEFD8E0DEBFCDBF23
:1000D00011E0A0E0B1E0E4ECF8E002C005900D9280
:1000E000A231B107D9F721E0A2E1B1E001C01D9230
:1000F000A03CB207E1F710E0C2E6D0E004C02197CF
:10010000FE010E945504C136D107C9F70E941103B0
:100110000C9460040C94000090E0FC01E255FF4F49
:100120002491FC01E656FF4F8491882399F090E0DA
:10013000880F991FFC01E057FF4FA591B491FC0176
:10014000EA57FF4F859194918FB7F894EC91E22B89
:10015000EC938FBF0895833081F028F4813099F0BB
:100160008230A1F008958730A9F08830B9F084304A
:10017000D1F4809180008F7D03C0809180008F77C3
:1001800080938000089584B58F7702C084B58F7DF9
:1001900084BD08958091B0008F7703C08091B00036
:1001A0008F7D8093B00008951F93CF93DF93282F06
:1001B00030E0F901EE58FF4F8491F901E255FF4F0D
:1001C000D491F901E656FF4FC491CC23C9F0162F04
:1001D00081110E94AB00EC2FF0E0EE0FFF1FEA57F9
:1001E000FF4FA591B4918FB7F894111105C09C9160
:1001F000ED2FE095E92302C0EC91ED2BEC938FBF3E
:10020000DF91CF911F9108953FB7F8948091BC0181
:100210009091BD01A091BE01B091BF0126B5A89BF0
:1002200005C02F3F19F00196A11DB11D3FBFBA2F88
:10023000A92F982F8827820F911DA11DB11DBC01E8
:10024000CD0142E0660F771F881F991F4A95D1F7AD
:1002500008958F929F92AF92BF92CF92DF92EF92CA
:10026000FF926B017C010E9404014B015C01C114EF
:10027000D104E104F104F1F00E940401DC01CB019E
:1002800088199909AA09BB09883E9340A105B105BF
:1002900070F321E0C21AD108E108F10888EE880E57
:1002A00083E0981EA11CB11CC114D104E104F10427
:1002B00019F7DDCFFF90EF90DF90CF90BF90AF9018
:1002C0009F908F900895CF92DF92EF92FF920F93BD
:1002D0001F93CF93DF936C017A018B01C0E0D0E0D4
:1002E000CE15DF0589F0D8016D918D01D601ED9114
:1002F000FC910190F081E02DC6010995892B11F444
:100300007E0102C02196ECCFC701DF91CF911F91F2
:100310000F91FF90EF90DF90CF900895089580E0C7
:1003200090E00895FC01538D448D252F30E0842FFB
:1003300090E0821B930B541710F0CF96089501970D
:100340000895FC01918D828D981761F0828DDF01F7
:10035000A80FB11D5D968C91928D9F5F9F73928FB8
:1003600090E008958FEF9FEF0895FC01918D828DAD
:10037000981731F0828DE80FF11D858D90E008957A
:100380008FEF9FEF0895FC01918D228D892F90E0D2
:10039000805C9F4F821B91098F739927089582E19A
:1003A00091E00E94C30121E0892B09F420E0822F13
:1003B0000895FC01848DDF01A80FB11DA35ABF4F22
:1003C0002C91848D90E001968F739927848FA68954
:1003D000B7892C93A089B1898C9180648C93938D7B
:1003E000848D981306C00288F389E02D80818F7D6B
:1003F00080830895EF92FF920F931F93CF93DF9323
:10040000EC0181E0888F9B8D8C8D981305C0E88965
:10041000F989808185FD24C0F62E0B8D10E00F5FD9
:100420001F4F0F731127E02E8C8DE8120CC00FB6F2
:1004300007FCFACFE889F989808185FFF5CFCE01E5
:100440000E94D901F1CF8B8DFE01E80FF11DE35A17
:10045000FF4FF0820B8FEA89FB898081806207C0A1
:10046000EE89FF896083E889F989808180648083CF
:1004700081E090E0DF91CF911F910F91FF90EF907D
:100480000895CF93DF93EC01888D8823C9F0EA8922
:10049000FB89808185FD05C0A889B9898C9186FD7D
:1004A0000FC00FB607FCF5CF808185FFF2CFA8897A
:1004B000B9898C9185FFEDCFCE010E94D901E7CF9C
:1004C000DF91CF91089580E090E0892B29F00E9480
:1004D000CF0181110C94000008950E945B041F92CB
:1004E0000F920FB60F9211242F933F938F939F93E8
:1004F000AF93BF938091B8019091B901A091BA01D7
:10050000B091BB013091B70123E0230F2D3720F4C8
:100510000196A11DB11D05C026E8230F0296A11D5D
:10052000B11D2093B7018093B8019093B901A093B6
:10053000BA01B093BB018091BC019091BD01A09123
:10054000BE01B091BF010196A11DB11D8093BC01F8
:100550009093BD01A093BE01B093BF01BF91AF9135
:100560009F918F913F912F910F900FBE0F901F90F1
:1005700018951F920F920FB60F9211242F933F934D
:100580004F935F936F937F938F939F93AF93BF939B
:10059000EF93FF9382E191E00E94D901FF91EF91E7
:1005A000BF91AF919F918F917F916F915F914F918B
:1005B0003F912F910F900FBE0F901F9018951F9293
:1005C0000F920FB60F9211242F938F939F93EF9357
:1005D000FF93E0912201F09123018081E0912801B5
:1005E000F091290182FD12C0908180912B018F5FD3
:1005F0008F7320912C01821751F0E0912B01F0E0D4
:10060000EE5EFE4F958F80932B0101C08081FF919C
:10061000EF919F918F912F910F900FBE0F901F9090
:100620001895789484B5826084BD84B5816084BD5A
:1006300085B5826085BD85B5816085BD80916E0080
:10064000816080936E0010928100809181008260B1
:1006500080938100809181008160809381008091EE
:1006600080008160809380008091B10084608093DD
:10067000B1008091B00081608093B00080917A00D9
:10068000846080937A0080917A00826080937A00FF
:1006900080917A00816080937A0080917A008068EE
:1006A00080937A001092C1008DE00E948C00E0914E
:1006B0002201F091230182E08083E0911E01F091FC
:1006C0001F011082E0912001F09121018FEC8083C5
:1006D00010922A01E0912601F091270186E08083A3
:1006E000E0912401F0912501808180618083E09177
:1006F0002401F0912501808188608083E0912401AC
:10070000F0912501808180688083E0912401F0913F
:10071000250180818F7D80838FE00E948C00C4E75B
:10072000D0E000EB10E03CE9E32E30E0F32ECC24E7
:10073000C394D12C50E4A52EFE018491F80194902D
:10074000F701B490BB20A9F081110E94AB008B2D62
:1007500090E0880F991F88599F4FFC01A591B49193
:100760008C91982291E080E009F490E0892E982EF7
:1007700002C0812C912C9092B6018092B50180919B
:10078000AF019091B00188169906F1F0F1E08F1653
:100790009104D1F461E08DE00E94D40068EE73E032
:1007A00080E090E00E94290160E08DE00E94D4008A
:1007B00062E070E080E090E00E9429016AE070E071
:1007C00080E090E00E9429019092B0018092AF01F8
:1007D000A0927C0080917A00806480937A0080915E
:1007E0007A0086FDFCCF8090780080917900912C72
:1007F000982A9092B4018092B3016AE070E080E0A0
:1008000090E00E94290185EB88169104D4F0809134
:10081000B1019091B20144979CF4D092B201C09280
:10082000B10161E08FE00E94D40068EE73E080E0E7
:1008300090E00E94290160E08FE00E94D40001C096
:10084000FFCF1092B4011092B3010E94630274CFE3
:10085000E2E1F1E01382128288EE93E0A0E0B0E0E2
:1008600084839583A683B78384E091E0918380831A
:1008700085EC90E09587848784EC90E09787868765
:1008800080EC90E0918B808B81EC90E0938B828B5D
:1008900082EC90E0958B848B86EC90E0978B868B36
:1008A000118E128E138E148E0895EE0FFF1F059079
:1008B000F491E02D099481E090E0F8940C946004A8
:0408C000F894FFCFDA
:1008C40000000000FA01630192014102C301A10189
:0208D400B5016C
:00000001FF
