:100000000C943A010C946B010C946B010C946B01F1
:100010000C946B010C946B010C946B010C946B01B0
:100020000C946B010C946B010C946B010C946B01A0
:100030000C946B010C946B010C946B010C946B0190
:100040000C946B010C946B010C946B010C946B0180
:100050000C946B010C946B010C946B010C94CF030A
:100060000C946B010C9497040C946D040C946B012C
:100070000C946B010C946B010C946B010C946B0150
:100080000C946B010C946B010C946B010C946B0140
:100090000C9443040C9419040C946B010C946B01A4
:1000A0000C946B010C946B010C946B010C946B0120
:1000B0000C946B010C946B010C946B010C946B0110
:1000C0000C946B010C946B010C946B010C946B0100
:1000D0000C946B010C946B010C946B010C946B01F0
:1000E0000C946B01C301C601B501B901BD01FD014D
:1000F000CA01CE01D401D801DC01E201E601EA0126
:10010000FD01F001F401F8010C94C1040C94DC0130
:100110000C94B5010C942A030C94CA010C94F401BC
:100120000C94D8010C94F8010C94DB020C94FD01A2
:100130000C94CE010C94BD010C94B8020C94F00107
:100140000C9476030C94C6010C94E9020C94EA0119
:100150000C94D4010C94B9010C9470020C94C70255
:100160000C94E6010C94C3010C94E2010000210000
:10017000240027002A002D00300033000101000078
:10018000040107010A0100002200250028002B00BD
:100190002E003100340002010000050108010B01AE
:1001A00005050505070508080808020202020A0AF3
:1001B0000808040404040101010101010101030311
:1001C000030303030303040707070C0C0C0C0C0CBC
:1001D0000C0C0202020206060606060606060B0BB9
:1001E0000B0B0B0B0B0B01021020200808102040FA
:1001F00010204080020102010804020101020408EB
:100200001020408080402010080402018004020178
:1002100080402010080402010804020101020408C1
:1002200010204080010204081020408000000A0BCA
:1002300002090C0D0E080703040100000000000075
:1002400000000000000000000000000000000000AE
:10025000000000000000000012111000000000006B
:10026000000000000000000000000000000000008E
:100270000000C10411241FBECFEFD1E2DEBFCDBF0D
:1002800000E00CBF12E0A0E0B2E0ECE6FCE000E031
:100290000BBF02C007900D92A231B107D9F723E03E
:1002A000A2E1B2E001C01D92A635B207E1F711E06C
:1002B000CAE3D1E000E006C021970109802FFE01CA
:1002C0000E942706C933D10780E00807A9F70E94DA
:1002D00014050C9434060C940000FC01A089B1892B
:1002E00082E08C93A485B5851C92A685B78580E1B4
:1002F0008C93108EA489B58986E08C93A289B389EA
:100300008C9180618C93A289B3898C9188608C9345
:10031000A289B3898C9180688C930288F389E02D3F
:1003200080818F7D80830895362F90E0FC01E45D0D
:10033000FD4F4491FC01EA51FE4F2491FC01E0562F
:10034000FE4F9491992309F46BC0442309F455C0DE
:1003500050E0FA013197E231F10508F04EC08827EC
:10036000EE58FF4F8F4F0C942706809180008F77B7
:1003700007C0809180008F7D03C080918000877FBF
:10038000809380003AC084B58F7702C084B58F7D9A
:1003900084BD33C08091B0008F7703C08091B000DE
:1003A0008F7D8093B00029C0809190008F7707C027
:1003B000809190008F7D03C080919000877F809313
:1003C00090001BC08091A0008F7707C08091A00093
:1003D0008F7D03C08091A000877F8093A0000DC017
:1003E000809120018F7707C0809120018F7D03C00D
:1003F00080912001877F80932001E92FF0E0EE0FAC
:10040000FF1FEA57FE4FA591B4918FB7F894EC9176
:10041000311103C020952E2301C02E2B2C938FBFAA
:1004200008953FB7F8948091180290911902A09115
:100430001A02B0911B0226B5A89B05C02F3F19F0E8
:100440000196A11DB11D3FBFBA2FA92F982F882754
:10045000820F911DA11DB11DBC01CD0142E0660FAF
:10046000771F881F991F4A95D1F708958F929F9201
:10047000AF92BF92CF92DF92EF92FF926B017C011D
:100480000E9411024B015C01C114D104E104F1048A
:10049000F1F00E941102DC01CB0188199909AA0927
:1004A000BB09883E9340A105B10570F321E0C21A53
:1004B000D108E108F10888EE880E83E0981EA11C9F
:1004C000B11CC114D104E104F10419F7DDCFFF9090
:1004D000EF90DF90CF90BF90AF909F908F90089556
:1004E000CF92DF92EF92FF920F931F93CF93DF9300
:1004F0006C017A018B01C0E0D0E0CE15DF0589F0F8
:10050000D8016D918D01D601ED91FC910190F081A2
:10051000E02DC6011995892B11F47E0102C02196A8
:10052000ECCFC701DF91CF911F910F91FF90EF901A
:10053000DF90CF900895FC01A089B1898C91A689A4
:10054000B78982FD0FC09C91818D8F5F8F73228D43
:10055000821749F0218DDF01A20FB11D5D969C939A
:10056000818F08958C910895089580E090E008951A
:10057000FC01538D448D252F30E0842F90E0821BA9
:10058000930B541710F0CF96089501970895FC012E
:10059000918D828D981761F0828DDF01A80FB11DBA
:1005A0005D968C91928D9F5F9F73928F90E00895DE
:1005B0008FEF9FEF0895FC01918D828D981731F098
:1005C000828DE80FF11D858D90E008958FEF9FEFEC
:1005D0000895FC01918D228D892F90E0805C9F4FC2
:1005E000821B91098F73992708958CE192E00E94F4
:1005F000E90221E0892B09F420E0822F089589EB9C
:1006000092E00E94E90221E0892B09F420E0822F88
:100610000895FC01848DDF01A80FB11DA35ABF4FBF
:100620002C91848D90E001968F739927848FA689F1
:10063000B7892C93A089B1898C9180648C93938D18
:10064000848D981306C00288F389E02D80818F7D08
:1006500080830895EF92FF920F931F93CF93DF93C0
:10066000EC0181E0888F9B8D8C8D981305C0E88903
:10067000F989808185FD24C0F62E0B8D10E00F5F77
:100680001F4F0F731127E02E8C8DE8120CC00FB690
:1006900007FCFACFE889F989808185FFF5CFCE0183
:1006A0000E940903F1CF8B8DFE01E80FF11DE35A83
:1006B000FF4FF0820B8FEA89FB898081806207C03F
:1006C000EE89FF896083E889F9898081806480836D
:1006D00081E090E0DF91CF911F910F91FF90EF901B
:1006E0000895682F89EB92E00C942A03CF93DF934F
:1006F000EC01888D8823C9F0EA89FB89808185FD1A
:1007000005C0A889B9898C9186FD0FC00FB607FC7A
:10071000F5CF808185FFF2CFA889B9898C9185FFBB
:10072000EDCFCE010E940903E7CFDF91CF9108956D
:1007300080E090E0892B21F00E94FF02811121C00E
:1007400080E090E0892B21F00E94F50281111CC00D
:1007500080E090E0892B41F080E090E0892B21F04F
:100760000E940000811113C080E090E0892BA1F06D
:1007700080E090E0892B81F00E94000081110AC086
:1007800008950E940000DCCF0E940000E1CF0E948B
:100790000000EACF0C94000008950E942F061F92DB
:1007A0000F920FB60F9211242F933F938F939F9325
:1007B000AF93BF938091140290911502A0911602FD
:1007C000B09117023091130223E0230F2D3720F44C
:1007D0000196A11DB11D05C026E8230F0296A11D9B
:1007E000B11D209313028093140290931502A093DD
:1007F0001602B09317028091180290911902A091ED
:100800001A02B0911B020196A11DB11D809318021E
:1008100090931902A0931A02B0931B02BF91AF915B
:100820009F918F913F912F910F900FBE0F901F902E
:1008300018951F920F920FB60F9211240BB60F92BC
:100840002F933F934F935F936F937F938F939F93D8
:10085000AF93BF93EF93FF938CE192E00E94090363
:10086000FF91EF91BF91AF919F918F917F916F9188
:100870005F914F913F912F910F900BBE0F900FBE44
:100880000F901F9018951F920F920FB60F92112480
:100890000BB60F922F933F934F935F936F937F937A
:1008A0008F939F93AF93BF93EF93FF938CE192E06D
:1008B0000E949B02FF91EF91BF91AF919F918F9109
:1008C0007F916F915F914F913F912F910F900BBE50
:1008D0000F900FBE0F901F9018951F920F920FB69A
:1008E0000F9211240BB60F922F933F934F935F9368
:1008F0006F937F938F939F93AF93BF93EF93FF93E8
:1009000089EB92E00E940903FF91EF91BF91AF91B3
:100910009F918F917F916F915F914F913F912F9117
:100920000F900BBE0F900FBE0F901F9018951F9247
:100930000F920FB60F9211240BB60F922F933F9385
:100940004F935F936F937F938F939F93AF93BF93D7
:10095000EF93FF9389EB92E00E949B02FF91EF914E
:10096000BF91AF919F918F917F916F915F914F91C7
:100970003F912F910F900BBE0F900FBE0F901F90C5
:100980001895ECE1F2E01382128248EE53E060E049
:1009900070E0448355836683778384E092E091839B
:1009A00080832DEC30E0358724872CEC30E03787CE
:1009B000268728EC30E0318B208B29EC30E0338B1C
:1009C000228B2AEC30E0358B248B2EEC30E0378BF9
:1009D000268B118E128E138E148EE9EBF2E01382A9
:1009E000128244835583668377839183808385EC69
:1009F00090E09587848784EC90E09787868780ECE9
:100A000090E0918B808B81EC90E0938B828B82ECD9
:100A100090E0958B848B86EC90E0978B868B118E83
:100A2000128E138E148E0895789484B5826084BDDE
:100A300084B5816084BD85B5826085BD85B58160E2
:100A400085BD80916E00816080936E001092810060
:100A5000809181008260809381008091810081601B
:100A600080938100809180008160809380008091DC
:100A7000B10084608093B1008091B0008160809368
:100A8000B0008091910082608093910080919100EC
:100A900081608093910080919000816080939000AC
:100AA0008091A10082608093A1008091A10081606B
:100AB0008093A1008091A00081608093A00080912C
:100AC00021018260809321018091210181608093C6
:100AD00021018091200181608093200180917A0022
:100AE000846080937A0080917A00826080937A009B
:100AF00080917A00816080937A0080917A0080688A
:100B000080937A001092C100E3EFF1E02491EDEAC6
:100B1000F1E08491882399F090E0880F991FFC01FF
:100B2000E459FE4FA591B491FC01EA57FE4F85911F
:100B300094918FB7F894EC91E22BEC938FBF8CE1FA
:100B400092E00E946D0189EB92E00E946D0160EDE0
:100B500077E080E090E00E9436028CE192E00E9413
:100B6000E902892B31F08CE192E00E94C702809368
:100B7000120280911202813381F41092120281E0FC
:100B800090E00E94710361E08DE00E94940164EFA7
:100B900071E080E090E00E94360280911202823380
:100BA00081F41092120282E090E00E94710361E0F1
:100BB0008DE00E94940164EF71E080E090E00E947B
:100BC000360280911202833381F41092120283E084
:100BD00090E00E94710361E08DE00E94940164EF57
:100BE00071E080E090E00E9436028091120284332E
:100BF00081F41092120284E090E00E94710361E09F
:100C00008DE00E94940164EF71E080E090E00E942A
:100C1000360280911202853389F41092120261E04B
:100C20008DE00E94940185E090E00E94710364EFE2
:100C300071E080E090E00E94360206C060E08DE046
:100C40000E949401109212020E94980386CFEE0F28
:100C5000FF1F881F8BBF0790F691E02D199481E04C
:0C0C600090E0F8940C943406F894FFCF58
:100C6C00000000002A037002B8027603E902C702F2
:020C7C00DB0299
:00000001FF
