:100000000C94F9030C942A040C942A040C942A04EA
:100010000C942A040C942A040C942A040C942A04A8
:100020000C942A040C942A040C942A040C942A0498
:100030000C942A040C945C0F0C942A040C942A044B
:100040000C942A040C942A040C942A040C942A0478
:100050000C942A040C942A040C942A040C94551130
:100060000C942A040C942A040C942A040C942A0458
:100070000C942A040C942A040C942A040C942A0448
:100080000C942A040C942A040C942A040C942A0438
:100090000C94FF0E0C94D50E0C942A040C945E1450
:1000A0000C942A040C942A040C942A040C942A0418
:1000B0000C942A040C942A040C942A040C942A0408
:1000C0000C942A040C942A040C942A040C94AB0E6D
:1000D0000C94810E0C942A040C942A040C942A0487
:1000E0000C942A04BB10BE10AD10B110B710F5105F
:1000F000C210C610CC10D010D410DA10DE10E210EE
:10010000F510E810EC10F0100C94B1100C94D50818
:100110000C94D0100C94DA060C9464120C94930492
:100120000C94EC100C94F0100C94B7100C94DE109E
:100130000C9465120C94F5100C9482120C947312AA
:100140000C94A40D0C9436080C94DA100C94BA128A
:100150000C94AB0C0C94C2100C94AD100C94D408FD
:100160000C94E2100C94BB100C94CC100C947F04F3
:100170000C94D30D0C94C90C0C94D4100C947D0EDB
:100180000C94D60B0C94C00D0C9470040C94E204E7
:100190000C94A1040C94A30D0C94000B0C948005FA
:1001A0000C94BE100C94350C0C942C040C948A12F4
:1001B0000C947E0E0C94D40D0C94B40D0C94CC0DB8
:1001C0000C9429050C94C6100C94481A0C94E81051
:1001D00000000000003E5B4F5B3E3E6B4F6B3E1CE1
:1001E0003E7C3E1C183C7E3C181C577D571C1C5EF8
:1001F0007F5E1C00183C1800FFE7C3E7FF001824CF
:100200001800FFE7DBE7FF30483A060E2629792978
:1002100026407F050507407F05253F5A3CE73C5AAD
:100220007F3E1C1C08081C1C3E7F14227F22145F8A
:100230005F005F5F06097F017F006689956A6060E5
:1002400060606094A2FFA29408047E040810207EDF
:10025000201008082A1C08081C2A08081E10101064
:10026000100C1E0C1E0C30383E3830060E3E0E06AA
:10027000000000000000005F0000000700070014FD
:100280007F147F14242A7F2A1223130864623649BC
:100290005620500008070300001C224100004122A4
:1002A0001C002A1C7F1C2A08083E080800807030A9
:1002B0000008080808080000606000201008040218
:1002C0003E5149453E00427F40007249494946211E
:1002D00041494D331814127F1027454545393C4A92
:1002E00049493141211109073649494936464949A9
:1002F000291E0000140000004034000000081422F1
:10030000411414141414004122140802015909065E
:100310003E415D594E7C1211127C7F494949363E5F
:10032000414141227F4141413E7F494949417F0945
:100330000909013E414151737F0808087F00417F50
:1003400041002040413F017F081422417F4040404E
:10035000407F021C027F7F0408107F3E4141413EE6
:100360007F090909063E4151215E7F091929462668
:100370004949493203017F01033F4040403F1F206C
:1003800040201F3F4038403F631408146303047843
:1003900004036159494D43007F4141410204081063
:1003A00020004141417F040201020440404040409E
:1003B000000307080020545478407F28444438380C
:1003C00044444428384444287F385454541800087E
:1003D0007E090218A4A49C787F0804047800447D58
:1003E00040002040403D007F1028440000417F40F5
:1003F000007C047804787C08040478384444443849
:10040000FC1824241818242418FC7C080404084828
:100410005454542404043F44243C4040207C1C2079
:1004200040201C3C4030403C44281028444C9090D4
:10043000907C4464544C440008364100000077002E
:1004400000004136080002010204023C2623263C3B
:100450001EA1A161123A4040207A385454555921C6
:1004600055557941225454784221555478402054AE
:100470005579400C1E5272123955555559395454FC
:10048000545939555454580000457C410002457D6B
:10049000420001457C407D1211127DF0282528F094
:1004A0007C545545002054547C547C0A097F4932C1
:1004B000494949323A4444443A324A4848303A4138
:1004C00041217A3A42402078009DA0A07D3D4242E1
:1004D000423D3D4040403D3C24FF2424487E49436A
:1004E000662B2FFC2F2BFF0929F620C0887E0903DD
:1004F00020545479410000447D413048484A323804
:100500004040227A007A0A0A727D0D19317D26292F
:10051000292F28262929292630484D402038080827
:10052000080808080808382F10C8ACBA2F1028345B
:10053000FA00007B000008142A142222142A14084E
:100540005500550055AA55AA55AAFF55FF55FF005D
:100550000000FF00101010FF00141414FF00101012
:10056000FF00FF1010F010F0141414FC001414F726
:1005700000FF0000FF00FF1414F404FC1414171013
:100580001F10101F101F1414141F00101010F00063
:100590000000001F101010101F10101010F010009D
:1005A0000000FF101010101010101010FF100000AD
:1005B00000FF140000FF00FF00001F10170000FCE8
:1005C00004F414141710171414F404F40000FF00BA
:1005D000F714141414141414F700F7141414171443
:1005E00010101F101F141414F4141010F010F00049
:1005F000001F101F0000001F14000000FC1400006A
:10060000F010F01010FF10FF141414FF141010104D
:100610001F00000000F010FFFFFFFFFFF0F0F0F000
:10062000F0FFFFFF0000000000FFFF0F0F0F0F0F94
:100630003844443844FC4A4A4A347E0202060602E0
:100640007E027E0263554941633844443C04407E47
:10065000201E2006027E020299A5E7A5991C2A49C0
:100660002A1C4C7201724C304A4D4D30304878484B
:1006700030BC625A463D3E494949007E0101017E37
:100680002A2A2A2A2A44445F444440514A4440408A
:10069000444A51400000FF0103E080FF00000808C9
:1006A0006B6B083612362436060F090F0600001849
:1006B000180000001010003040FF0101001F010170
:1006C0001E00191D1712003C3C3C3C0000000000BD
:1006D00000002100240027002A002D0030003300F4
:1006E00001010000040107010A01000022002500A9
:1006F00028002B002E00310034000201000005010B
:1007000008010B01000020002300260029002C0016
:100710002F00320000010000030106010901050558
:100720000505070508080808020202020A0A080867
:100730000404040401010101010101010303030395
:1007400003030303040707070C0C0C0C0C0C0C0C24
:100750000202020206060606060606060B0B0B0B35
:100760000B0B0B0B0102102020080810204010205A
:100770004080020102010804020101020408102065
:100780004080804020100804020180040201804063
:1007900020100804020108040201010204081020CC
:1007A0004080010204081020408000000A0B02096A
:1007B0000C0D0E08070304010000000000000000FB
:1007C0000000000000000000000000000000000029
:1007D00000000000000012111000000000000000E6
:1007E0000000000000000000000000000000000009
:1007F000481A11241FBECFEFD1E2DEBFCDBF00E00B
:100800000CBF16E0A0E0B2E0ECEFFBE300E00BBFB2
:1008100002C007900D92A83CB107D9F729E0A8ECD7
:10082000B6E001C01D92A93CB207E1F713E0C9EFA1
:10083000D3E000E006C021970109802FFE010E944D
:10084000181BC83FD10780E00807A9F70E94E915E7
:100850000C94FC1D0C940000CF92DF92EF92FF925B
:100860000F931F93CF93DF936C017A018B01C0E04C
:10087000D0E0CE15DF0589F0D8016D918D01D6014C
:10088000ED91FC910190F081E02DC6011995892B25
:1008900011F47E0102C02196ECCFC701DF91CF9108
:1008A0001F910F91FF90EF90DF90CF900895FC0182
:1008B000A089B1898C91A689B78982FD0FC09C91CE
:1008C000818D8F5F8F73228D821749F0218DDF011B
:1008D000A20FB11D5D969C93818F08958C91089510
:1008E000FC01538D448D252F30E0842F90E0821B36
:1008F000930B541710F0CF96089501970895FC01BB
:10090000918D828D981761F0828DDF01A80FB11D46
:100910005D968C91928D9F5F9F73928F90E008956A
:100920008FEF9FEF0895FC01918D828D981731F024
:10093000828DE80FF11D858D90E008958FEF9FEF78
:100940000895FC01918D228D892F90E0805C9F4F4E
:10095000821B91098F739927089584ED97E00E9477
:10096000A10421E0892B09F420E0822F089581E77A
:1009700098E00E94A10421E0892B09F420E0822F55
:100980000895FC01848DDF01A80FB11DA35ABF4F4C
:100990002C91848D90E001968F739927848FA6897E
:1009A000B7892C93A089B1898C9180648C93938DA5
:1009B000848D981306C00288F389E02D80818F7D95
:1009C00080830895EF92FF920F931F93CF93DF934D
:1009D000EC0181E0888F9B8D8C8D981305C0E88990
:1009E000F989808185FD24C0F62E0B8D10E00F5F04
:1009F0001F4F0F731127E02E8C8DE8120CC00FB61D
:100A000007FCFACFE889F989808185FFF5CFCE010F
:100A10000E94C104F1CF8B8DFE01E80FF11DE35A56
:100A2000FF4FF0820B8FEA89FB898081806207C0CB
:100A3000EE89FF896083E889F989808180648083F9
:100A400081E090E0DF91CF911F910F91FF90EF90A7
:100A50000895CF93DF93EC01888D8823C9F0EA894C
:100A6000FB89808185FD05C0A889B9898C9186FDA7
:100A70000FC00FB607FCF5CF808185FFF2CFA889A4
:100A8000B9898C9185FFEDCFCE010E94C104E7CFDB
:100A9000DF91CF91089580E090E0892B41F080E0D4
:100AA00090E0892B21F00E94000081111DC080E0A0
:100AB00090E0892B21F00E94B704811118C080E0DA
:100AC00090E0892B21F00E94AD04811113C080E0D9
:100AD00090E0892BA1F080E090E0892B81F00E94CA
:100AE000000081110AC008950E940000E0CF0E941A
:100AF0000000E5CF0E940000EACF0C9400000895AA
:100B00000F931F93CF93DF93DC0155968C915597EC
:100B1000823071F0833009F1813009F08CC0149675
:100B2000ED91FC911597E41BF50BE21BF30B20C034
:100B30001496ED91FC911597CF01861B970BBC0184
:100B4000615071091696ED91FC911797CF01841BA6
:100B5000950BAC01421B530B6EC01696ED91FC91A8
:100B60001797CF01861B970BBC0161507109FA01E1
:100B700077FD1BC116968D919C9117976817790781
:100B80000CF013C1F7FF04C02E0F3F1FE0E0F0E0B0
:100B900014968D919C911597AF01420F531F8417A6
:100BA00095071CF49C012E1B3F0B121613060CF02C
:100BB000FCC0CB0177FD079643E0959587954A9554
:100BC000E1F79695982F882797958795E80FF91F55
:100BD000E050FE4F6770772781E090E001C0880FFA
:100BE0006A95EAF7482F0130110541F088F002308C
:100BF000110509F0DAC02E0F3F1F15C02E0F3F1F41
:100C0000E217F30709F4D1C08081842B8193F8CFD8
:100C100080952E0F3F1FE217F30709F4C6C090819D
:100C200098239193F8CFE217F30709F4BEC08081AF
:100C300084278193F8CF77FDB8C014968D919C914D
:100C40001597681779070CF0B0C057FF04C0240F40
:100C5000351F40E050E016968D919C911797FA0150
:100C6000E20FF31F8E179F071CF49C01241B350B0A
:100C7000121613060CF099C0A22F842F8695869524
:100C8000869590E8899F600D711D1124FB01E0504D
:100C9000FE4F4770A9F198E0941B492F50E0EA01FC
:100CA000C85FD94F8881291790F4421B51092FEF53
:100CB00030E002C0359527954A95E2F7822301304E
:100CC000110541F068F00230110589F06EC0013065
:100CD000110519F42081822B0CC00130110520F47C
:100CE00080952081822305C00230110531F42081D6
:100CF00082278083A91708F458C0A91BE058FF4F2A
:100D0000A83048F10230110559F4EF018A2F98817B
:100D100090959883C058DF4F88508830C0F730C016
:100D200081E00130110509F080E08195EF019A2FF3
:100D30008883C058DF4F98509830D0F788EF8A0FDB
:100D400086958695869590E8899FE00DF11D112482
:100D5000E058FF4FA770AA2341F1B0E0A050BA4F6E
:100D60008C910130110529F038F002301105D1F0D5
:100D70001CC09081892B18C080959081892314C054
:100D800088EF8A0F86958695869590E8899FE00D75
:100D9000F11D1124E058FF4FA77039F0B0E0A050CA
:100DA000BA4F8C91908189278083DF91CF911F91D9
:100DB0000F9108950F931F93CF93DF93DC01FB01F5
:100DC00055968C915597823081F0833019F181309E
:100DD00051F514968D919C911597BC01641B750B70
:100DE000AB0141505109BF0181C014966D917C91B6
:100DF0001597CB018E1B9F0BFC0116968D919C9134
:100E00001797BC01641B750BAB0141505109E21BE4
:100E1000F30B09C016966D917C9117976E1B7F0B93
:100E2000621B730B63C057FD1CC116968D919C917C
:100E30001797481759070CF014C1F7FF04C02E0F7D
:100E40003F1FE0E0F0E014968D919C911597BF0153
:100E5000620F731F861797071CF49C012E1B3F0B14
:100E6000121613060CF0FDC0CA0157FD079663E089
:100E7000959587956A95E1F79695982F8827979588
:100E80008795E80FF91FE050FE4F4770552781E026
:100E900090E001C0880F4A95EAF7482F013011050C
:100EA00041F088F00230110509F0DBC02E0F3F1F22
:100EB00015C02E0F3F1FE217F30709F4D2C080813F
:100EC000842B8193F8CF80952E0F3F1FE217F307F5
:100ED00009F4C7C0908198239193F8CFE217F307E4
:100EE00009F4BFC0808184278193F8CF57FDB9C032
:100EF00014968D919C911597481759070CF0B1C025
:100F000077FF04C0260F371F60E070E016968D91C2
:100F10009C911797FB01E20FF31F8E179F071CF49C
:100F20009C01261B370B121613060CF09AC0A22F39
:100F3000862F86958695869590E8899F400D511D50
:100F40001124FA01E050FE4F6770A9F198E0961B5A
:100F5000492F50E0EA01C85FD94F8881291790F4E2
:100F6000421B51092FEF30E002C0359527954A9575
:100F7000E2F782230130110541F068F002301105DB
:100F800089F06FC00130110519F42081822B0CC04B
:100F90000130110520F480952081822305C00230A4
:100FA000110531F4208182278083A91708F459C0E4
:100FB000A91BE058FF4FA83048F10230110559F441
:100FC000EF018A2F988190959883C058DF4F885001
:100FD0008830C0F731C081E00130110509F080E0B0
:100FE0008195EF019A2F8883C058DF4F9850983031
:100FF000D0F788EF8A0F86958695869560E8869F5C
:10100000E00DF11D1124E058FF4FA770AA2349F10C
:10101000B0E0A050BA4F8C910130110529F038F0A2
:1010200002301105D9F01DC09081892B03C0809535
:1010300090818923808315C088EF8A0F86958695D5
:10104000869570E8879FE00DF11D1124E058FF4F51
:10105000A77039F0B0E0A050BA4F8C9190818927E9
:10106000E9CFDF91CF911F910F910895FC0177FD9A
:101070009AC080859185681779070CF094C057FD58
:1010800092C082859385481759070CF08CC08589DA
:10109000823009F07CC084819581DC01A61BB70BEE
:1010A000BD016150710986819781FC01E41BF50B3C
:1010B000AF01415051090AC0813041F484819581CA
:1010C000841B950BAB01BC016150710921303105C6
:1010D00029F008F122303105E1F10895FA0157FDB8
:1010E0003796A3E0F595E795AA95E1F7F695FE2FDB
:1010F000EE27F795E7956E0F7F1FFB01E050FE4F3F
:101100004770552781E090E001C0880F4A95EAF7C3
:101110009081892B3AC0FA0157FD379623E0F59567
:10112000E7952A95E1F7F695FE2FEE27F795E795D7
:101130006E0F7F1FFB01E050FE4F4770552781E087
:1011400090E001C0880F4A95EAF780959081892345
:101150001CC0FA0157FD379683E0F595E7958A950F
:10116000E1F7F695FE2FEE27F795E7956E0F7F1FB7
:10117000FB01E050FE4F4770552781E090E001C031
:10118000880F4A95EAF790818927808308958330F4
:1011900009F092CF86819781861B970BBA01AC012B
:1011A0004150510993CF08950895FC016370658BF8
:1011B0008481958126813781613039F0633029F04F
:1011C0009187808733872287089531872087938787
:1011D000828708952F923F924F925F926F927F92F3
:1011E0008F929F92AF92BF92CF92DF92EF92FF9237
:1011F0000F931F93CF93DF93CDB7DEB76C970FB6E6
:10120000F894DEBF0FBECDBF9C8F8B8F5B011A01A0
:101210001F830E833701C982DC0158964D915C9182
:1012200059974115510509F0E5C018968D919C918B
:101230001997681779070CF0CAC11A968D919C917D
:101240001B97281639060CF0C2C18C2C912CFB017F
:1012500036E0C39EE00DF11D1124FB87EA871E16C0
:101260001F060CF0B4C1C40133E0880F991F3A95F2
:10127000E1F79D878C87820D931D181619060CF0D7
:10128000A6C157968C91811103C0203B08F02F5FB7
:10129000AB8DBC8DED91FC9111970284F385E02D0F
:1012A000CD012A8F19952A8DB5E02B9F900111242D
:1012B000F5013596FF87EE87BB82AA822501A90139
:1012C0004A195B09598B488BC10108969B8B8A8B05
:1012D000E889F989E40DF51DE053FE4F9491988754
:1012E00061013D822C82A885A0FF13C0AB8DBC8D0F
:1012F000ED91FC91B981B13031F40484F585E02D94
:101300002E813F8116C00684F785E02DEE80FF8098
:101310001AC0EE81FF816E167F06F1F0AB8DBC8D99
:10132000ED91FC91B981B13051F40484F585E02D43
:101330009301A601B2018B8D9C8D19950DC0068479
:10134000F785E02D7301840194014C815D816A81F0
:101350007B818B8D9C8D1995E885E695E887FFEF5D
:10136000CF1ADF0A2C813D81280D391D3D832C8346
:101370004A895B89C416D50609F0B5CF5FEF451AD7
:10138000550A8A819B81880D991D9B838A83AE852E
:10139000BF854A165B0609F09BCFEE81FF816E1672
:1013A0007F0609F4F2C0EB8DFC8DA081B181F9813B
:1013B000F13079F4B5016B5F7F4F5096ED91FC9160
:1013C0005197830128E030E0A1018B8D9C8D199508
:1013D000DCC06A857B85681979091E96ED91FC91C0
:1013E0001F9773010C851D859401A1018B8D9C8D28
:1013F0001995CBC0FA013496949132976591749106
:10140000291BCB01B7E02B9F800D911D1124FA0100
:10141000259134913B8B2A8BFC01459154915B8340
:101420004A83FC013296C490319654915E8732967D
:1014300014913196D4908981823058F0612E012E1A
:10144000000C7708AD2D0D2C000CBB0BB987A887BD
:1014500004C019861886612C712CAB8DBC8DED9162
:10146000FC9111970284F385E02DCD011995B98186
:101470008B2E912C689CC001699C900D789C900DDE
:101480001124FC01EA0DFB1DFD87EC871C82712CE9
:10149000612CE12F110FFF0B95012E0F3F1F3B8792
:1014A0002A87AC0CB11CA5014E0F5F1F5F8B4E8BC2
:1014B000C1018D0D911DD7FC9A95998F888F4E850E
:1014C000641608F062C0862D90E048855985480F63
:1014D000591F489D9001499D300D589D300D112494
:1014E000D901A20DB31DB98BA88BAA84BB844C84EF
:1014F0005D84DC80BA85DB1AE88DF98DE80FF91F71
:10150000FD8BEC8B8D2D8A0D2E893F89A216B3069B
:10151000B9F1877061F48A819B810196EA89FB8920
:10152000AA81BB81EA0FFB1F74909B838A8377FE9D
:1015300020C0AB8DBC8DED91FC91B981B13061F4CF
:101540000484F585E02D2E813F814C895D89B501AC
:101550008B8D9C8D19950DC00684F785E02DEE804E
:10156000FF808401940148895989B2018B8D9C8D3B
:101570001995770CEFEFAE1ABE0A480C591CC2CF72
:101580003C813C0D3C8363949ACFAB8DBC8DED9137
:10159000FC9111970688F789E02DCD016C960FB666
:1015A000F894DEBF0FBECDBFDF91CF911F910F9199
:1015B000FF90EF90DF90CF90BF90AF909F908F9073
:1015C0007F906F905F904F903F902F9019946C9602
:1015D0000FB6F894DEBF0FBECDBFDF91CF911F9144
:1015E0000F91FF90EF90DF90CF90BF90AF909F90C2
:1015F0008F907F906F905F904F903F902F900895C5
:10160000AF92BF92CF92EF92FF920F931F93CF931F
:10161000DF93EC01262F888D998D009709F040C04B
:101620006A3059F41D861C862C898E859F8538E08A
:10163000239F800D911D112441C06D3009F4AAC073
:101640008E898823C1F03C898C859D8546E0349F36
:10165000800D911D112448855985481759075CF460
:101660001D861C868E859F8548E0349F800D911DC8
:1016700011249F878E87EA88FB88088919894E85FF
:101680005F856C857D85CC88CE010E94EA082C8917
:101690008C859D8536E0239F800D911D112442C0CD
:1016A0006A3079F41D861C862C89FC013696E491FB
:1016B0008E859F852E9F800D911D11249F878E877B
:1016C00069C06D3009F466C0FC013496349163172B
:1016D00008F460C03196E491E61708F45BC0FC01A1
:1016E0003296A590B490462F50E0431B510937E045
:1016F000349FB001359F700D1124A60EB71EF50161
:10170000329634913196E491332311F0E1110DC0FA
:10171000F5013496E4912C898C859D85E29F800D9E
:10172000911D11249D878C8735C0F5013596449114
:101730005E89552311F16C89E32FF0E0E40FF11D70
:1017400047FDFA956E9FD0016F9FB00D11244C8517
:101750005D854A0F5B1FE885F985E417F5076CF492
:101760001D861C86FC013696E4918E859F856E9FB2
:10177000800D911D11249F878E87EA88FB88088938
:1017800019894E855F856C857D85CC88CE010E9448
:10179000EA08BECF81E090E0DF91CF911F910F91D9
:1017A000FF90EF90CF90BF90AF9008956F927F928F
:1017B0008F929F92AF92BF92CF92DF92EF92FF9261
:1017C0000F931F93CF93DF93EC014B015A016901F3
:1017D0003801E881F9810284F385E02D1995E881CB
:1017E000F9810288F389E02D87019601A501B401F2
:1017F000CE011995E881F981A501460D571D41508B
:1018000051090288F389E02D9601B401CE011995A2
:10181000E881F9810088F189E02D9301A501B401E7
:10182000CE011995E881F981C80CD91CB601615027
:1018300071090088F189E02D9301A501CE01199568
:10184000E881F9810688F789E02DCE01DF91CF91FB
:101850001F910F91FF90EF90DF90CF90BF90AF90CE
:101860009F908F907F906F901994CF92DF92EF921C
:10187000FF920F931F93CF93DF9300D000D0CDB78B
:10188000DEB76C01DC01ED91FC916217730789F4FE
:10189000041715072CF4942F852FA801092F182F52
:1018A000041B150B98012F5F3F4F048CF58DE02D25
:1018B00012C04017510709F5261737072CF4962F49
:1018C000872FB901292F382F261B370B2F5F3F4F4A
:1018D000068CF78DE02D8701C601199526960FB667
:1018E000F894DEBF0FBECDBFDF91CF911F910F9156
:1018F000FF90EF90DF90CF9008950284F385E02D64
:101900002D833E834B835C8369837A831995D6014B
:10191000ED91FC910488F589E02D2D813E814B816C
:101920005C8169817A81C6011995D601ED91FC919E
:101930000688F789E02DC60126960FB6F894DEBF1B
:101940000FBECDBFDF91CF911F910F91FF90EF9010
:10195000DF90CF901994EF92FF920F931F93DC01C9
:10196000ED91FC9111971A960D911C911B97189669
:101970002D913C91199700A0F1A1E02D7B0140E051
:1019800050E060E070E019951F910F91FF90EF908B
:1019900008954F925F926F927F928F929F92AF9233
:1019A000BF92CF92DF92EF92FF920F931F93CF934C
:1019B000DF931F921F92CDB7DEB76C015A01390138
:1019C0004801DC01ED91FC910284F385E02D6983EF
:1019D0007A8319956981462E7A81572E640C751C7D
:1019E000D601ED91FC91461457046CF40088F189FE
:1019F000E02D87019401A501B201C6011995BFEF41
:101A00004B1A5B0AEDCF0688F789E02DC6010F90CF
:101A10000F90DF91CF911F910F91FF90EF90DF908A
:101A2000CF90BF90AF909F908F907F906F905F907E
:101A30004F901994AF92BF92CF92DF92EF92FF92A4
:101A40000F931F93CF93DF9300D01F92CDB7DEB7D4
:101A50005C016901DC01ED91FC910284F385E02DCC
:101A60004B835C8369837A831995D501ED91FC9151
:101A700069817A819B012C0D3D1D2150310904881B
:101A8000F589E02D78014B815C818A01C5011995AA
:101A9000D501ED91FC910688F789E02DC5010F90E5
:101AA0000F900F900F90DF91CF911F910F91FF90AA
:101AB000EF90DF90CF90BF90AF901994AF92BF920C
:101AC000CF92DF92EF92FF920F931F93CF93DF930A
:101AD00000D01F92CDB7DEB75C016901DC01ED914A
:101AE000FC910284F385E02D4B835C8369837A83C8
:101AF0001995D501ED91FC914B815C81C40ED51EE9
:101B0000B1E0CB1AD1080488F589E02D780186016F
:101B100069817A819B01C5011995D501ED91FC91EF
:101B20000688F789E02DC5010F900F900F900F9058
:101B3000DF91CF911F910F91FF90EF90DF90CF90A9
:101B4000BF90AF9019940895EF92FF920F931F9357
:101B5000DC01ED91FC9100A0F1A1E02D19951F9100
:101B60000F91FF90EF9008950F931F93DC01ED917B
:101B7000FC91068CF78DE02D19951F910F9108951A
:101B80000F931F93DC01ED91FC91048CF58DE02DFA
:101B900019951F910F910895DC01ED91FC9100843E
:101BA000F185E02D199408952F923F924F925F9204
:101BB0006F927F928F929F92AF92BF92CF92DF925D
:101BC000EF92FF920F931F93CF93DF9300D0CDB787
:101BD000DEB74C017B836A836A01590117019801C2
:101BE000241B350B37FF03C0319521953109C50101
:101BF0004A815B81841B950B97FF03C0919581956A
:101C0000910951E059838217930714F019820BC090
:101C10009A2D8B2D5801092F182F9A818B81DB82E9
:101C2000CA82C92ED82E8A819B81A816B9065CF477
:101C30009C2D8D2D6801092F182F9A818B81BB82D5
:101C4000AA82A92EB82E2501AA81BB814A1A5B0A55
:101C500038016C187D0877FE03C071946194710897
:101C6000720157FE03C0BFEFEB1AFB0AF594E7942D
:101C7000C016D1061CF00FEF1FEF1FC001E010E0EF
:101C80001CC0D401ED91FC91B9810484F585E02D4F
:101C90009101BB23C1F04A815B81B601C401199552
:101CA000E618F708F7FE04C0C00ED11EE40CF51CC0
:101CB000EA81FB813196FB83EA834A815B81A4162A
:101CC000B506FCF604C0A6016A817B81E7CF0F90C0
:101CD0000F900F90DF91CF911F910F91FF90EF9098
:101CE000DF90CF90BF90AF909F908F907F906F903C
:101CF0005F904F903F902F900895089580E090E07E
:101D000008951F920F920FB60F9211240BB60F92E7
:101D10002F933F934F935F936F937F938F939F93F3
:101D2000AF93BF93EF93FF9384ED97E00E94C104BC
:101D3000FF91EF91BF91AF919F918F917F916F91A3
:101D40005F914F913F912F910F900BBE0F900FBE5F
:101D50000F901F9018951F920F920FB60F9211249B
:101D60000BB60F922F933F934F935F936F937F9395
:101D70008F939F93AF93BF93EF93FF9384ED97E07F
:101D80000E945704FF91EF91BF91AF919F918F9166
:101D90007F916F915F914F913F912F910F900BBE6B
:101DA0000F900FBE0F901F9018951F920F920FB6B5
:101DB0000F9211240BB60F922F933F934F935F9383
:101DC0006F937F938F939F93AF93BF93EF93FF9303
:101DD00081E798E00E94C104FF91EF91BF91AF911C
:101DE0009F918F917F916F915F914F913F912F9133
:101DF0000F900BBE0F900FBE0F901F9018951F9263
:101E00000F920FB60F9211240BB60F922F933F93A0
:101E10004F935F936F937F938F939F93AF93BF93F2
:101E2000EF93FF9381E798E00E945704FF91EF91B1
:101E3000BF91AF919F918F917F916F915F914F91E2
:101E40003F912F910F900BBE0F900FBE0F901F90E0
:101E500018958F929F92AF92BF92CF92DF92EF929E
:101E6000FF926B017C010E94F6104B015C0184E043
:101E7000C81AD108E108F108C80CD91CEA1CFB1CDF
:101E8000C814D904EA04FB0438F40E94F61086163C
:101E90009706A806B906C8F30E94F6106C157D05D2
:101EA0008E059F05C8F3FF90EF90DF90CF90BF9015
:101EB000AF909F908F9008951F920F920FB60F9240
:101EC00011240BB60F922F933F934F935F936F9311
:101ED0007F938F939F93AF93BF93EF93FF938091E3
:101EE000C9060E9490152091CD063091CE062F5F35
:101EF0003F4F3093CE062093CD069091CC06953679
:101F000018F096E09093C8069091C8069430C9F1F5
:101F100028F4923069F09330D1F05EC0953009F426
:101F200051C0963009F058C091E09093990751C084
:101F3000811152C02091CD063091CE062436310554
:101F400008F442C0109299071092CC061CC0813050
:101F500009F042C0E091CC0691E09E0F9093CC0630
:101F6000F0E02091CD063091CE06EE0FFF1FE85332
:101F7000F94F308727831092CE061092CD0694E059
:101F800029C0811117C0E091CC0691E09E0F90937B
:101F9000CC06F0E02091CD063091CE06EE0FFF1F6B
:101FA000E853F94F308727831092CE061092CD0662
:101FB00093E010C02091CD063091CE062536310534
:101FC00058F007C0811108C01092CE061092CD06BD
:101FD00003C095E09093C8069091CB069923B9F081
:101FE00081110AC08091CA06882321F08091CA0617
:101FF00061E009C02F9A0BC08091CA06882331F096
:102000008091CA0660E00E94B91501C02F98FF9127
:10201000EF91BF91AF919F918F917F916F915F9160
:102020004F913F912F910F900BBE0F900FBE0F90CD
:102030001F9018950E944814EEE0F9E0158614866A
:102040001786168680EA96E00E94CB1380E696E01B
:102050000E94CB138BE696E00E94CB1380EA96E0B9
:102060000E94CB130C9449130E944814EEE0F9E04F
:10207000158614861786168686E796E00E94CB138F
:1020800086EA96E00E94CB1380919C0790919D0771
:102090000E94CD1385EA96E00E94CB1381E896E07A
:1020A0000E94CB1386EA96E00E94CB1380919A0798
:1020B00090919B070E94CD1385EA96E00E94CB1376
:1020C0000C944913CF93DF9390E0FC01EC59F84F47
:1020D0002491FC01E25EF84F8491882361F190E045
:1020E000880F991FFC01E053F94FC591D491FC0171
:1020F000E651F94FA591B491611109C09FB7F894C9
:102100008881209582238883EC912E230BC0623036
:1021100061F49FB7F8943881822F80958323888358
:10212000EC912E2B2C939FBF06C08FB7F894E881BB
:102130002E2B28838FBFDF91CF9108950E94201B03
:1021400090E0FC013197E231F10508F04EC088279C
:10215000EE58FF4F8F4F0C94181B809180008F77A3
:1021600003C0809180008F7D8093800008958091CE
:102170008000877FF9CF84B58F7702C084B58F7DCB
:1021800084BD08958091B0008F7703C08091B00026
:102190008F7D8093B0000895809190008F7707C065
:1021A000809190008F7D03C080919000877F809305
:1021B000900008958091A0008F7707C08091A000C3
:1021C0008F7D03C08091A000877F8093A000089539
:1021D000809120018F7707C0809120018F7D03C0FF
:1021E00080912001877F8093200108953FB7F89464
:1021F0008091BC079091BD07A091BE07B091BF0729
:1022000026B5A89B05C02F3F19F00196A11DB11D51
:102210003FBFBA2FA92F982F8827820F911DA11D8C
:10222000B11DBC01CD0142E0660F771F881F991FC9
:102230004A95D1F708958F929F92AF92BF92CF9215
:10224000DF92EF92FF926B017C010E94F6104B012E
:102250005C01C114D104E104F104F1F00E94F61014
:10226000DC01CB0188199909AA09BB09883E934072
:10227000A105B10570F321E0C21AD108E108F10807
:1022800088EE880E83E0981EA11CB11CC114D104F5
:10229000E104F10419F7DDCFFF90EF90DF90CF90CC
:1022A000BF90AF909F908F9008951F920F920FB69E
:1022B0000F9211242F933F938F939F93AF93BF93CC
:1022C0008091B8079091B907A091BA07B091BB0768
:1022D0003091B70723E0230F2D3720F40196A11D7D
:1022E000B11D05C026E8230F0296A11DB11D209344
:1022F000B7078093B8079093B907A093BA07B09334
:10230000BB078091BC079091BD07A091BE07B0911B
:10231000BF070196A11DB11D8093BC079093BD0717
:10232000A093BE07B093BF07BF91AF919F918F91CC
:102330003F912F910F900FBE0F901F9018952091F5
:10234000C7079091C809213208F04AC08091C5079B
:102350008111FCCF32E03093C50731E03093C407E0
:102360003FEF3093A6091092A5092093A409A8EA8B
:10237000B9E044E859E0FA013E2F341B321718F453
:102380003D913193F9CF1092830920918309990FE0
:10239000922B909383099091C307913061F410922E
:1023A000C307909183099093BB009091BC0093FD6B
:1023B000F8CF95EC01C095EE9093BC009091C507C5
:1023C0009230E1F39091A6099F3F79F08091A609A0
:1023D000803241F08091A609803331F084E005C05D
:1023E00081E003C082E001C083E01092C607109232
:1023F000C7071092A709089590912F09992339F0E2
:102400008EBD00000DB407FEFDCF8EB5089528E007
:1024100030E040E8E0913209F09133095081909129
:102420003909909595239083E0913009F091310915
:1024300090913809542F582319F05081952B03C0DF
:102440005081909595239083E0913209F091330962
:10245000508190913909952B9083469521503109EF
:10246000C9F6089585ED8093BC008091BC0084FD81
:10247000FCCF1092C507089540915E09262F30E0E9
:10248000240F311D21323105DCF42091C5072430A1
:10249000C9F4FC0180E090E0861758F430915E09A1
:1024A0002191DC01A45CB64FA30FB11D2C930196C2
:1024B000F3CF80915E09680F60935E0980E0089514
:1024C00081E0089582E00895089581E090E03091E0
:1024D000C1072091C007321710F480E090E0919579
:1024E0008195910908958091C1079091C00789173E
:1024F00030F48F5F8093C10780E090E008958FEF04
:102500009FEF08958091C00790E02091C107821B42
:1025100091090895CF92DF92EF92FF920F931F934C
:10252000CF93DF937C01262F972F8A018091A709F3
:10253000882391F0C62FD72F6E01C40ED51ECC155F
:10254000DD0571F06991D701ED91FC910190F08169
:10255000E02DC7011995F3CF642F822F0E943C1202
:10256000C801DF91CF911F910F91FF90EF90DF9005
:10257000CF900895CF93DF931F92CDB7DEB76983D5
:102580002091A7092223D1F02091C707203240F0E3
:1025900021E030E0FC013383228380E090E015C02D
:1025A0008091C607E82FF0E0E855F64F99819083B7
:1025B0008F5F8093C6078093C70705C061E0CE0197
:1025C00001960E943C1281E090E00F90DF91CF9144
:1025D0000895009769F0FC0101900020E9F7319718
:1025E000AF01481B590BBC018EE099E00C942C0400
:1025F00080E090E00895682F84ED97E00C94E20469
:10260000CF93C82F80912A098F3F59F1E091340967
:10261000F0913509808190913A09982B9083E0914F
:102620003609F0913709208190913B0990959223CA
:102630009083E0913409F0913509208190913A0915
:102640009095922390838C2F0E94FC11E091340985
:10265000F0913509908180913A09892B8083CF913F
:1026600008958091280991E09093A7098093C80963
:102670001092C6071092C70760E088EC97E00E94AE
:10268000BA126C2F88EC97E00E94BA12CF910C948A
:102690009F11EF92FF920F931F93CF93DF9381E2ED
:1026A0000E94001380E00E9400138FE70E94001335
:1026B00082E20E94001380E00E94001387E00E94E3
:1026C000001380912A098F3F79F1E0913409F0914C
:1026D0003509908180913A09892B8083E0913609F0
:1026E000F0913709908180913B09892B8083E0919B
:1026F0003409F0913509908180913A0980958923B8
:102700008083C0E0D2E089910E94FC1186E0C03055
:10271000D807C9F7E0913409F0913509908180918B
:102720003A09892B808330C0F090B8008CE0809308
:10273000B800C0E0D2E0EE24E39480912809E09252
:10274000A7098093C8091092C6071092C70760E4D2
:1027500088EC97E00E94BA1200E010E0FE01E00F62
:10276000F11F608188EC97E00E94BA120F5F1F4F43
:102770000031110599F70E949F11609686E0C030E4
:10278000D807D9F6F092B800DF91CF911F910F9141
:10279000FF90EF9008950C94E9128F929F92AF9260
:1027A000BF92CF92DF92EF92FF920F931F93CF933E
:1027B000DF93CDB7DEB7A1970FB6F894DEBF0FBE9B
:1027C000CDBF6C01990FEE08FF08F7FE31C0E09114
:1027D0000E09F0910F090190F081E02D6DE28EE07D
:1027E00099E019958C0122273327A9012C193D095D
:1027F0004E095F0919A2CE0181967C019AE0892ECB
:10280000912CA12CB12CCA01B901A50194010E94FF
:10281000D71A605DF70162937F01211531054105EB
:10282000510589F7CF010E94E912800F911F1DC049
:10283000A701960119A28E010F5D1F4F8AE0C82ED5
:10284000D12CE12CF12CCA01B901A70196010E94FB
:10285000D71A605DF80162938F012115310541059A
:10286000510589F7CF010E94E912A1960FB6F8949D
:10287000DEBF0FBECDBFDF91CF911F910F91FF90B3
:10288000EF90DF90CF90BF90AF909F908F90089582
:1028900080E094E0E0E0F2E0DF019C011D92215035
:1028A0003040E1F70895E0EBF0E080818F7D808398
:1028B00068E572E080E090E00C94290F1F920F927F
:1028C0000FB60F9211240BB60F922F933F934F9395
:1028D0005F936F937F938F939F93AF93BF93EF9388
:1028E000FF938091B900887F803609F49CC068F519
:1028F000883209F45BC090F4803109F454C038F494
:10290000882309F4F6C0883009F44DC0F6C0883138
:1029100009F44CC0803209F45DC0EFC0803409F482
:1029200068C048F4803309F455C0883309F0E5C025
:102930008093A609D8C0803509F44FC0883509F4C2
:102940005DC0883409F0D9C0D6C0883909F4C7C041
:10295000A8F4883709F467C038F4883609F463C0EE
:10296000803709F460C0C9C0883809F4B8C080391C
:1029700009F45FC0803809F0C0C05BC0803B09F437
:1029800086C038F4803A09F466C0883A09F47FC0FA
:10299000B4C0803C09F4A7C0883C09F4A4C0883BBB
:1029A00009F48AC0AAC08091830910C09091A5093A
:1029B0008091A409981770F5E091A50981E08E0F28
:1029C0008093A509F0E0EC57F64F80818093BB001F
:1029D00085EC86C08093A6098EC0E091A50981E0B0
:1029E0008E0F8093A5098091BB00F0E0EC57F64F65
:1029F00080839091A5098091A4096EC0E091A509FA
:102A000081E08E0F8093A5098091BB00F0E0EC5728
:102A1000F64F80838091C40781116DC081E080935F
:102A2000C30784EA61C083E08093C50710928209DE
:102A3000CFCF80918209803208F051C0E0918209A5
:102A400081E08E0F809382098091BB00F0E0EE5907
:102A5000F64F8083BDCF85EC8093BC001092C507F4
:102A600080918209803230F4E0918209F0E0EE59E1
:102A7000F64F10826091820970E0E0916009F09158
:102A8000610982E699E019951092820936C084E0C6
:102A90008093C50710925F0910925E09E0915C096E
:102AA000F0915D09199580915E09811105C081E061
:102AB00080935E0910923C09E0915F0981E08E0FDE
:102AC00080935F09F0E0E45CF64F80818093BB0067
:102AD00090915F0980915E09981708F479CF85E895
:102AE0008093BC000AC085EC8093BC001092C5079F
:102AF00004C01092A6090E943212FF91EF91BF917B
:102B0000AF919F918F917F916F915F914F913F9185
:102B10002F910F900BBE0F900FBE0F901F90189526
:102B2000CF93DF93282F30E0F901E655F84F8491D9
:102B3000F901EC59F84FD491F901E25EF84FC491D4
:102B4000CC2391F081110E94A010EC2FF0E0EE0F49
:102B5000FF1FEC5FF84FA591B491EC91ED2381E05C
:102B600090E021F480E002C080E090E0DF91CF911E
:102B700008951F93CF93DF93282F30E0F901E65596
:102B8000F84F8491F901EC59F84FD491F901E25EC4
:102B9000F84FC491CC23C9F0162F81110E94A010C8
:102BA000EC2FF0E0EE0FFF1FE651F94FA591B49125
:102BB0008FB7F894111105C09C91ED2FE095E92392
:102BC00002C0EC91ED2BEC938FBFDF91CF911F9161
:102BD0000895CF93DF9300D01F92CDB7DEB77894DE
:102BE00084B5826084BD84B5816084BD85B5826012
:102BF00085BD85B5816085BD80916E0081608093C3
:102C00006E0010928100809181008260809381002B
:102C1000809181008160809381008091800081603B
:102C2000809380008091B10084608093B100809196
:102C3000B00081608093B0008091910082608093A9
:102C4000910080919100816080939100809190002B
:102C50008160809390008091A10082608093A100A8
:102C60008091A10081608093A1008091A00081608B
:102C70008093A00080912101826080932101809146
:102C800021018160809321018091200181608093E6
:102C9000200180917A00846080937A0080917A008C
:102CA000826080937A0080917A00816080937A00BC
:102CB00080917A00806880937A001092C100E09140
:102CC0008108F091820882E08083E0917D08F09194
:102CD0007E081082E0917F08F091800893E3908352
:102CE00010928908E0918508F091860826E02083FB
:102CF000E0918308F0918408908190619083E09145
:102D00008308F0918408908198609083E091830813
:102D1000F0918408908190689083E0918308F0910D
:102D2000840890819F7D9083E091E407F091E5070E
:102D30008083E091E007F091E1071082E091E207E3
:102D4000F091E30790E190831092EC07E091E8079F
:102D5000F091E9072083E091E607F091E707908181
:102D600090619083E091E607F091E7079081986089
:102D70009083E091E607F091E70790819068908357
:102D8000E091E607F091E70790819F7D9083809323
:102D900029098CE38093280980912A098F3F09F43F
:102DA000BDC061E080912C090E94621061E08091B9
:102DB0002E090E94621080912E09082E000C990B9A
:102DC000FC01E25EF84FE491F0E0EE0FFF1FE651E8
:102DD000F94F259134913093350920933409FC0142
:102DE000EC59F84FE491E0933A0980912C09082EB0
:102DF000000C990BFC01E25EF84FE491F0E0EE0F5D
:102E0000FF1FE651F94F25913491309337092093F4
:102E10003609FC01EC59F84FE491E0933B098091AD
:102E20002F0981113EC061E080912A090E94621041
:102E300061E080912B090E94621080912B09082E7D
:102E4000000C990BFC01E25EF84FE491F0E0EE0F0C
:102E5000FF1FE651F94F25913491309333092093A8
:102E60003209FC01EC59F84FE491E0933909809163
:102E70002A09082E000C990BFC01E25EF84FE49140
:102E8000F0E0EE0FFF1FE651F94F2591349130939A
:102E9000310920933009FC01EC59F84FE491E0939B
:102EA000380980912F09882309F45FC01FB7F8946F
:102EB00080919E07811127C0E3E5F7E08491E9E95D
:102EC000F7E09491E82FF0E0EE0FFF1FE053F94F89
:102ED000A591B491EC91E92321F461E085E30E948E
:102EE000B91561E085E30E9462108CB580618CBDEC
:102EF0008CB580648CBD61E084E30E94621061E067
:102F000083E30E94621080919E078F5F80939E07EB
:102F10001FBF80E58CBD81E08DBD27C01092C10729
:102F20001092C0071092C6071092C7071092C507EB
:102F300081E08093C4071092C30761E084E10E949E
:102F4000B91561E085E10E94B9158091B9008E7FC5
:102F50008093B9008091B9008D7F8093B90088E497
:102F60008093B80085E48093BC0080912D0987FD93
:102F70001EC061E00E94621061E080912D090E94F4
:102F8000B91561E070E080E090E00E941B1160E004
:102F900080912D090E94B9156AE070E080E090E010
:102FA0000E941B1161E080912D090E94B9158EEAE3
:102FB0000E94001385ED0E94001380E80E94001318
:102FC00088EA0E9400138FE30E94001383ED0E94A1
:102FD000001380E00E94001380E40E9400138DE83B
:102FE0000E94001384E10E94001380E20E940013FB
:102FF00080E00E94001381EA0E94001388EC0E9486
:1030000000138AED0E94001382E10E94001381E800
:103010000E9400138FEC0E94001389ED0E940013A0
:1030200081EF0E9400138BED0E94001380E40E9448
:10303000001384EA0E94001386EA0E9400138EE2C5
:103040000E9400138FEA0E9400130E9449130E94FD
:10305000481482E08093220910921F0910921E09E1
:1030600081E090E0909321098093200905E010E031
:103070000E94481410921B0910921A0910921D09FF
:1030800010921C0980EA96E00E94CB138CE896E02F
:103090000E94CB13C8010E94CD138BE996E00E94D9
:1030A000CB1368EE73E080E090E00E941B110E9459
:1030B000491301501109E1F68FE490E00E94FB12E0
:1030C00080E090E00E94FB1261E08DE00E946210BF
:1030D00061E086E00E94621060E082E00E9462107F
:1030E00060E087E00E9462103CE3432E512C612C8B
:1030F000712C40E1242E4EE0342E08EC12E40E94A4
:10310000481410921B0910921A0910921D0910926E
:103110001C0980EA96E00E94CB138BEA96E00E949D
:10312000CB132FB7F8946091B8077091B9078091CD
:10313000BA079091BB072FBF28EE33E040E050E084
:103140000E94D71A69017A01CA01B90120E13EE063
:1031500040E050E00E94F91A49015A01A30192018E
:103160000E94F91A29833A834B835C83289CC0010F
:10317000299C900D389C900D1124092E000CAA0B4F
:10318000BB0BC81AD90AEA0AFB0A4CE3429FC001EA
:10319000439F900D1124092E000CAA0BBB0BA70115
:1031A0009601281B390B4A0B5B0BCA01B901A3011D
:1031B00092010E94F91A7F936F933A813F9349815C
:1031C0004F939F928F92A7EBB6E0BF93AF93AFE977
:1031D000B7E0BF93AF930E94251B8FE997E00E9451
:1031E000CB1380EA96E00E94CB130E9449130E9401
:1031F000491381E798E00E94A1040FB6F894DEBF5E
:103200000FBECDBF892B31F081E798E00E947F048B
:103210008093B0078091B007813321F580919A07A0
:1032200090919B07019690939B0780939A0781E367
:1032300090E00E94FB120E94341060ED77E080E085
:1032400090E00E941B1180919A0790919B079093A8
:10325000AA078093A9071092B00744971CF00E9418
:103260001A10FDCF8091B007833321F580919A0722
:1032700090919B07059690939B0780939A0782E312
:1032800090E00E94FB120E94341060ED77E080E035
:1032900090E00E941B1180919A0790919B07909358
:1032A000AA078093A9071092B00744971CF00E94C8
:1032B0001A10FDCF82E00E9490159093AE07809384
:1032C000AD072091AB073091AC078217930729F126
:1032D000892B19F580919C0790919D0701969093F9
:1032E0009D0780939C0783E390E00E94FB126AE0B5
:1032F00070E080E090E00E941B110E94341061E0B9
:103300008DE00E94B91560ED77E080E090E00E94CA
:103310001B1160E08DE00E94B9158091AD0790917E
:10332000AE079093AC078093AB078091B007809372
:10333000AF078233B1F461E086E00E94B91584E3FF
:1033400090E00E94FB126AE070E080E090E00E9452
:103350001B111092AF0742E050E05093B207409328
:10336000B10787E00E9490159093B6078093B50748
:103370002091B3073091B4078217930709F47DC0F9
:10338000892B09F07AC08091B1079091B20702971A
:1033900009F073C060E086E00E94B91580919C0737
:1033A00090919D07059690939D0780939C0710929E
:1033B000700061E089E00E94621060E089E00E9494
:1033C000B91581E08093B00089E08093B10000934B
:1033D000B3001093B4008091B00080628093B0007D
:1033E00060E679E080E090E00E94290F0E9453148B
:1033F00094E1A92EB12CC12CD12C28E0E22EF12C85
:10340000D701C60180799B78A670BB27892B8A2BB0
:103410008B2B51F08091B00080628093B00060EB04
:1034200074E080E090E009C08091B00080628093F9
:10343000B00068E572E080E090E00E94290F0E94F1
:103440005314F694E794D794C79451E0A51AB108A1
:10345000B9F60E94341060ED77E080E090E00E94C1
:103460001B1185E390E00E94FB121092B2071092AC
:10347000B10760E086E00E94B9158091B507909190
:10348000B6079093B4078093B3070E944B0537CEDD
:10349000E8ECF7E01382128288EE93E0A0E0B0E05F
:1034A00084839583A683B78324E136E03183208328
:1034B000E4EDF7E01382128284839583A683B783B9
:1034C00026E236E03183208345ED50E0558744877E
:1034D00044ED50E05787468740ED50E0518B408BDC
:1034E00041ED50E0538B428B42ED50E0558B448BC5
:1034F00046ED50E0578B468B118E128E138E148E34
:10350000E1E7F8E01382128284839583A683B78370
:10351000318320838DEC90E0958784878CEC90E05C
:103520009787868788EC90E0918B808B89EC90E080
:10353000938B828B8AEC90E0958B848B8EEC90E061
:10354000978B868B118E128E138E148EEEE0F9E01F
:103550001382128220E830E03583248380E490E0F7
:10356000978386833187208793878287158A15867C
:1035700014861786168681E0848B2FEF3FEF338BFE
:10358000228B318B208B868B178A118E108E88E3CD
:1035900096E09183808388E080A38AE0878F89E02A
:1035A000868F8CE0858F8BE0848F11A20895A1E235
:1035B0001A2EAA1BBB1BFD010DC0AA1FBB1FEE1FAD
:1035C000FF1FA217B307E407F50720F0A21BB30BF8
:1035D000E40BF50B661F771F881F991F1A9469F774
:1035E00060957095809590959B01AC01BD01CF01D0
:1035F0000895052E97FB1EF400940E94101B57FDA2
:1036000007D00E94D71A07FC03D04EF40C94101B6D
:1036100050954095309521953F4F4F4F5F4F0895FE
:1036200090958095709561957F4F8F4F9F4F08952E
:10363000EE0FFF1F881F8BBF0790F691E02D1994A6
:1036400081E090E0F8940C94FC1D0F931F93CF93AE
:10365000DF93CDB7DEB72E970FB6F894DEBF0FBE5F
:10366000CDBF0E891F8986E08C831A8309838FEF73
:103670009FE79E838D83AE01465E5F4F688D798D97
:10368000CE0101960E94551B2F813885F801E20F6B
:10369000F31F10822E960FB6F894DEBF0FBECDBF7B
:1036A000DF91CF911F910F9108952F923F924F92EA
:1036B0005F926F927F928F929F92AF92BF92CF92C2
:1036C000DF92EF92FF920F931F93CF93DF93CDB7CB
:1036D000DEB72C970FB6F894DEBF0FBECDBF7C01CE
:1036E0006B018A01FC0117821682838181FFBDC1B3
:1036F000CE0101964C01F7019381F60193FD85916E
:1037000093FF81916F01882309F4ABC1853239F4AD
:1037100093FD859193FF81916F01853229F4B70163
:1037200090E00E94661DE7CF512C312C20E0203222
:10373000A0F48B3269F030F4803259F0833269F4AE
:1037400020612CC08D3239F0803339F4216026C0DD
:103750002260246023C0286021C027FD27C030EDEF
:10376000380F3A3078F426FF06C0FAE05F9E300D3D
:103770001124532E13C08AE0389E300D1124332EAD
:1037800020620CC08E3221F426FD6BC1206406C07D
:103790008C3611F4206802C0883641F4F60193FD9E
:1037A000859193FF81916F018111C1CF982F9F7DEA
:1037B0009554933028F40C5F1F4FFFE3F9830DC03D
:1037C000833631F0833771F0833509F05BC022C056
:1037D000F801808189830E5F1F4F44244394512C4C
:1037E000540115C03801F2E06F0E711CF801A08081
:1037F000B18026FF03C0652D70E002C06FEF7FEF40
:10380000C5012C870E945B1D2C0183012C852F771D
:10381000222E17C03801F2E06F0E711CF801A08053
:10382000B18026FF03C0652D70E002C06FEF7FEF0F
:10383000C5012C870E94501D2C012C852068222E4A
:10384000830123FC1BC0832D90E048165906B0F479
:10385000B70180E290E00E94661D3A94F4CFF50132
:1038600027FC859127FE81915F01B70190E00E94BE
:10387000661D31103A94F1E04F1A51084114510479
:1038800071F7E5C0843611F0893639F5F80127FF64
:1038900007C060817181828193810C5F1F4F08C0D6
:1038A00060817181072E000C880B990B0E5F1F4FF2
:1038B0002F76722E97FF09C090958095709561952F
:1038C0007F4F8F4F9F4F2068722E2AE030E0A40177
:1038D0000E949E1DA82EA81844C0853729F42F7E6B
:1038E000B22E2AE030E025C0F22FF97FBF2E8F36AE
:1038F000C1F018F4883579F0B4C0803719F08837F2
:1039000021F0AFC02F2F2061B22EB4FE0DC08B2D41
:103910008460B82E09C024FF0AC09F2F9660B92E7C
:1039200006C028E030E005C020E130E002C020E120
:1039300032E0F801B7FE07C0608171818281938116
:103940000C5F1F4F06C06081718180E090E00E5FC8
:103950001F4FA4010E949E1DA82EA818FB2DFF77C3
:103960007F2E76FE0BC0372D3E7FA51450F474FEDB
:103970000AC072FC08C0372D3E7E05C0BA2C372D18
:1039800003C0BA2C01C0B52C34FF0DC0FE01EA0DF6
:10399000F11D8081803311F4397E09C032FF06C0E9
:1039A000B394B39404C0832F867809F0B39433FDA5
:1039B00013C030FF06C05A2CB31418F4530C5B1814
:1039C000B32CB31468F4B70180E290E03C870E9406
:1039D000661DB3943C85F5CFB31410F43B1801C0B9
:1039E000312C34FF12C0B70180E390E03C870E9485
:1039F000661D3C8532FF17C031FD03C088E790E0AB
:103A000002C088E590E0B7010CC0832F867859F09A
:103A100031FF02C08BE201C080E237FD8DE2B701C9
:103A200090E00E94661DA51438F4B70180E390E091
:103A30000E94661D5A94F7CFAA94F401EA0DF11D75
:103A40008081B70190E00E94661DA110F5CF332060
:103A500009F451CEB70180E290E00E94661D3A94CD
:103A6000F6CFF7018681978102C08FEF9FEF2C96EA
:103A70000FB6F894DEBF0FBECDBFDF91CF911F917F
:103A80000F91FF90EF90DF90CF90BF90AF909F90FD
:103A90008F907F906F905F904F903F902F90089500
:103AA000FC010590615070400110D8F78095909509
:103AB0008E0F9F1F0895FC0161507040019001100E
:103AC000D8F7809590958E0F9F1F08950F931F93A1
:103AD000CF93DF93FB01238121FD03C08FEF9FEF85
:103AE00028C022FF16C046815781248135814217A4
:103AF000530744F4A081B1819D012F5F3F4F318373
:103B000020838C93268137812F5F3F4F3783268315
:103B100010C0EB01092F182F0084F185E02D1995B5
:103B2000892BE1F68E819F8101969F838E83812F61
:103B3000902FDF91CF911F910F910895FA01AA273D
:103B4000283051F1203181F1E8946F936E7F6E5FE0
:103B50007F4F8F4F9F4FAF4FB1E03ED0B4E03CD08E
:103B6000670F781F891F9A1FA11D680F791F8A1F71
:103B7000911DA11D6A0F711D811D911DA11D20D0D8
:103B800009F468943F912AE0269F11243019305D92
:103B90003193DEF6CF010895462F4770405D419383
:103BA000B3E00FD0C9F7F6CF462F4F70405D4A33D0
:103BB00018F0495D31FD4052419302D0A9F7EACF98
:103BC000B4E0A6959795879577956795BA95C9F7C7
:103BD00000976105710508959B01AC010A2E0694BA
:103BE0005795479537952795BA95C9F7620F731F73
:0C3BF000841F951FA01D0895F894FFCFBE
:103BFC0000000000000000000000000000000000B9
:103C0C0000000000000000000000000000000000A8
:103C1C000000000000000000000000000000000098
:103C2C000000000000000000000000000000008008
:103C3C008080000000000000000000000000000078
:103C4C00008080C0C00000000000000000000000E8
:103C5C000000000000000000000000000000000058
:103C6C000000000000000000000000000000000048
:103C7C000000000000000000000000000000000038
:103C8C000000000080C0E0F0F8FCF8E0000000004C
:103C9C000000000000000000000000000080808098
:103CAC00808000808000000000808080808000FF89
:103CBC00FFFF0000000080808080000080800000FA
:103CCC0080FFFF808000808000808080800080806A
:103CDC000000000000808000008C8E84000080F8C2
:103CEC00F8F8800000000000000000000000000058
:103CFC00F0F0F0F0F0F0F0F0F0F0F0F0E0E0C08078
:103D0C0000E0FCFEFFFFFF7FFFFFFFFFFF00000056
:103D1C000000000000000000000000FEFFC70101D1
:103D2C00010183FFFF00007CFEC70101010183FF3D
:103D3C00FFFF0038FEC78301010183C7FFFF0000AE
:103D4C0001FFFF010100FFFF0701010100007FFFE0
:103D5C0080000000FFFF7F0000FFFFFF000001FF5D
:103D6C00FFFF010000000000000000000000000048
:103D7C00030F3F7F7FFFFFFFFFFFFFFFE7C7C78FEB
:103D8C008F9FBFFFFFC3C0F0FFFFFFFFFFFCFCFCDA
:103D9C00FCFCFCFCFCF8F8F0F0E0C00001030303B1
:103DAC0003030103030000000001030303030101EB
:103DBC0003010000000103030303010103030000DE
:103DCC0000030300000003030000000000000001DA
:103DDC0003030303030100000001030100000003BF
:103DEC0003010000000000000000000000000000C3
:103DFC0000000080C0E0F0F9FFFFFFFFFF3F1F0F46
:103E0C0087C7F7FFFF1F1F3DFCF8F8F8F87C7DFF14
:103E1C00FFFFFFFFFFFFFF7F3F0F07003030000069
:103E2C000000000000000000000000000000000086
:103E3C0000000000FEFEFC0000000000000000007E
:103E4C0000000000000000000000000000E0C000C6
:103E5C0000000000000000000000303000000000F6
:103E6C000000000000000000000000000000000046
:103E7C0000C0FEFFFFFFFFFFFFFFFFFF7F7F3F1F25
:103E8C000F071F7FFFFFF8F8FFFFFFFFFFFEF8E0B3
:103E9C00000000010000000000000000FEFE000019
:103EAC0000FCFEFC0C06060EFCF80000F0F81C0EE4
:103EBC000606060CFFFFFF0000FEFE00000000FCE3
:103ECC00FEFC00183C7E66E6CE84000006FFFF0672
:103EDC0006FCFEFC0C0606060000FEFE0000C0F808
:103EEC00FC4E4646464E7C7840183C76E6CECC805E
:103EFC0000000000000000000000000000000000B6
:103F0C000000000001070F1F1F3F3F3F3F1F0F0323
:103F1C000000000000000000000000000F0F000077
:103F2C00000F0F0F000000000F0F000003070E0C16
:103F3C0018180C060F0F0F0000010F0E0C180C0FA9
:103F4C00070100040E0C180C0F070000000F0F00E7
:103F5C00000F0F0F0000000000000F0F0000000703
:103F6C00070C0C181C0C060600040E0C180C0F0782
:103F7C000000000000000000000000000000000035
:103F8C000000000000000000000000000000000025
:103F9C000000000000000000000000000000000015
:103FAC000000000000000000000000000000000005
:103FBC0000000000000000000000000000000000F5
:103FCC0000000000000000000000000000000000E5
:103FDC0000000000000000000000000000000000D5
:103FEC0000000000000000000000000000000000C5
:103FFC00000103070F1F3F7F0080C0E0F0F8FCFEBC
:10400C0000000000BA128A127E0E64128212731221
:10401C00651200000000E2042C0470042905A104C0
:10402C007F04930400000000000B2C047E0E7D0E18
:10403C003608D30DCC0DA40DC00DB40DD40DA30DAD
:10404C00D508D4088005DA06C90CAB0C350CD60B98
:10405C0020202047414D45202020002020204F5675
:10406C00455220202000202053686F6F747320204D
:10407C000020496D7061637473202000202052650C
:10408C006164793F20202020202000202020202047
:10409C002020202020202020202000202054494DAA
:1040AC0045522020202000253032643A25303264DD
:0840BC003A25303264200000B7
:00000001FF
