:100000000C94E2020C940A030C940A030C940A0365
:100010000C940A030C940A030C940A030C943813EE
:100020000C940A030C940A030C940A030C940A031C
:100030000C940A030C940A030C940A030C940A030C
:100040000C943B0A0C940A030C94AB0A0C94850A9A
:100050000C940A030C940A030C940A030C940A03EC
:100060000C94970D0C940A03000000002400270054
:100070002A0000000000250028002B0000000000DE
:1000800023002600290004040404040404040202DA
:100090000202020203030303030301020408102007
:1000A0004080010204081020010204081020000012
:1000B0000008000201000003040700000000000027
:1000C000000000000000003E5B4F5B3E3E6B4F6B4C
:1000D0003E1C3E7C3E1C183C7E3C181C577D571C29
:1000E0001C5E7F5E1C00183C1800FFE7C3E7FF00A2
:1000F00018241800FFE7DBE7FF30483A060E2629F0
:10010000792926407F050507407F05253F5A3CE7B2
:100110003C5A7F3E1C1C08081C1C3E7F14227F2278
:10012000145F5F005F5F06097F017F006689956A43
:10013000606060606094A2FFA29408047E040810CE
:10014000207E201008082A1C08081C2A08081E10F7
:100150001010100C1E0C1E0C30383E3830060E3EAF
:100160000E06000000000000005F0000000700070E
:1001700000147F147F14242A7F2A12231308646238
:1001800036495620500008070300001C2241000099
:1001900041221C002A1C7F1C2A08083E08080080F7
:1001A000703000080808080800006060002010088F
:1001B00004023E5149453E00427F40007249494990
:1001C000462141494D331814127F102745454539C2
:1001D0003C4A4949314121110907364949493646C6
:1001E0004949291E000014000000403400000008A6
:1001F0001422411414141414004122140802015949
:1002000009063E415D594E7C1211127C7F494949D5
:10021000363E414141227F4141413E7F494949416A
:100220007F090909013E414151737F0808087F0099
:10023000417F41002040413F017F081422417F401F
:100240004040407F021C027F7F0408107F3E4141F6
:10025000413E7F090909063E4151215E7F09192966
:1002600046264949493203017F01033F4040403F50
:100270001F2040201F3F4038403F63140814630391
:10028000047804036159494D43007F414141020410
:10029000081020004141417F040201020440404017
:1002A0004040000307080020545478407F2844440D
:1002B000383844444428384444287F385454541827
:1002C00000087E090218A4A49C787F080404780022
:1002D000447D40002040403D007F10284400004104
:1002E0007F40007C047804787C0804047838444417
:1002F0004438FC1824241818242418FC7C0804040E
:1003000008485454542404043F44243C4040207C76
:100310001C2040201C3C4030403C44281028444CC9
:100320009090907C4464544C440008364100000096
:10033000770000004136080002010204023C262337
:10034000263C1EA1A161123A4040207A38545455EF
:1003500059215555794122545478422155547840B9
:1003600020545579400C1E52721239555555593941
:100370005454545939555454580000457C41000296
:10038000457D420001457C407D1211127DF02825FB
:1003900028F07C545545002054547C547C0A097F35
:1003A0004932494949323A4444443A324A48483049
:1003B0003A4141217A3A42402078009DA0A07D3DFB
:1003C0004242423D3D4040403D3C24FF2424487E83
:1003D0004943662B2FFC2F2BFF0929F620C0887E6E
:1003E000090320545479410000447D413048484A73
:1003F00032384040227A007A0A0A727D0D19317D26
:100400002629292F28262929292630484D402038F9
:100410000808080808080808382F10C8ACBA2F10B8
:100420002834FA00007B000008142A142222142A1F
:1004300014085500550055AA55AA55AAFF55FF5551
:10044000FF000000FF00101010FF00141414FF0044
:100450001010FF00FF1010F010F0141414FC001422
:1004600014F700FF0000FF00FF1414F404FC141440
:1004700017101F10101F101F1414141F001010103D
:10048000F0000000001F101010101F10101010F0CE
:1004900010000000FF101010101010101010FF10AE
:1004A000000000FF140000FF00FF00001F101700F5
:1004B00000FC04F414141710171414F404F40000CE
:1004C000FF00F714141414141414F700F714141480
:1004D000171410101F101F141414F4141010F0101F
:1004E000F000001F101F0000001F14000000FC148B
:1004F0000000F010F01010FF10FF141414FF14107F
:1005000010101F00000000F010FFFFFFFFFFF0F0D1
:10051000F0F0F0FFFFFF0000000000FFFF0F0F0FE3
:100520000F0F3844443844FC4A4A4A347E020206DB
:1005300006027E027E0263554941633844443C040E
:10054000407E201E2006027E020299A5E7A5991C86
:100550002A492A1C4C7201724C304A4D4D303048A9
:10056000784830BC625A463D3E494949007E010107
:10057000017E2A2A2A2A2A44445F444440514A449C
:100580004040444A51400000FF0103E080FF00006A
:1005900008086B6B083612362436060F090F060062
:1005A0000018180000001010003040FF0101001F6B
:1005B00001011E00191D1712003C3C3C3C000000CC
:1005C0000000B01711241FBECFEFD8E0DEBFCDBFB3
:1005D00015E0A0E0B1E0EAE8F6E302C005900D9274
:1005E000A43BB107D9F728E0A4EBB5E001C01D9208
:1005F000AA31B207E1F712E0C2EED2E004C02197BF
:10060000FE010E946018C13ED107C9F70E94F21393
:100610000C94431B0C9400006F927F928F929F92D8
:10062000AF92BF92CF92DF92EF92FF920F931F9300
:10063000CF93DF93EC014B015A0169013801E88146
:10064000F9810284F385E02D0995E881F98102881A
:10065000F389E02D87019601A501B401CE0109952A
:10066000E881F981A501460D571D415051090288C5
:10067000F389E02D9601B401CE010995E881F98155
:100680000088F189E02D9301A501B401CE010995FF
:10069000E881F981C80CD91CB60161507109008844
:1006A000F189E02D9301A501CE010995E881F98139
:1006B0000688F789E02DCE01DF91CF911F910F9130
:1006C000FF90EF90DF90CF90BF90AF909F908F9072
:1006D0007F906F900994CF92DF92EF92FF920F93E9
:1006E0001F93CF93DF9300D000D000D0CDB7DEB7FB
:1006F0006C01DC01ED91FC916217730789F404171A
:1007000015072CF4942F852FA801092F182F041BEF
:10071000150B98012F5F3F4F048CF58DE02D12C013
:100720004017510709F5261737072CF4962F872F06
:10073000B901292F382F261B370B2F5F3F4F068C0F
:10074000F78DE02D8701C601099526960FB6F8941E
:10075000DEBF0FBECDBFDF91CF911F910F91FF90F4
:10076000EF90DF90CF9008950284F385E02D2D83E4
:100770003E834B835C8369837A830995D601ED912F
:10078000FC910488F589E02D2D813E814B815C81AF
:1007900069817A81C6010995D601ED91FC9106889F
:1007A000F789E02DC60126960FB6F894DEBF0FBE7E
:1007B000CDBFDF91CF911F910F91FF90EF90DF9010
:1007C000CF900994EF92FF920F931F93DC01ED916C
:1007D000FC9111971A960D911C911B9718962D91CB
:1007E0003C91199700A0F1A1E02D7B0140E050E081
:1007F00060E070E009951F910F91FF90EF900895D0
:100800004F925F926F927F928F929F92AF92BF9220
:10081000CF92DF92EF92FF920F931F93CF93DF93CC
:1008200000D0CDB7DEB76C015A0139014801DC01B7
:10083000ED91FC910284F385E02D69837A8309951B
:100840006981462E7A81572E640C751CD601ED9174
:10085000FC91461457046CF40088F189E02D87015F
:100860009401A501B201C6010995BFEF4B1A5B0ABD
:10087000EDCF0688F789E02DC6010F900F90DF912C
:10088000CF911F910F91FF90EF90DF90CF90BF908D
:10089000AF909F908F907F906F905F904F90099452
:1008A000AF92BF92CF92DF92EF92FF920F931F937E
:1008B000CF93DF9300D000D0CDB7DEB75C016901E4
:1008C000DC01ED91FC910284F385E02D4B835C8388
:1008D00069837A830995D501ED91FC9169817A81CB
:1008E0009B012C0D3D1D215031090488F589E02D17
:1008F00078014B815C818A01C5010995D501ED9193
:10090000FC910688F789E02DC5010F900F900F909C
:100910000F90DF91CF911F910F91FF90EF90DF909B
:10092000CF90BF90AF900994AF92BF92CF92DF92D9
:10093000EF92FF920F931F93CF93DF9300D000D0DD
:10094000CDB7DEB75C016901DC01ED91FC91028459
:10095000F385E02D4B835C8369837A830995D50108
:10096000ED91FC914B815C81C40ED51EB1E0CB1A98
:10097000D1080488F589E02D7801860169817A81A2
:100980009B01C5010995D501ED91FC910688F78978
:10099000E02DC5010F900F900F900F90DF91CF9138
:1009A0001F910F91FF90EF90DF90CF90BF90AF908D
:1009B00009940895EF92FF920F931F93DC01ED913C
:1009C000FC9100A0F1A1E02D09951F910F91FF90DE
:1009D000EF9008950F931F93DC01ED91FC91068C2D
:1009E000F78DE02D09951F910F9108950F931F9397
:1009F000DC01ED91FC91048CF58DE02D09951F91A2
:100A00000F910895DC01ED91FC910084F185E02DBA
:100A1000099408952F923F924F925F926F927F9226
:100A20008F929F92AF92BF92CF92DF92EF92FF92FE
:100A30000F931F93CF93DF9300D01F92CDB7DEB7F4
:100A40004C017B836A836A01590117019801241BB9
:100A5000350B37FF03C0319521953109C5014A8116
:100A60005B81841B950B97FF03C09195819591093C
:100A700051E059838217930714F019820BC09A2D05
:100A80008B2D5801092F182F9A818B81DB82CA8206
:100A9000C92ED82E8A819B81A816B9065CF49C2D9C
:100AA0008D2D6801092F182F9A818B81BB82AA8214
:100AB000A92EB82E2501AA81BB814A1A5B0A3801EA
:100AC0006C187D0877FE03C07194619471087201FF
:100AD00057FE03C0BFEFEB1AFB0AF594E794C0166C
:100AE000D1061CF00FEF1FEF1FC001E010E01CC08B
:100AF000D401ED91FC91B9810484F585E02D91013B
:100B0000BB23C1F04A815B81B601C4010995E61897
:100B1000F708F7FE04C0C00ED11EE40CF51CEA81F4
:100B2000FB813196FB83EA834A815B81A416B5067B
:100B3000FCF604C0A6016A817B81E7CF0F900F907D
:100B40000F90DF91CF911F910F91FF90EF90DF9069
:100B5000CF90BF90AF909F908F907F906F905F905D
:100B60004F903F902F900895833081F028F481308A
:100B700099F08230A1F008958730A9F08830B9F05B
:100B80008430D1F4809180008F7D03C080918000FB
:100B90008F7780938000089584B58F7702C084B5E5
:100BA0008F7D84BD08958091B0008F7703C08091C0
:100BB000B0008F7D8093B0000895CF93DF9390E0D5
:100BC000FC01E656FF4F2491FC01EA57FF4F849148
:100BD000882361F190E0880F991FFC01E859FF4FCD
:100BE000C591D491FC01EE58FF4FA591B4916111CC
:100BF00009C09FB7F8948881209582238883EC915F
:100C00002E230BC0623061F49FB7F8943881822F95
:100C1000809583238883EC912E2B2C939FBF06C055
:100C20008FB7F894E8812E2B28838FBFDF91CF9167
:100C30000895CF92DF92EF92FF920F931F93CF937D
:100C4000DF936C017A018B01C0E0D0E0CE15DF05A7
:100C500089F0D8016D918D01D601ED91FC91019043
:100C6000F081E02DC6010995892B11F47E0102C0A7
:100C70002196ECCFC701DF91CF911F910F91FF908B
:100C8000EF90DF90CF900895089580E090E0089570
:100C9000FC01538D448D252F30E0842F90E0821B82
:100CA000930B541710F0CF96089501970895FC0107
:100CB000918D828D981761F0828DDF01A80FB11D93
:100CC0005D968C91928D9F5F9F73928F90E00895B7
:100CD0008FEF9FEF0895FC01918D828D981731F071
:100CE000828DE80FF11D858D90E008958FEF9FEFC5
:100CF0000895FC01918D228D892F90E0805C9F4F9B
:100D0000821B91098F73992708958EEE95E00E94BA
:100D1000790621E0892B09F420E0822F0895FC0157
:100D2000848DDF01A80FB11DA35ABF4F2C91848D74
:100D300090E001968F739927848FA689B7892C93A9
:100D4000A089B1898C9180648C93938D848D981344
:100D500006C00288F389E02D80818F7D808308950D
:100D6000EF92FF920F931F93CF93DF93EC0181E0FB
:100D7000888F9B8D8C8D981305C0E889F9898081B7
:100D800085FD24C0F62E0B8D10E00F5F1F4F0F73F3
:100D90001127E02E8C8DE8120CC00FB607FCFACF9D
:100DA000E889F989808185FFF5CFCE010E948F0601
:100DB000F1CF8B8DFE01E80FF11DE35AFF4FF0825A
:100DC0000B8FEA89FB898081806207C0EE89FF89E9
:100DD0006083E889F98980818064808381E090E084
:100DE000DF91CF911F910F91FF90EF900895CF93D6
:100DF000DF93EC01888D8823C9F0EA89FB89808123
:100E000085FD05C0A889B9898C9186FD0FC00FB6F4
:100E100007FCF5CF808185FFF2CFA889B9898C9135
:100E200085FFEDCFCE010E948F06E7CFDF91CF91F6
:100E3000089580E090E0892B29F00E9485068111B9
:100E40000C94000008950E94390CEDE8F6E0158638
:100E500014861786168680E695E00E941A0D8BE6AA
:100E600095E00E941A0D86E795E00E941A0D80E633
:100E700095E00E941A0D0C948D0C0E9466180E9439
:100E8000390CEDE8F6E0158614861786168681E89B
:100E900095E00E941A0D86E695E00E941A0D809159
:100EA000C9059091CA050E941C0D85E695E00E9437
:100EB0001A0D8CE895E00E941A0D86E695E00E94D6
:100EC0001A0D8091C2059091C3050E941C0D85E604
:100ED00095E00E941A0D0C948D0C2F923F924F9228
:100EE0005F926F927F928F929F92AF92BF92CF92BA
:100EF000DF92EF92FF920F931F93CF93DF93CDB7C3
:100F0000DEB76C970FB6F894DEBF0FBECDBF9C8FD7
:100F10008B8F5B011A011F830E833701C982DC01AD
:100F200058964D915C9159974115510509F0E5C0CE
:100F300018968D919C911997681779070CF0CAC182
:100F40001A968D919C911B97281639060CF0C2C1F8
:100F50008C2C912CFB0136E0C39EE00DF11D112479
:100F6000FB87EA871E161F060CF0B4C1C40133E0EC
:100F7000880F991F3A95E1F79D878C87820D931D05
:100F8000181619060CF0A6C157968C91811103C052
:100F9000203B08F02F5FAB8DBC8DED91FC9111973C
:100FA0000284F385E02DCD012A8F09952A8DB5E0C5
:100FB0002B9F90011124F5013596FF87EE87BB82A8
:100FC000AA822501A9014A195B09598B488BC101E5
:100FD00008969B8B8A8BE889F989E40DF51DEE5301
:100FE000FF4F9491988761013D822C82A885A0FFD4
:100FF00013C0AB8DBC8DED91FC91B981B13031F452
:101000000484F585E02D2E813F8116C00684F78586
:10101000E02DEE80FF801AC0EE81FF816E167F0604
:10102000F1F0AB8DBC8DED91FC91B981B13051F4F3
:101030000484F585E02D9301A601B2018B8D9C8D72
:1010400009950DC00684F785E02D73018401940194
:101050004C815D816A817B818B8D9C8D0995E885B2
:10106000E695E887FFEFCF1ADF0A2C813D81280D36
:10107000391D3D832C834A895B89C416D50609F046
:10108000B5CF5FEF451A550A8A819B81880D991D5E
:101090009B838A83AE85BF854A165B0609F09BCF8A
:1010A000EE81FF816E167F0609F4F2C0EB8DFC8D98
:1010B000A081B181F981F13079F4B5016B5F7F4F87
:1010C0005096ED91FC915197830128E030E0A10109
:1010D0008B8D9C8D0995DCC06A857B8568197909A3
:1010E0001E96ED91FC911F9773010C851D8594014F
:1010F000A1018B8D9C8D0995CBC0FA0134969491FA
:10110000329765917491291BCB01B7E02B9F800D1D
:10111000911D1124FA01259134913B8B2A8BFC01FE
:10112000459154915B834A83FC013296C490319679
:1011300054915E87329614913196D4908981823091
:1011400058F0612E012E000C7708AD2D0D2C000CEF
:10115000BB0BB987A88704C019861886612C712C2F
:10116000AB8DBC8DED91FC9111970284F385E02D40
:10117000CD010995B9818B2E912C689CC001699C89
:10118000900D789C900D1124FC01EA0DFB1DFD874C
:10119000EC871C82712C612CE12F110FFF0B950144
:1011A0002E0F3F1F3B872A87AC0CB11CA5014E0FA9
:1011B0005F1F5F8B4E8BC1018D0D911DD7FC9A95E2
:1011C000998F888F4E85641608F062C0862D90E056
:1011D00048855985480F591F489D9001499D300DFC
:1011E000589D300D1124D901A20DB31DB98BA88BC8
:1011F000AA84BB844C845D84DC80BA85DB1AE88DCC
:10120000F98DE80FF91FFD8BEC8B8D2D8A0D2E8942
:101210003F89A216B306B9F1877061F48A819B8178
:101220000196EA89FB89AA81BB81EA0FFB1F7490B2
:101230009B838A8377FE20C0AB8DBC8DED91FC91A2
:10124000B981B13061F40484F585E02D2E813F81B0
:101250004C895D89B5018B8D9C8D09950DC00684E7
:10126000F785E02DEE80FF8084019401488959893B
:10127000B2018B8D9C8D0995770CEFEFAE1ABE0AEB
:10128000480C591CC2CF3C813C0D3C8363949ACFDF
:10129000AB8DBC8DED91FC9111970688F789E02DFF
:1012A000CD016C960FB6F894DEBF0FBECDBFDF91B7
:1012B000CF911F910F91FF90EF90DF90CF90BF9053
:1012C000AF909F908F907F906F905F904F903F90E6
:1012D0002F9009946C960FB6F894DEBF0FBECDBF69
:1012E000DF91CF911F910F91FF90EF90DF90CF9002
:1012F000BF90AF909F908F907F906F905F904F9036
:101300003F902F900895CF93DF93282F30E0F9017D
:10131000E255FF4F8491F901E656FF4FD491F90150
:10132000EA57FF4FC491CC2391F081110E94B4057C
:10133000EC2FF0E0EE0FFF1FE458FF4FA591B491A2
:10134000EC91ED2381E090E021F480E002C080E0A8
:1013500090E0DF91CF9108951F93CF93DF93282FD3
:1013600030E0F901E255FF4F8491F901E656FF4F55
:10137000D491F901EA57FF4FC491CC23C9F0162F3D
:1013800081110E94B405EC2FF0E0EE0FFF1FEE5824
:10139000FF4FA591B4918FB7F894111105C09C919E
:1013A000ED2FE095E92302C0EC91ED2BEC938FBF7C
:1013B000DF91CF911F9108953FB7F8948091D705A1
:1013C0009091D805A091D905B091DA0526B5A89BD2
:1013D00005C02F3F19F00196A11DB11D3FBFBA2FC7
:1013E000A92F982F8827820F911DA11DB11DBC0127
:1013F000CD0142E0660F771F881F991F4A95D1F7EC
:1014000008958F929F92AF92BF92CF92DF92EF9208
:10141000FF926B017C010E94DC094B015C01C1144D
:10142000D104E104F104F1F00E94DC09DC01CB01FC
:1014300088199909AA09BB09883E9340A105B105FD
:1014400070F321E0C21AD108E108F10888EE880E95
:1014500083E0981EA11CB11CC114D104E104F10465
:1014600019F7DDCFFF90EF90DF90CF90BF90AF9056
:101470009F908F9008951F920F920FB60F92112494
:101480002F933F938F939F93AF93BF938091D305F7
:101490009091D405A091D505B091D6053091D20593
:1014A00023E0230F2D3720F40196A11DB11D05C0A7
:1014B00026E8230F0296A11DB11D2093D20580932B
:1014C000D3059093D405A093D505B093D60580910C
:1014D000D7059091D805A091D905B091DA0501966C
:1014E000A11DB11D8093D7059093D805A093D90570
:1014F000B093DA05BF91AF919F918F913F912F915A
:101500000F900FBE0F901F9018951F920F920FB65D
:101510000F9211242F933F934F935F936F937F9379
:101520008F939F93AF93BF93EF93FF938EEE95E0CE
:101530000E948F06FF91EF91BF91AF919F918F9184
:101540007F916F915F914F913F912F910F900FBEBF
:101550000F901F9018951F920F920FB60F921124A3
:101560002F938F939F93EF93FF93E091FE05F0915C
:10157000FF058081E0910406F091050682FD12C00E
:101580009081809107068F5F8F73209108068217E4
:1015900051F0E0910706F0E0E251FA4F958F809309
:1015A000070601C08081FF91EF919F918F912F914C
:1015B0000F900FBE0F901F9018952091E10590910C
:1015C0004707213208F04AC08091DF058111FCCF26
:1015D00032E03093DF0531E03093DE053FEF3093AA
:1015E00025071092240720932307A7E2B7E043E0E2
:1015F00057E0FA013E2F341B321718F43D91319316
:10160000F9CF1092020720910207990F922B909325
:1016100002079091DD05913061F41092DD05909103
:1016200002079093BB009091BC0093FDF8CF95EC1E
:1016300001C095EE9093BC009091DF059230E1F3EC
:10164000909125079F3F79F080912507803241F0E6
:1016500080912507803331F084E005C081E003C02C
:1016600082E001C083E01092E0051092E105109243
:10167000260708959091AE06992339F08EBD00009B
:101680000DB407FEFDCF8EB5089528E030E040E8A8
:10169000E091B106F091B20650819091B806909514
:1016A00095239083E091AF06F091B0069091B70634
:1016B000542F582319F05081952B03C050819095D9
:1016C00095239083E091B106F091B20650819091FC
:1016D000B806952B9083469521503109C9F6089597
:1016E00085ED8093BC008091BC0084FDFCCF1092FE
:1016F000DF0508954091DD06262F30E0240F311DCF
:1017000021323105DCF42091DF052430C9F4FC01DD
:1017100080E090E0861758F43091DD062191DC01DD
:10172000A554B94FA30FB11D2C930196F3CF80910F
:10173000DD06680F6093DD0680E0089581E008957E
:1017400082E00895089581E090E03091DC052091D9
:10175000DB05321710F480E090E0919581959109B6
:1017600008958091DC059091DB05891730F48F5F37
:101770008093DC0580E090E008958FEF9FEF08955F
:101780008091DB0590E02091DC05821B9109089592
:10179000CF92DF92EF92FF920F931F93CF93DF933D
:1017A0007C01262F972F8A0180912607882391F0AC
:1017B000C62FD72F6E01C40ED51ECC15DD0571F0D6
:1017C0006991D701ED91FC910190F081E02DC70165
:1017D0000995F3CF642F822F0E947A0BC801DF9105
:1017E000CF911F910F91FF90EF90DF90CF900895D0
:1017F000CF93DF931F92CDB7DEB769832091260781
:101800002223D1F02091E105203240F021E030E0A8
:10181000FC013383228380E090E015C08091E005D5
:10182000E82FF0E0E95DF84F998190838F5F809316
:10183000E0058093E10505C061E0CE0101960E94BC
:101840007A0B81E090E00F90DF91CF91089500979F
:1018500069F0FC0101900020E9F73197AF01481BC6
:10186000590BBC018DE896E00C94190680E090E0DD
:10187000089580E094E0E0E0F1E0DF019C011D923A
:1018800021503040E1F70895CF93C82F8091A906E9
:101890008F3F59F1E091B306F091B40680819091A9
:1018A000B906982B9083E091B506F091B606208199
:1018B0009091BA06909592239083E091B306F091AF
:1018C000B40620819091B9069095922390838C2F35
:1018D0000E943A0BE091B306F091B406908180919A
:1018E000B906892B8083CF9108958091A70691E056
:1018F00090932607809347071092E0051092E10528
:1019000060E082EE95E00E94F80B6C2F82EE95E08D
:101910000E94F80BCF910C94DD0AEF92FF920F9387
:101920001F93CF93DF9381E20E94440C80E00E94DA
:10193000440C8FE70E94440C82E20E94440C80E039
:101940000E94440C87E00E94440C8091A9068F3FBE
:1019500079F1E091B306F091B40690818091B906D7
:10196000892B8083E091B506F091B6069081809135
:10197000BA06892B8083E091B306F091B40690817A
:101980008091B906809589238083C0E0D1E0899158
:101990000E943A0B85E0C030D807C9F7E091B30642
:1019A000F091B40690818091B906892B808330C074
:1019B000F090B8008CE08093B800C0E0D1E0EE2455
:1019C000E3948091A706E092260780934707109240
:1019D000E0051092E10560E482EE95E00E94F80BCC
:1019E00000E010E0FE01E00FF11F608182EE95E063
:1019F0000E94F80B0F5F1F4F0031110599F70E94ED
:101A0000DD0A609685E0C030D807D9F6F092B800BC
:101A1000DF91CF911F910F91FF90EF900895E0EB30
:101A2000F0E080818F7D808368E572E080E090E067
:101A30000C9405130C94270C8F929F92AF92BF9237
:101A4000CF92DF92EF92FF920F931F93CF93DF938A
:101A5000CDB7DEB7A1970FB6F894DEBF0FBECDBFEE
:101A60006C01990FEE08FF08F7FE31C0E0918D067A
:101A7000F0918E060190F081E02D6DE28DE896E008
:101A800009958C0122273327A9012C193D094E09FC
:101A90005F0919A2CE0181967C019AE0892E912CD2
:101AA000A12CB12CCA01B901A50194010E941F18F3
:101AB000605DF70162937F012115310541055105F4
:101AC00089F7CF010E94270C800F911F1DC0A7012D
:101AD000960119A28E010F5D1F4F8AE0C82ED12CEE
:101AE000E12CF12CCA01B901A70196010E941F182F
:101AF000605DF80162938F012115310541055105A3
:101B000089F7CF010E94270CA1960FB6F894DEBF8B
:101B10000FBECDBFDF91CF911F910F91FF90EF903E
:101B2000DF90CF90BF90AF909F908F9008951F92BD
:101B30000F920FB60F9211242F933F934F935F9301
:101B40006F937F938F939F93AF93BF93EF93FF9385
:101B50008091B900887F803609F49CC068F588328E
:101B600009F45BC090F4803109F454C038F4882340
:101B700009F4F6C0883009F44DC0F6C0883109F484
:101B80004CC0803209F45DC0EFC0803409F468C0F5
:101B900048F4803309F455C0883309F0E5C08093D8
:101BA0002507D8C0803509F44FC0883509F45DC0D9
:101BB000883409F0D9C0D6C0883909F4C7C0A8F460
:101BC000883709F467C038F4883609F463C0803771
:101BD00009F460C0C9C0883809F4B8C0803909F474
:101BE0005FC0803809F0C0C05BC0803B09F486C08C
:101BF00038F4803A09F466C0883A09F47FC0B4C06A
:101C0000803C09F4A7C0883C09F4A4C0883B09F4CF
:101C10008AC0AAC08091020710C0909124078091C9
:101C20002307981770F5E091240781E08E0F8093C9
:101C30002407F0E0ED5FF84F80818093BB0085ECD6
:101C400086C0809325078EC0E091240781E08E0F27
:101C5000809324078091BB00F0E0ED5FF84F808314
:101C600090912407809123076EC0E091240781E0C2
:101C70008E0F809324078091BB00F0E0ED5FF84F5A
:101C800080838091DE0581116DC081E08093DD0548
:101C900084EA61C083E08093DF0510920107CFCF13
:101CA00080910107803208F051C0E091010781E086
:101CB0008E0F809301078091BB00F0E0EF51F94F48
:101CC0008083BDCF85EC8093BC001092DF058091AE
:101CD0000107803230F4E0910107F0E0EF51F94F55
:101CE00010826091010770E0E091DF06F091E0065C
:101CF00081EE96E009951092010736C084E080934A
:101D0000DF051092DE061092DD06E091DB06F09111
:101D1000DC0609958091DD06811105C081E0809384
:101D2000DD061092BB06E091DE0681E08E0F809307
:101D3000DE06F0E0E554F94F80818093BB0090917E
:101D4000DE068091DD06981708F479CF85E8809348
:101D5000BC000AC085EC8093BC001092DF0504C073
:101D6000109225070E94700BFF91EF91BF91AF91E8
:101D70009F918F917F916F915F914F913F912F91A3
:101D80000F900FBE0F901F9018950F931F93CF9336
:101D9000DF93DC0155968C915597823071F083303A
:101DA00009F1813009F08CC01496ED91FC911597E2
:101DB000E41BF50BE21BF30B20C01496ED91FC9194
:101DC0001597CF01861B970BBC01615071091696C0
:101DD000ED91FC911797CF01841B950BAC01421B31
:101DE000530B6EC01696ED91FC911797CF01861B91
:101DF000970BBC0161507109FA0177FD1BC1169662
:101E00008D919C911797681779070CF013C1F7FF14
:101E100004C02E0F3F1FE0E0F0E014968D919C91DE
:101E20001597AF01420F531F841795071CF49C01AF
:101E30002E1B3F0B121613060CF0FCC0CB0177FDD6
:101E4000079643E0959587954A95E1F79695982FE3
:101E5000882797958795E80FF91FE050FF4F677027
:101E6000772781E090E001C0880F6A95EAF7482F54
:101E70000130110541F088F00230110509F0DAC097
:101E80002E0F3F1F15C02E0F3F1FE217F30709F457
:101E9000D1C08081842B8193F8CF80952E0F3F1F76
:101EA000E217F30709F4C6C0908198239193F8CF05
:101EB000E217F30709F4BEC0808184278193F8CF2D
:101EC00077FDB8C014968D919C9115976817790786
:101ED0000CF0B0C057FF04C0240F351F40E050E0A5
:101EE00016968D919C911797FA01E20FF31F8E17AA
:101EF0009F071CF49C01241B350B121613060CF0D3
:101F000099C0A22F842F86958695869590E8899F03
:101F1000600D711D1124FB01E050FF4F4770A9F1C6
:101F200098E0941B492F50E0EA01C85ADA4F8881A3
:101F3000291790F4421B51092FEF30E002C035956C
:101F400027954A95E2F782230130110541F068F0A8
:101F50000230110589F06EC00130110519F420819D
:101F6000822B0CC00130110520F480952081822342
:101F700005C00230110531F4208182278083A91722
:101F800008F458C0A91BE058FF4FA83048F10230B0
:101F9000110559F4EF018A2F988190959883C058C4
:101FA000DF4F88508830C0F730C081E00130110524
:101FB00009F080E08195EF019A2F8883C058DF4FA8
:101FC00098509830D0F788EF8A0F86958695869539
:101FD00090E8899FE00DF11D1124E058FF4FA77094
:101FE000AA2341F1B0E0A05BBA4F8C9101301105FA
:101FF00029F038F002301105D1F01CC09081892BF6
:1020000018C080959081892314C088EF8A0F869527
:102010008695869590E8899FE00DF11D1124E05882
:10202000FF4FA77039F0B0E0A05BBA4F8C91908160
:1020300089278083DF91CF911F910F9108950F938E
:102040001F93CF93DF93DC01FB0155968C9155973D
:10205000823081F0833019F1813051F514968D91E1
:102060009C911597BC01641B750BAB014150510944
:10207000BF0181C014966D917C911597CB018E1B89
:102080009F0BFC0116968D919C911797BC01641BC8
:10209000750BAB0141505109E21BF30B09C01696B9
:1020A0006D917C9117976E1B7F0B621B730B63C046
:1020B00057FD1CC116968D919C911797481759078B
:1020C0000CF014C1F7FF04C02E0F3F1FE0E0F0E05A
:1020D00014968D919C911597BF01620F731F8617FF
:1020E00097071CF49C012E1B3F0B121613060CF0D5
:1020F000FDC0CA0157FD079663E0959587956A95DF
:10210000E1F79695982F882797958795E80FF91FFF
:10211000E050FF4F4770552781E090E001C0880FE5
:102120004A95EAF7482F0130110541F088F0023056
:10213000110509F0DBC02E0F3F1F15C02E0F3F1FEA
:10214000E217F30709F4D2C08081842B8193F8CF82
:1021500080952E0F3F1FE217F30709F4C7C0908147
:1021600098239193F8CFE217F30709F4BFC0808159
:1021700084278193F8CF57FDB9C014968D919C9117
:102180001597481759070CF0B1C077FF04C0260F08
:10219000371F60E070E016968D919C911797FB01B8
:1021A000E20FF31F8E179F071CF49C01261B370BB1
:1021B000121613060CF09AC0A22F862F86958695CC
:1021C000869590E8899F400D511D1124FA01E05039
:1021D000FF4F6770A9F198E0961B492F50E0EA0184
:1021E000C85ADA4F8881291790F4421B51092FEF02
:1021F00030E002C0359527954A95E2F782230130F9
:10220000110541F068F00230110589F06FC001300E
:10221000110519F42081822B0CC00130110520F426
:1022200080952081822305C00230110531F4208180
:1022300082278083A91708F459C0A91BE058FF4FD3
:10224000A83048F10230110559F4EF018A2F988126
:1022500090959883C058DF4F88508830C0F731C0C0
:1022600081E00130110509F080E08195EF019A2F9E
:102270008883C058DF4F98509830D0F788EF8A0F86
:1022800086958695869560E8869FE00DF11D112460
:10229000E058FF4FA770AA2349F1B0E0A05BBA4F06
:1022A0008C910130110529F038F002301105D9F078
:1022B0001DC09081892B03C08095908189238083E4
:1022C00015C088EF8A0F86958695869570E8879F5A
:1022D000E00DF11D1124E058FF4FA77039F0B0E078
:1022E000A05BBA4F8C9190818927E9CFDF91CF9184
:1022F0001F910F910895FC0177FD9AC0808591850B
:10230000681779070CF094C057FD92C082859385B9
:10231000481759070CF08CC08589823009F07CC0C1
:1023200084819581DC01A61BB70BBD016150710949
:1023300086819781FC01E41BF50BAF0141505109E7
:102340000AC0813041F484819581841B950BAB01D7
:10235000BC01615071092130310529F008F12230AA
:102360003105E1F10895FA0157FD3796A3E0F5959F
:10237000E795AA95E1F7F695FE2FEE27F795E795F5
:102380006E0F7F1FFB01E050FF4F4770552781E024
:1023900090E001C0880F4A95EAF79081892B3AC0F6
:1023A000FA0157FD379623E0F595E7952A95E1F771
:1023B000F695FE2FEE27F795E7956E0F7F1FFB0131
:1023C000E050FF4F4770552781E090E001C0880F33
:1023D0004A95EAF78095908189231CC0FA0157FD40
:1023E000379683E0F595E7958A95E1F7F695FE2F08
:1023F000EE27F795E7956E0F7F1FFB01E050FF4F2B
:102400004770552781E090E001C0880F4A95EAF7B0
:102410009081892780830895833009F092CF868147
:102420009781861B970BBA01AC014150510993CF9C
:1024300008950895FC016370658B848195812681E0
:102440003781613039F0633029F091878087338795
:102450002287089531872087938782870895AF92D6
:10246000BF92CF92EF92FF920F931F93CF93DF9380
:10247000EC01262F888D998D009709F040C06A30B5
:1024800059F41D861C862C898E859F8538E0239FF4
:10249000800D911D112441C06D3009F4AAC08E89B0
:1024A0008823C1F03C898C859D8546E0349F800D52
:1024B000911D112448855985481759075CF41D86DC
:1024C0001C868E859F8548E0349F800D911D1124C8
:1024D0009F878E87EA88FB88088919894E855F85E2
:1024E0006C857D85CC88CE010E946D072C898C85FA
:1024F0009D8536E0239F800D911D112442C06A30D6
:1025000079F41D861C862C89FC013696E4918E8513
:102510009F852E9F800D911D11249F878E8769C0F6
:102520006D3009F466C0FC0134963491631708F4E9
:1025300060C03196E491E61708F45BC0FC01329666
:10254000A590B490462F50E0431B510937E0349FCB
:10255000B001359F700D1124A60EB71EF5013296FD
:1025600034913196E491332311F0E1110DC0F5015E
:102570003496E4912C898C859D85E29F800D911D78
:1025800011249D878C8735C0F501359644915E896D
:10259000552311F16C89E32FF0E0E40FF11D47FDA5
:1025A000FA956E9FD0016F9FB00D11244C855D850B
:1025B0004A0F5B1FE885F985E417F5076CF41D8663
:1025C0001C86FC013696E4918E859F856E9F800D5A
:1025D000911D11249F878E87EA88FB8808891989B5
:1025E0004E855F856C857D85CC88CE010E946D0708
:1025F000BECF81E090E0DF91CF911F910F91FF90CE
:10260000EF90CF90BF90AF9008958F929F92AF922E
:10261000BF92CF92DF92EF92FF926B017C010E94FA
:10262000DC094B015C0184E0C81AD108E108F1081B
:10263000C80CD91CEA1CFB1CC814D904EA04FB040E
:1026400038F40E94DC0986169706A806B906C8F376
:102650000E94DC096C157D058E059F05C8F3FF906F
:10266000EF90DF90CF90BF90AF909F908F900895A4
:102670001F920F920FB60F9211242F933F934F93F7
:102680005F936F937F938F939F93AF93BF93EF93DA
:10269000FF93809149070E94830920914D07309153
:1026A0004E072F5F3F4F30934E0720934D07909179
:1026B0004C07953618F096E090934807909148079C
:1026C0009430C9F128F4923069F09330D1F05EC0B3
:1026D000953009F451C0963009F058C091E09093BC
:1026E000190851C0811152C020914D0730914E07F9
:1026F0002436310508F442C01092190810924C0794
:102700001CC0813009F042C0E0914C0791E09E0F5F
:1027100090934C07F0E020914D0730914E07EE0F5B
:10272000FF1FE85BF84F3087278310924E07109207
:102730004D0794E029C0811117C0E0914C0791E04A
:102740009E0F90934C07F0E020914D0730914E077B
:10275000EE0FFF1FE85BF84F3087278310924E077C
:1027600010924D0793E010C020914D0730914E0715
:102770002536310558F007C0811108C010924E0768
:1027800010924D0703C095E09093480790914B0736
:102790009923B9F081110AC080914A07882321F05A
:1027A00080914A0761E009C02D9A0BC080914A07C9
:1027B000882331F080914A0760E00E94AC0901C093
:1027C0002D98FF91EF91BF91AF919F918F917F9144
:1027D0006F915F914F913F912F910F900FBE0F908E
:1027E0001F901895CF93DF9300D000D0CDB7DEB700
:1027F000789484B5826084BD84B5816084BD85B5DC
:10280000826085BD85B5816085BD80916E008160E7
:1028100080936E001092810080918100826080938D
:10282000810080918100816080938100809180008F
:102830008160809380008091B10084608093B100BA
:102840008091B00081608093B00080917A008460B4
:1028500080937A0080917A00826080937A008091E0
:102860007A00816080937A0080917A0080688093FA
:102870007A001092C100E091FE05F091FF0592E010
:102880009083E091FA05F091FB051082E091FC0540
:10289000F091FD0583E3808310920606E091020625
:1028A000F091030686E08083E0910006F091010636
:1028B000808180618083E0910006F0910106808133
:1028C00088608083E0910006F09101068081806835
:1028D0008083E0910006F091010680818F7D8083E6
:1028E0009093A8068CE38093A7068091A9068F3F5A
:1028F00009F4BDC061E08091AB060E94DD0561E096
:102900008091AD060E94DD058091AD06082E000C79
:10291000990BFC01EA57FF4FE491F0E0EE0FFF1F27
:10292000EE58FF4F259134913093B4062093B306AF
:10293000FC01E656FF4FE491E093B9068091AB06A7
:10294000082E000C990BFC01EA57FF4FE491F0E0D0
:10295000EE0FFF1FEE58FF4F259134913093B606CE
:102960002093B506FC01E656FF4FE491E093BA06CA
:102970008091AE0681113EC061E08091A9060E945F
:10298000DD0561E08091AA060E94DD058091AA061E
:10299000082E000C990BFC01EA57FF4FE491F0E080
:1029A000EE0FFF1FEE58FF4F259134913093B20682
:1029B0002093B106FC01E656FF4FE491E093B80680
:1029C0008091A906082E000C990BFC01EA57FF4FD5
:1029D000E491F0E0EE0FFF1FEE58FF4F2591349188
:1029E0003093B0062093AF06FC01E656FF4FE4910A
:1029F000E093B7068091AE06882309F45FC01FB745
:102A0000F8948091B405811127C0E0E9F0E0849149
:102A1000E4EAF0E09491E82FF0E0EE0FFF1FE859B0
:102A2000FF4FA591B491EC91E92321F461E08AE094
:102A30000E94AC0961E08AE00E94DD058CB58061EE
:102A40008CBD8CB580648CBD61E08DE00E94DD059D
:102A500061E08BE00E94DD058091B4058F5F80937B
:102A6000B4051FBF80E58CBD81E08DBD27C01092ED
:102A7000DC051092DB051092E0051092E105109242
:102A8000DF0581E08093DE051092DD0561E082E1E3
:102A90000E94AC0961E083E10E94AC098091B90019
:102AA0008E7F8093B9008091B9008D7F8093B900AB
:102AB00088E48093B80085E48093BC008091AC06E4
:102AC00087FD1EC061E00E94DD0561E08091AC06DB
:102AD0000E94AC0961E070E080E090E00E94010A91
:102AE00060E08091AC060E94AC096AE070E080E092
:102AF00090E00E94010A61E08091AC060E94AC095E
:102B00008EEA0E94440C85ED0E94440C80E80E94ED
:102B1000440C88EA0E94440C8FE30E94440C83ED2D
:102B20000E94440C80E00E94440C80E40E94440C0B
:102B30008DE80E94440C84E10E94440C80E20E94D3
:102B4000440C80E00E94440C81EA0E94440C88EC12
:102B50000E94440C8AED0E94440C82E10E94440CC5
:102B600081E80E94440C8FEC0E94440C89ED0E9485
:102B7000440C81EF0E94440C8BED0E94440C80E4D5
:102B80000E94440C84EA0E94440C86EA0E94440C91
:102B90008EE20E94440C8FEA0E94440C0E948D0C2D
:102BA0000E94390C82E08093A10610929E0610923A
:102BB0009D0681E090E09093A00680939F0661E0DF
:102BC0008DE00E94DD0561E086E00E94DD0560E0A9
:102BD00082E00E94DD0560E087E00E94DD052CE3D5
:102BE000422E512C612C712C30E1232E3EE0332EED
:102BF0000E94390C10929A061092990610929C0627
:102C000010929B0680E695E00E941A0D87E995E0F8
:102C10000E941A0D2FB7F8946091D3057091D405D6
:102C20008091D5059091D6052FBF28EE33E040E086
:102C300050E00E941F1869017A01CA01B90120E120
:102C40003EE040E050E00E94411849015A01A301D2
:102C500092010E94411829833A834B835C83289C0C
:102C6000C001299C900D389C900D1124092E000C58
:102C7000AA0BBB0BC81AD90AEA0AFB0A4CE3429F0B
:102C8000C001439F900D1124092E000CAA0BBB0B11
:102C9000A7019601281B390B4A0B5B0BCA01B9012E
:102CA000A30192010E9441187F936F933A813F9351
:102CB00049814F939F928F92A3EAB5E0BF93AF9360
:102CC000A5EBB5E0BF93AF930E946B1885EB95E041
:102CD0000E941A0D80E695E00E941A0D0E948D0C4C
:102CE0000E948D0C8EEE95E00E9479060FB6F89446
:102CF000DEBF0FBECDBF892B49F18EEE95E00E945D
:102D000057068093BF05813309F58091C2059091E4
:102D1000C30501969093C3058093C20530E33093B9
:102D2000BF050E943F076CED75E080E090E00E94D7
:102D3000010A8091C2059091C3059093C1058093CB
:102D4000C00544971CF00E942307FDCF8EEE95E04E
:102D50000E947906892B49F18EEE95E00E94570674
:102D60008093C405833309F58091C2059091C30512
:102D700005969093C3058093C2050E943F076CEDB2
:102D800075E080E090E00E94010A8091C205909178
:102D9000C3059093C1058093C00540E34093C405EB
:102DA00044971CF00E942307FDCF82E00E94830914
:102DB0009093C8058093C7052091C5053091C6053D
:102DC00082179307D9F0892BC9F48091C905909196
:102DD000CA0501969093CA058093C9050E943F07D2
:102DE00061E08DE00E94AC0960ED77E080E090E06A
:102DF0000E94010A60E08DE00E94AC098091C70545
:102E00009091C8059093C6058093C5058EEE95E018
:102E10000E947906892B91F08EEE95E00E9457066C
:102E20008093CB05823351F461E086E00E94AC09C7
:102E300082E090E09093CD058093CC0587E00E94DE
:102E400083099093D1058093D0052091CE053091D0
:102E5000CF058217930709F478C0019709F075C070
:102E60008091CC059091CD05029709F06EC08091BC
:102E7000C9059091CA0505969093CA058093C90526
:102E80001092700061E080918B060E94DD0560E089
:102E900080918B060E94AC0981E08093B00099E09C
:102EA0009093B100A8ECA093B30082E48093B400A7
:102EB0008091B00080628093B00060E679E080E0AD
:102EC00090E00E9405130E940F0D04E110E0C12C58
:102ED000D12C98E0E92EF12CD701C60180799B789E
:102EE000A670BB27892B8A2B8B2B51F08091B000C9
:102EF00080628093B00060EB74E080E090E009C0F5
:102F00008091B00080628093B00068E572E080E05C
:102F100090E00E9405130E940F0DF694E794D79459
:102F2000C79401501109C1F664EF71E080E090E0B0
:102F30000E94010A60E086E00E94AC091092CD0573
:102F40001092CC05B0E3B093CB058091D005909161
:102F5000D1059093CF058093CE050E94190748CEE6
:102F6000E2EEF5E01382128288EE93E0A0E0B0E09A
:102F700084839583A683B78324E035E0318320835F
:102F8000EEEEF5E01382128284839583A683B783E5
:102F900086E195E09183808385EC90E09587848736
:102FA00084EC90E09787868780EC90E0918B808B13
:102FB00081EC90E0938B828B82EC90E0958B848BFC
:102FC00086EC90E0978B868B118E128E138E148E6A
:102FD000EDE8F6E01382128220E830E035832483A6
:102FE00080E490E097838683318720879387828768
:102FF000158A158614861786168681E0848B2FEF36
:103000003FEF338B228B318B208B868B178A118E6F
:10301000108E88E295E09183808388E080A38AE027
:10302000878F89E0868F8CE0858F8BE0848F11A25B
:1030300083E090E090938C0680938B060895A1E244
:103040001A2EAA1BBB1BFD010DC0AA1FBB1FEE1F22
:10305000FF1FA217B307E407F50720F0A21BB30B6D
:10306000E40BF50B661F771F881F991F1A9469F7E9
:1030700060957095809590959B01AC01BD01CF0145
:103080000895052E97FB1EF400940E94581857FDD2
:1030900007D00E941F1807FC03D04EF40C94581858
:1030A00050954095309521953F4F4F4F5F4F089574
:1030B00090958095709561957F4F8F4F9F4F0895A4
:1030C000EE0FFF1F0590F491E02D099481E090E050
:1030D000F8940C94431BAEE0B0E0E1E7F8E10C9407
:1030E0001A1B0D891E8986E08C831A8309838FEF52
:1030F0009FE79E838D83AE01475E5F4F6F89788D1A
:10310000CE0101960E948E182F813885F801E20FBA
:10311000F31F10822E96E4E00C94361BACE0B0E076
:10312000E4E9F8E10C940C1B7C016B018A01FC01C1
:1031300017821682838181FFBDC1CE0101964C01A9
:10314000F7019381F60193FD859193FF81916F01C2
:10315000882309F4ABC1853239F493FD859193FF3F
:1031600081916F01853229F4B70190E00E94761AAF
:10317000E7CF512C312C20E02032A0F48B3269F0C3
:1031800030F4803259F0833269F420612CC08D32E2
:1031900039F0803339F4216026C02260246023C0D6
:1031A000286021C027FD27C030ED380F3A3078F471
:1031B00026FF06C0FAE05F9E300D1124532E13C087
:1031C0008AE0389E300D1124332E20620CC08E32DE
:1031D00021F426FD6BC1206406C08C3611F42068F2
:1031E00002C0883641F4F60193FD859193FF8191E9
:1031F0006F018111C1CF982F9F7D9554933028F492
:103200000C5F1F4FFFE3F9830DC0833631F0833726
:1032100071F0833509F05BC022C0F8018081898399
:103220000E5F1F4F44244394512C540115C03801A4
:10323000F2E06F0E711CF801A080B18026FF03C080
:10324000652D70E002C06FEF7FEFC5012C870E94F3
:103250006B1A2C0183012C852F77222E17C0380181
:10326000F2E06F0E711CF801A080B18026FF03C050
:10327000652D70E002C06FEF7FEFC5012C870E94C3
:10328000601A2C012C852068222E830123FC1BC090
:10329000832D90E048165906B0F4B70180E290E023
:1032A0000E94761A3A94F4CFF50127FC859127FE07
:1032B00081915F01B70190E00E94761A31103A9433
:1032C000F1E04F1A51084114510471F7E5C08436FA
:1032D00011F0893639F5F80127FF07C06081718147
:1032E000828193810C5F1F4F08C060817181072E1E
:1032F000000C880B990B0E5F1F4F2F76722E97FFD5
:1033000009C090958095709561957F4F8F4F9F4F25
:103310002068722E2AE030E0A4010E94AE1AA82E86
:10332000A81844C0853729F42F7EB22E2AE030E059
:1033300025C0F22FF97FBF2E8F36C1F018F48835E3
:1033400079F0B4C0803719F0883721F0AFC02F2F43
:103350002061B22EB4FE0DC08B2D8460B82E09C042
:1033600024FF0AC09F2F9660B92E06C028E030E0E7
:1033700005C020E130E002C020E132E0F801B7FEF4
:1033800007C060817181828193810C5F1F4F06C0ED
:103390006081718180E090E00E5F1F4FA4010E9468
:1033A000AE1AA82EA818FB2DFF777F2E76FE0BC035
:1033B000372D3E7FA51450F474FE0AC072FC08C07D
:1033C000372D3E7E05C0BA2C372D03C0BA2C01C064
:1033D000B52C34FF0DC0FE01EA0DF11D8081803354
:1033E00011F4397E09C032FF06C0B394B39404C00F
:1033F000832F867809F0B39433FD13C030FF06C0E5
:103400005A2CB31418F4530C5B18B32CB31468F48F
:10341000B70180E290E03C870E94761AB3943C8525
:10342000F5CFB31410F43B1801C0312C34FF12C097
:10343000B70180E390E03C870E94761A3C8532FF1A
:1034400017C031FD03C088E790E002C088E590E036
:10345000B7010CC0832F867859F031FF02C08BE290
:1034600001C080E237FD8DE2B70190E00E94761A3C
:10347000A51438F4B70180E390E00E94761A5A94BC
:10348000F7CFAA94F401EA0DF11D8081B70190E015
:103490000E94761AA110F5CF332009F451CEB7015E
:1034A00080E290E00E94761A3A94F6CFF701868186
:1034B000978102C08FEF9FEF2C96E2E10C94281BBE
:1034C000FC010590615070400110D8F780959095EF
:1034D0008E0F9F1F0895FC016150704001900110F4
:1034E000D8F7809590958E0F9F1F08950F931F9387
:1034F000CF93DF93FB01238121FD03C08FEF9FEF6B
:1035000028C022FF16C04681578124813581421789
:10351000530744F4A081B1819D012F5F3F4F318358
:1035200020838C93268137812F5F3F4F37832683FB
:1035300010C0EB01092F182F0084F185E02D0995AB
:10354000892BE1F68E819F8101969F838E83812F47
:10355000902FDF91CF911F910F910895FA01AA2723
:10356000283051F1203181F1E8946F936E7F6E5FC6
:103570007F4F8F4F9F4FAF4FB1E03ED0B4E03CD074
:10358000670F781F891F9A1FA11D680F791F8A1F57
:10359000911DA11D6A0F711D811D911DA11D20D0BE
:1035A00009F468943F912AE0269F11243019305D78
:1035B0003193DEF6CF010895462F4770405D419369
:1035C000B3E00FD0C9F7F6CF462F4F70405D4A33B6
:1035D00018F0495D31FD4052419302D0A9F7EACF7E
:1035E000B4E0A6959795879577956795BA95C9F7AD
:1035F00000976105710508959B01AC010A2E0694A0
:103600005795479537952795BA95C9F7620F731F58
:10361000841F951FA01D08952F923F924F925F9295
:103620006F927F928F929F92AF92BF92CF92DF92D2
:10363000EF92FF920F931F93CF93DF93CDB7DEB737
:10364000CA1BDB0B0FB6F894DEBF0FBECDBF0994CB
:103650002A88398848885F846E847D848C849B8422
:10366000AA84B984C884DF80EE80FD800C811B8130
:10367000AA81B981CE0FD11D0FB6F894DEBF0FBE5F
:0A368000CDBFED010895F894FFCFCF
:10368A000000000000000000000000000000000030
:10369A000000000000000000000000000000000020
:1036AA000000000000000000000000000000000010
:1036BA000000000000000000000000000000008080
:1036CA0080800000000000000000000000000000F0
:1036DA00008080C0C0000000000000000000000060
:1036EA0000000000000000000000000000000000D0
:1036FA0000000000000000000000000000000000C0
:10370A0000000000000000000000000000000000AF
:10371A000000000080C0E0F0F8FCF8E000000000C3
:10372A00000000000000000000000000008080800F
:10373A00808000808000000000808080808000FF00
:10374A00FFFF000000008080808000008080000071
:10375A0080FFFF80800080800080808080008080E1
:10376A000000000000808000008C8E84000080F839
:10377A00F8F88000000000000000000000000000CF
:10378A00F0F0F0F0F0F0F0F0F0F0F0F0E0E0C080EF
:10379A0000E0FCFEFFFFFF7FFFFFFFFFFF000000CE
:1037AA000000000000000000000000FEFFC7010149
:1037BA00010183FFFF00007CFEC70101010183FFB5
:1037CA00FFFF0038FEC78301010183C7FFFF000026
:1037DA0001FFFF010100FFFF0701010100007FFF58
:1037EA0080000000FFFF7F0000FFFFFF000001FFD5
:1037FA00FFFF0100000000000000000000000000C0
:10380A00030F3F7F7FFFFFFFFFFFFFFFE7C7C78F62
:10381A008F9FBFFFFFC3C0F0FFFFFFFFFFFCFCFC51
:10382A00FCFCFCFCFCF8F8F0F0E0C0000103030328
:10383A000303010303000000000103030303010162
:10384A000301000000010303030301010303000055
:10385A000003030000000303000000000000000151
:10386A000303030303010000000103010000000336
:10387A00030100000000000000000000000000003A
:10388A0000000080C0E0F0F9FFFFFFFFFF3F1F0FBD
:10389A0087C7F7FFFF1F1F3DFCF8F8F8F87C7DFF8C
:1038AA00FFFFFFFFFFFFFF7F3F0F070030300000E1
:1038BA0000000000000000000000000000000000FE
:1038CA0000000000FEFEFC000000000000000000F6
:1038DA0000000000000000000000000000E0C0003E
:1038EA00000000000000000000003030000000006E
:1038FA0000000000000000000000000000000000BE
:10390A0000C0FEFFFFFFFFFFFFFFFFFF7F7F3F1F9C
:10391A000F071F7FFFFFF8F8FFFFFFFFFFFEF8E02A
:10392A00000000010000000000000000FEFE000090
:10393A0000FCFEFC0C06060EFCF80000F0F81C0E5B
:10394A000606060CFFFFFF0000FEFE00000000FC5A
:10395A00FEFC00183C7E66E6CE84000006FFFF06E9
:10396A0006FCFEFC0C0606060000FEFE0000C0F87F
:10397A00FC4E4646464E7C7840183C76E6CECC80D5
:10398A00000000000000000000000000000000002D
:10399A000000000001070F1F1F3F3F3F3F1F0F039B
:1039AA000000000000000000000000000F0F0000EF
:1039BA00000F0F0F000000000F0F000003070E0C8E
:1039CA0018180C060F0F0F0000010F0E0C180C0F21
:1039DA00070100040E0C180C0F070000000F0F005F
:1039EA00000F0F0F0000000000000F0F000000077B
:1039FA00070C0C181C0C060600040E0C180C0F07FA
:103A0A0000000000000000000000000000000000AC
:103A1A00000000000000000000000000000000009C
:103A2A00000000000000000000000000000000008C
:103A3A00000000000000000000000000000000007C
:103A4A00000000000000000000000000000000006C
:103A5A00000000000000000000000000000000005C
:103A6A00000000000000000000000000000000004C
:103A7A00000000000000000000000000000000003C
:103A8A0000000000F80BC80B4506A20BC00BB10BD7
:103A9A00A30B00000000B00619064806F7067906CF
:103AAA0057066B06000000002F1219064506440649
:103ABA007B1109050205DA04F604EA040A05D904A9
:103ACA001A121912C50E1F100004E2036B030C032D
:103ADA00000103070F1F3F7F0080C0E0F0F8FCFEE3
:103AEA0020202020202020202020002020204741A4
:103AFA004D45202020002020204F564552202020CE
:103B0A0000202053686F6F747320200020496D7065
:103B1A0061637473202000202054494D45522020AF
:103B2A00202000253032643A253032643A2530327A
:043B3A006420000003
:00000001FF
