:100000000C9462000C948A000C948A000C948A0070
:100010000C948A000C948A000C948A000C94480A70
:100020000C948A000C948A000C948A000C948A0028
:100030000C948A000C948A000C948A000C948A0018
:100040000C94B80B0C948A000C94340D0C940E0D87
:100050000C948A000C948A000C948A000C948A00F8
:100060000C948A000C948A000000000024002700F1
:100070002A0000000000250028002B0000000000DE
:1000800023002600290004040404040404040202DA
:100090000202020203030303030301020408102007
:1000A0004080010204081020010204081020000012
:1000B0000008000201000003040700000000000027
:1000C0000000C00D11241FBECFEFD8E0DEBFCDBFB2
:1000D00011E0A0E0B1E0E0EEF2E202C005900D9286
:1000E000A231B107D9F724E0A2E1B1E001C01D922D
:1000F000A53AB207E1F710E0C2E6D0E004C02197CC
:10010000FE010E941B0FC136D107C9F70E94FE0DE8
:100110000C946E110C9400002F923F924F925F92BC
:100120006F927F928F929F92AF92BF92CF92DF9207
:10013000EF92FF920F931F93CF93DF9300D000D0E5
:1001400000D0CDB7DEB760E085E00E94180A86ECEB
:1001500091E090931D0180931C018091C30190E078
:1001600090931F0180931E018091900290E09093E4
:100170002101809320018091BF01853009F096C64E
:100180008091C8019091C901885891098D359105D8
:1001900088F48091C301843041F48091CA01909128
:1001A000CB018097479708F401C28091C301843442
:1001B00008F0E3C18091C3018A3108F454C08091F2
:1001C000C6019091C701843F914080F410921B01B9
:1001D00010921A018FEF9FEFDC018093160190932C
:1001E0001701A0931801B09319015BC08091C80159
:1001F0009091C90185974B97B0F5ECECF1E082E066
:1002000090E040E050E0BA018C010F5F1F4F209159
:10021000C30130E0021713076CF49F01225031092B
:10022000D9012D913C91275031092730310508F42F
:10023000F5C1C80101979595879590931B0180930F
:100240001A010C972CF410921B0110921A010BC08A
:100250004093160150931701609318017093190190
:1002600084E090E0FCC28091C3018A3108F44DC063
:100270008091C6019091C7018032934008F4A6CFC7
:100280008091C8019091C901C697869708F4E2C190
:100290003CC040931601509317016093180170936E
:1002A00019018BE090E0DBC22081318125523109B8
:1002B0002B31310508F0DEC1440F551F661F771F33
:1002C0004160029634968C010F5F1F4F2091C3014D
:1002D00030E00217130764F49F0122503109D9015D
:1002E0002D913C912C5031092B303105E8F2C80199
:1002F00001979595879590931B0180931A010C9710
:1003000044F610921B0110921A018091C3018232AF
:1003100008F44CC08091C8019091C90106970797D5
:1003200008F044C0ECECF1E082E090E040E050E006
:10033000BA018C010F5F1F4F2091C30130E00217FB
:100340001307DCF4DF0112972D913C9111972E5188
:1003500031092731310508F09AC1440F551F661F36
:10036000771F416020813181349623503109253037
:10037000310510F40296DDCFC80101979595879558
:1003800090931B0180931A0140972CF410921B014B
:1003900010921A010BC040931601509317016093FD
:1003A0001801709319018CE090E059C21C821B82E5
:1003B00081E090E09A8389838091C3018D3008F4B5
:1003C0006BC049E753E0BE016D5F7F4FCE010196E0
:1003D0000E943908892B09F05FC049E753E0BE014C
:1003E0006D5F7F4FCE0101960E943908019709F099
:1003F00053C049E753E0BE016D5F7F4FCE010196C8
:100400000E943908892B09F047C0C12CD12C7601F4
:1004100000E010E08091C30190E029813A81281723
:1004200039075CF549E753E0BE016D5F7F4FCE01B0
:1004300001960E9439085C0149E753E0BE016D5FF7
:100440007F4FCE0101960E943908B1E0AB16B1048E
:1004500049F4892B09F5CC0CDD1CEE1CFF1C6894BB
:10046000C0F808C0AB28C1F40197B1F4CC0CDD1C76
:10047000EE1CFF1C0F5F1F4FCDCF10931B0100938D
:100480001A01C0921601D0921701E0921801F09261
:10049000190181E090E0E3C11C821B8281E090E0C1
:1004A0009A83898380911E0190911F011816190665
:1004B0000CF058C0E0911C01F0911D0182E090E029
:1004C0009A8389838281938189974E9708F04AC0E5
:1004D00083E090E09A838983848195810B970A97C2
:1004E00008F040C04CEB51E0BE016D5F7F4FCE0184
:1004F00001960E943908892BA9F54CEB51E0BE0109
:100500006D5F7F4FCE0101960E943908019751F52A
:10051000C12CD12C760100E010E029813A81809134
:100520001E0190911F01281739070CF0F3C04CEB06
:1005300051E0BE016D5F7F4FCE0101960E943908E8
:100540004C010330110509F0AFC04CEB51E0BE0186
:100550006D5F7F4FCE0101960E943908881699067B
:1005600009F4A2C0E0911C01F0911D0182819381E8
:10057000C697869708F4DDC0A0C18091CA0190910A
:10058000CB01825491098E9708F014CE20E030E020
:1005900080E090E0DC01F901E453FE4F408151819D
:1005A000495051094930510588F004CE8091CC0161
:1005B0009091CD010997099708F0F7CD10921B0192
:1005C00010921A018FEF9FEFDC016CC1F901E25329
:1005D000FE4F40815181475151094231510588F404
:1005E000880F991FAA1FBB1F81602C5F3F4F2038C7
:1005F000310589F620E230E030931B0120931A0187
:1006000051C140815181465051094730510508F090
:10061000D1CD880F991FAA1FBB1FE7CF2081318141
:10062000235131092F30310540F4440F551F661F07
:10063000771F416002963496E7CD208131812A50A0
:1006400031092930310508F00ECE440F551F661FC1
:10065000771FF0CF8091CA019091CB01C697869702
:1006600008F053CEEEECF1E083E090E040E050E0A3
:10067000BA0129CE208131812C5031092A3031052F
:1006800008F043CE440F551F661F771F1ACE2D91D9
:100690003C912C5031092B30310508F087CE440FA6
:1006A000551F661F771F5ECE4CEB51E0BE016D5F9C
:1006B0007F4FCE0101960E9439085C01033011057D
:1006C00069F44CEB51E0BE016D5F7F4FCE010196A6
:1006D0000E943908A816B90609F044CF8114910484
:1006E00059F4AA94AB2809F03DCFCC0CDD1CEE1CCC
:1006F000FF1C6894C0F80BC08A94892809F032CF97
:10070000AB2809F02FCFCC0CDD1CEE1CFF1C0F5FBB
:100710001F4F03CF10931B0100931A01C0921601C3
:10072000D0921701E0921801F092190182E090E056
:1007300096C0848195814B97459708F0BEC0DF0134
:1007400016967F0126ECE20EF11C20E030E040E03E
:1007500050E060E070E080E090E00D911C91119716
:10076000095011090830110508F0A7C012960D9123
:100770001C911397015111090D30110520F501E06D
:100780000E94E40E21601496AE15BF0531F7209348
:10079000160130931701409318015093190100E29C
:1007A0000E94FF0E209314013093150185E090E024
:1007B000909313018093120180E390E090931B01CA
:1007C00080931A0150C012960D911C9113970450FA
:1007D00011090530110508F070C001E00E94E40E17
:1007E000D2CF980122503109D9012D913C91295045
:1007F00031092830310508F00EC1BC016F5F7F4F11
:10080000D8012D913C91275031092730310508F04E
:10081000FFC2440F551F416002960C5F1F4F20918D
:10082000C30130E02450310982179307D4F20197B5
:100830009595879590931B0180931A018A970CF4E4
:10084000EAC0052E000C660B770B409316015093FF
:100850001701609318017093190189E090E090935B
:10086000130180931201809112019091130104975A
:1008700099F463E382E291E00E94990C61E085E0E3
:100880000E94180A64EF71E080E090E00E947E0B05
:1008900060E085E00E94180A82E08093BF01109218
:1008A000C30104C38093160190931701A09318010C
:1008B000B093190183E090E0D2CF8091C3018933D6
:1008C00070F182819381895791098335910508F4EC
:1008D00040C125C0D90112966D917C911397665144
:1008E00071096131710508F060C1D701C601880F37
:1008F000991FAA1FBB1F6C017D016894C0F84E5F51
:100900005F4F2C5F3F4F4B33510509F431C1D90183
:100910006D917C916A50710969307105D8F28091AE
:10092000C301823231F4828193810A97099708F4D6
:100930004CC1828193818957910983359105D0F407
:100940008091C3018132B0F084819581CA978997E3
:1009500088F49F012A5F3F4FC12CD12C760143E0E0
:1009600050E0D9016D917C916A507109693071052F
:1009700008F44AC1828193818C549109C59778F417
:100980008091C301843031F48481958180974797A9
:1009900008F499C18091C301843408F07BC180912F
:1009A000C301863460F1828193810C970B9708F420
:1009B000D8C125C0D90112966D917C9113976E51C3
:1009C00071096731710508F004C2D701C601880FAB
:1009D000991FAA1FBB1F6C017D016894C0F84E5F70
:1009E0005F4F2C5F3F4F4534510509F4D5C1D90104
:1009F0006D917C916C5071096B307105D8F28091CA
:100A0000C301883540F082819381855891098B35E7
:100A1000910508F4EEC18091C3018032E1F4828136
:100A2000938106970697B8F4848195810997099771
:100A300090F49F012A5F3F4FBF01625C7F4FC12C42
:100A4000D12C7601D9014D915C9146505109463027
:100A5000510508F4EAC180911E0190911F019E8307
:100A60008D8306970CF418CF8F010A5F1F4F73E038
:100A7000272E312CE5ECCE2EEDE9DE2EECE1EE2E2C
:100A8000E1E8FE2ED8016D917C91F8013497A080A9
:100A9000B18080E090E00E944A102B013C01B5013A
:100AA00080E090E00E944A104B015C012DEC3CEC90
:100AB0004CE45FE30E94FC109B01AC01C301B20156
:100AC0000E949D0F87FD17C02DEC3CEC4CE45FE3CA
:100AD000C301B2010E94FC109B01AC01C501B4012D
:100AE0000E949D0FE82F880FFF0BEE27FF0FEE1FD0
:100AF000FF27319602C0E0E0F0E0A701960163E92C
:100B000071E080E091E00E94C90E6F01FF0FEE08D6
:100B1000FF08C626D726E826F926BFEF2B1A3B0A80
:100B20000E5F1F4FED81FE812E163F0609F0AACF02
:100B3000C0921601D0921701E0921801F0921901AB
:100B400080E290E090931B0180931A018FEF9FEF5A
:100B500086CE84819581CA97899708F0E0CE9F015F
:100B60002A5F3F4FC12CD12C760143E050E0CFCE1D
:100B70009F012A583F4FD9012D913C912A503109AC
:100B80002930310508F0CBCE2CE130E030931B0149
:100B900020931A01C0921601D0921701E092180119
:100BA000F09219018AE090E05ACED90112966D9127
:100BB0007C911397665071096730710508F0AFCECC
:100BC000CC0CDD1CEE1CFF1C9ACE2091C301CF0182
:100BD000820F911D820F911DDC0112978D919C91C6
:100BE0000A97099708F0A5CE10921B0110921A01DE
:100BF0008FEF9FEFDC018093160190931701A09374
:100C00001801B09319014CC1D90112966D917C91D4
:100C10001397665171096131710588F112966D91D2
:100C20007C911397665071096730710508F0A2CE68
:100C3000CC0CDD1CEE1CFF1C4E5F5F4F2C5F3F4F4A
:100C40004332510509F08DCE9F012A5B3F4FD901F8
:100C50002D913C912A5031092930310508F08ACE76
:100C600020E130E030931B0120931A01C09216015D
:100C7000D0921701E0921801F092190111C1D70129
:100C8000C601880F991FAA1FBB1F6C017D016894C4
:100C9000C0F8D2CF8481958189549109C39708F017
:100CA0007ECE9F012A5F3F4FBF016A577F4FC12C05
:100CB000D12C7601D9014D915C91495051094930AF
:100CC0005105B8F06CCE868197810997099708F095
:100CD00061CE10921B0110921A018FEF9FEFDC0181
:100CE0008093160190931701A0931801B0931901F6
:100CF000DAC0D90112964D915C9113974651510972
:100D000041315105F0F4D701C601880F991FAA1F80
:100D1000BB1F6C017D016894C0F82C5F3F4F261704
:100D2000370741F620E230E030931B0120931A018F
:100D3000C0921601D0921701E0921801F0921901A9
:100D4000B2C0D90112964D915C911397465051094A
:100D50004730510508F023CECC0CDD1CEE1CFF1CE7
:100D6000DCCF848195810997099708F048CE868168
:100D700097818C974F9708F042CE8085918589970F
:100D80004D9708F03CCE9F01265F3F4FC12CD12CE0
:100D9000760145E050E02BCE9F0126573F4FD90109
:100DA0002D913C912C5031092B30310508F027CE84
:100DB00020E230E030931B0120931A01C09216010B
:100DC000D0921701E0921801F092190188E090E0AA
:100DD00046CDD90112966D917C9113976950710996
:100DE0006930710508F00BCECC0CDD1CEE1CFF1C2D
:100DF000F6CD84819581825491098E9708F00BCEAF
:100E00008F01045C1F4F8DE190E040E050E007CD82
:100E1000D8012D913C91285131092231310510F032
:100E2000CB0105CD440F551FF7CCD90112964D913A
:100E30005C911397495151094331510508F5D70188
:100E4000C601880F991FAA1FBB1F6C017D01689402
:100E5000C0F82C5F3F4F2617370709F0F3CD2EE07F
:100E600030E030931B0120931A01C0921601D092FA
:100E70001701E0921801F09219018FE090E0EFCC99
:100E8000D90112964D915C911397495051094930FF
:100E9000510508F0E0CDCC0CDD1CEE1CFF1CD9CFB9
:100EA00086E090E0DCCC87E090E0D9CC26960FB6C7
:100EB000F894DEBF0FBECDBFDF91CF911F910F9190
:100EC000FF90EF90DF90CF90BF90AF909F908F906A
:100ED0007F906F905F904F903F902F900895CF92AA
:100EE000DF92EF92FF92CF93DF932FB7F894C090E9
:100EF0009B04D0909C04E0909D04F0909E042FBF32
:100F0000EC01C457DF4FFC01B896BC019C01245C86
:100F10003F4F199211921192DB01CD92DD92ED9229
:100F2000FD92BD01AF01425B5F4FDA011D921C9241
:100F3000E217F30771F7FC01E655FF4F11821082AB
:100F4000DF91CF91FF90EF90DF90CF900895CF92F7
:100F5000DF92EF92FF92CF93DF93EC01072E000C0C
:100F6000880B990B0E944C106B017C0120E030E053
:100F700040E45FE30E94FC1020E030E048E452E4EB
:100F80000E94A20F0E941410C617D707D4F020E0C9
:100F900030E040EA5FE3C701B6010E94FC1020E0A8
:100FA00030E048E452E40E94A20F20E030E040E844
:100FB0005FE30E94310F0E94141021E06C177D073F
:100FC0000CF420E0822F90E0DF91CF91FF90EF9022
:100FD000DF90CF900895833081F028F4813099F02C
:100FE0008230A1F008958730A9F08830B9F08430BC
:100FF000D1F4809180008F7D03C0809180008F7735
:1010000080938000089584B58F7702C084B58F7D6A
:1010100084BD08958091B0008F7703C08091B000A7
:101020008F7D8093B00008953FB7F8948091970426
:1010300090919804A0919904B0919A0426B5A89B28
:1010400005C02F3F19F00196A11DB11D3FBFBA2F5A
:10105000A92F982F8827820F911DA11DB11DBC01BA
:10106000CD0142E0660F771F881F991F4A95D1F77F
:1010700008958F929F92AF92BF92CF92DF92EF929C
:10108000FF920F931F93CF93DF93FC01C081D18117
:1010900020911E0130911F01C217D3070CF04BC0E5
:1010A0009E01220F331FE0911C01F0911D01E20F00
:1010B000F31F80809180C170DD27F1E0CF2720975A
:1010C00019F404E610E002C00CE91FEF7A015B019D
:1010D0006C01040F151FB801C4010E94A707892BDA
:1010E00099F40E0D1F1DB801C4010E94A707892B9A
:1010F00071F4B8016E0D7F1DC4010E94A707892BF2
:10110000E9F023E030E005C021E030E002C022E059
:1011100030E0F501808191810196821793073CF0C0
:10112000F50111821082F6018081918101969183EF
:101130008083CE0105C081E090E002C08FEF9FEF79
:10114000DF91CF911F910F91FF90EF90DF90CF90A3
:10115000BF90AF909F908F900895EF92FF920F9362
:101160001F93CF93DF93EC01C655DF4FE881F981E0
:101170003A970CF04AC0FC01B896E12CF12CA191F1
:10118000B191AB2BD1F52115310509F43EC0D70142
:10119000AA0FBB1FAA0FBB1FA80FB91FDC964D9348
:1011A0005D936D937C93DF97F701EE0FFF1FE80FC0
:1011B000F91F31A720A7EC59FF4F118210828E0D25
:1011C0009F1DFC01E457FF4F81E080838FB7F894A7
:1011D00000919B0410919C0420919D0430919E04E9
:1011E0008FBF0D931D932D933C9313978881998105
:1011F000019699838883C7010AC0AFEFEA1AFA0AF9
:10120000AAE0EA16F10409F0BACF8FEF9FEFDF9161
:10121000CF911F910F91FF90EF9008952F923F92E1
:101220004F925F926F927F928F929F92AF92BF92F6
:10123000CF92DF92EF92FF920F931F93CF93DF93A2
:10124000CDB7DEB728970FB6F894DEBF0FBECDBF7F
:101250002FB7F89440919B0450919C0460919D0499
:1012600070919E0449835A836B837C832FBF9E8336
:101270008D837C015CE8E50EF11C8C0108581F4F42
:10128000BC01685D7F4F78876F83F8016701222476
:101290002394312C178E168E9F0120553109D901C8
:1012A0002D913C91232B09F445C0AD81BE814D9118
:1012B0005D916D917C911397DC968D909D90AD9092
:1012C000BC90DF9749805A806B807C80441A550A15
:1012D000660A770A481459046A047B0458F1480DD9
:1012E000591D6A1D7B1D4D935D936D937C931397E0
:1012F000D6012C912223F1F09F0124513109D9010B
:101300004D915C914115510519F4378E268E12C00E
:1013100020813181241735076CF4378E268E2F5F9C
:101320003F4F318320832417350724F022E030E03B
:10133000378F268F4D815E814C5F5F4F5E834D837B
:101340005FEFC51AD50A32966D817E812F8138856F
:101350006217730709F09ECF5C013CE3A30EB11C3A
:1013600065014C014AEA840E911CD8015E968D916C
:101370009C915F978130910519F0029739F02BC04D
:10138000AF81B885ED91FC91099525C0AF81B885F5
:10139000ED91FC910995F401808191810097D9F03C
:1013A000AF81B8852D913C911197232BA1F01D920F
:1013B0001C92F7011082D8015F961C921E925E97D4
:1013C000F60110821182128213821D921C920197E3
:1013D000D4018D939C932F8138852E5F3F4F3887A2
:1013E0002F833FEFE31AF30A44E0C40ED11C0E5FD3
:1013F0001F4F6F8178856A157B0509F0B6CF289657
:101400000FB6F894DEBF0FBECDBFDF91CF911F9115
:101410000F91FF90EF90DF90CF90BF90AF909F9093
:101420008F907F906F905F904F903F902F90089596
:101430001F93CF93DF93282F30E0F901E255FF4F40
:101440008491F901E656FF4FD491F901EA57FF4F15
:10145000C491CC23C9F0162F81110E94EB07EC2F09
:10146000F0E0EE0FFF1FEE58FF4FA591B4918FB73C
:10147000F894111105C09C91ED2FE095E92302C06D
:10148000EC91ED2BEC938FBFDF91CF911F910895DD
:101490001F920F920FB60F9211242F933F934F93E9
:1014A0005F936F937F938F939F93AF93BF93CF93EC
:1014B000DF93EF93FF932091C00130E0F901E255F3
:1014C000FF4F8491F901E656FF4FD491F901EA5795
:1014D000FF4FC491CC23A1F081110E94EB07EC2FA8
:1014E000F0E0EE0FFF1FE458FF4FA591B491EC918F
:1014F000ED2331E020E009F430E0832F922F02C089
:1015000080E090E02091C4013091C5012F5F3F4FF2
:101510003093C5012093C4012091C301253618F0F2
:1015200026E02093BF012091BF012430D9F128F497
:10153000223069F02330D9F060C0253009F453C05F
:10154000263009F05AC021E02093900253C0009742
:1015500009F053C02091C4013091C50124363105F2
:1015600008F443C0109290021092C3011DC0813054
:10157000910509F042C0E091C30121E02E0F2093B4
:10158000C301F0E02091C4013091C501EE0FFF1FAF
:10159000E154FE4F308727831092C5011092C40199
:1015A00024E029C00097B9F4E091C30121E02E0F97
:1015B0002093C301F0E02091C4013091C501EE0FEA
:1015C000FF1FE154FE4F308727831092C501109210
:1015D000C40123E010C02091C4013091C50125361B
:1015E000310558F007C0009741F41092C5011092E0
:1015F000C40103C025E02093BF012091C201222332
:10160000B9F0892B51F48091C101882321F0809198
:10161000C10161E009C02D9A0BC08091C1018823EE
:1016200031F08091C10160E00E94180A01C02D983C
:10163000FF91EF91DF91CF91BF91AF919F918F91EA
:101640007F916F915F914F913F912F910F900FBEBE
:101650000F901F901895CF93DF9390E0FC01E65612
:10166000FF4F2491FC01EA57FF4F8491882361F1D9
:1016700090E0880F991FFC01E859FF4FC591D49164
:10168000FC01EE58FF4FA591B491611109C09FB7BD
:10169000F8948881209582238883EC912E230BC0B7
:1016A000623061F49FB7F8943881822F809583234C
:1016B0008883EC912E2B2C939FBF06C08FB7F89494
:1016C000E8812E2B28838FBFDF91CF9108958E3034
:1016D00008F08E508770806480937C0080917A003F
:1016E000806480937A0080917A0086FDFCCF80919F
:1016F00078002091790090E0922B08958F929F922C
:10170000AF92BF92CF92DF92EF92FF926B017C017A
:101710000E9414084B015C01C114D104E104F104DE
:10172000F1F00E941408DC01CB0188199909AA097B
:10173000BB09883E9340A105B10570F321E0C21AB0
:10174000D108E108F10888EE880E83E0981EA11CFC
:10175000B11CC114D104E104F10419F7DDCFFF90ED
:10176000EF90DF90CF90BF90AF909F908F900895B3
:101770001F920F920FB60F9211242F933F938F93C6
:101780009F93AF93BF9380919B0490919C04A091F1
:101790009D04B0919E043091960423E0230F2D37D1
:1017A00020F40196A11DB11D05C026E8230F029665
:1017B000A11DB11D2093960480939B0490939C04DB
:1017C000A0939D04B0939E048091970490919804F7
:1017D000A0919904B0919A040196A11DB11D809326
:1017E000970490939804A0939904B0939A04BF919E
:1017F000AF919F918F913F912F910F900FBE0F90BE
:101800001F901895CF92DF92EF92FF920F931F9344
:10181000CF93DF936C017A018B01C0E0D0E0CE154D
:10182000DF0589F0D8016D918D01D601ED91FC9114
:101830000190F081E02DC6010995892B11F47E01FC
:1018400002C02196ECCFC701DF91CF911F910F917C
:10185000FF90EF90DF90CF900895089580E090E0A2
:101860000895FC01538D448D252F30E0842F90E0A6
:10187000821B930B541710F0CF960895019708958B
:10188000FC01918D828D981761F0828DDF01A80F88
:10189000B11D5D968C91928D9F5F9F73928F90E0AA
:1018A00008958FEF9FEF0895FC01918D828D981719
:1018B00031F0828DE80FF11D858D90E008958FEF56
:1018C0009FEF0895FC01918D228D892F90E0805C1F
:1018D0009F4F821B91098F739927089582E291E0AF
:1018E0000E94620C21E0892B09F420E0822F0895E8
:1018F000FC01848DDF01A80FB11DA35ABF4F2C91AD
:10190000848D90E001968F739927848FA689B7897B
:101910002C93A089B1898C9180648C93938D848D54
:10192000981306C00288F389E02D80818F7D808323
:101930000895EF92FF920F931F93CF93DF93EC01E3
:1019400081E0888F9B8D8C8D981305C0E889F9897B
:10195000808185FD24C0F62E0B8D10E00F5F1F4F98
:101960000F731127E02E8C8DE8120CC00FB607FC08
:10197000FACFE889F989808185FFF5CFCE010E94F1
:10198000780CF1CF8B8DFE01E80FF11DE35AFF4F6C
:10199000F0820B8FEA89FB898081806207C0EE8923
:1019A000FF896083E889F98980818064808381E090
:1019B00090E0DF91CF911F910F91FF90EF900895EC
:1019C000CF93DF93EC01888D8823C9F0EA89FB89E6
:1019D000808185FD05C0A889B9898C9186FD0FC0DD
:1019E0000FB607FCF5CF808185FFF2CFA889B989B2
:1019F0008C9185FFEDCFCE010E94780CE7CFDF916F
:101A0000CF91089580E090E0892B29F00E946E0C20
:101A100081110C94000008950E9469111F920F9289
:101A20000FB60F9211242F933F934F935F936F93B1
:101A30007F938F939F93AF93BF93EF93FF9382E234
:101A400091E00E94780CFF91EF91BF91AF919F912F
:101A50008F917F916F915F914F913F912F910F9057
:101A60000FBE0F901F9018951F920F920FB60F92F6
:101A700011242F938F939F93EF93FF93E091320163
:101A8000F09133018081E0913801F091390182FDBC
:101A900012C0908180913B018F5F8F7320913C0138
:101AA000821751F0E0913B01F0E0EE5DFE4F958F23
:101AB00080933B0101C08081FF91EF919F918F91B5
:101AC0002F910F900FBE0F901F9018958FE00E94DE
:101AD000670B9093A4048093A30485389340C4F0CB
:101AE00061E087E00E94180A64E670E080E090E020
:101AF0000E947E0B60E087E00E94180A8091A1049A
:101B00009091A20401969093A2048093A104089559
:101B10008091A1049091A2040B97BCF061E088E051
:101B20000E94180A68EC70E080E090E00E947E0B52
:101B300060E088E00E94180A1092A2041092A104AA
:101B400062E382E291E00C94990C08958EE00E9489
:101B5000670B9093A00480939F048F3591405CF0B5
:101B600061E382E291E00E94990C6AE070E080E01B
:101B700090E00E947E0B1092A00410929F040895A2
:101B8000E2E2F1E01382128288EE93E0A0E0B0E09E
:101B900084839583A683B78384E091E091838083D7
:101BA00085EC90E09587848784EC90E09787868722
:101BB00080EC90E0918B808B81EC90E0938B828B1A
:101BC00082EC90E0958B848B86EC90E0978B868BF3
:101BD000118E128E138E148E8AEE93E00E946F0780
:101BE0008EE393E00E946F0782E992E00E946F0704
:101BF000EFEBF1E080E1818313820895789484B55E
:101C0000826084BD84B5816084BD85B5826085BDF8
:101C100085B5816085BD80916E00816080936E0086
:101C20001092810080918100826080938100809178
:101C30008100816080938100809180008160809329
:101C400080008091B10084608093B1008091B000E9
:101C500081608093B00080917A00846080937A00E4
:101C600080917A00826080937A0080917A0081600E
:101C700080937A0080917A00806880937A00109235
:101C8000C100E0913201F0913301C2E0C083E091E4
:101C90002E01F0912F011082E0913001F09131017D
:101CA00083E3808310923A01E0913601F09137018D
:101CB00086E08083E0913401F0913501808180617C
:101CC0008083E0913401F0913501808188608083C8
:101CD000E0913401F0913501808180688083E0914A
:101CE0003401F091350180818F7D808361E085E052
:101CF0000E942B0B60E08FE00E942B0B61E087E0DD
:101D00000E942B0B61E088E00E942B0BF894C0939B
:101D1000B000C093B10084E68093B3001092B2008B
:101D2000C09370007894C093BF011092C30180915A
:101D3000C00160E00E942B0B26E63DE048EE53E038
:101D400060E070E08AEE93E00E94AD0826EA3DE094
:101D500044E650E060E070E08EE393E00E94AD085E
:101D60002CE830E044E650E060E070E082E992E088
:101D70000E94AD088EE393E00E940E098AEE93E084
:101D80000E940E0982E992E00E940E090E94020D53
:101D9000F1CFDB018F939F930E94D90EBF91AF913A
:101DA000A29F800D911DA39F900DB29F900D1124B5
:101DB00008950E94210FA59F900DB49F900DA49FA0
:101DC000800D911D112408950F93083090F0982FE5
:101DD000872F762F652F542F432F322F222708501D
:101DE000F4CF220F331F441F551F661F771F881F14
:101DF000991F0A95B2F70F91089597FB10F8169462
:101E000000080F93083098F00850232F342F452FE7
:101E1000562F672F782F892F902DF4CF0594979503
:101E200087957795679557954795379527950A959F
:101E3000AAF70F910895EE0FFF1F0590F491E02D82
:101E40000994A29FB001B39FC001A39F700D811D93
:101E50001124911DB29F700D811D1124911D0895B3
:101E60005058BB27AA270E94480F0C94C2100E940A
:101E7000B41038F00E94BB1020F039F49F3F19F4E1
:101E800026F40C94B1100EF4E095E7FB0C94AB1023
:101E9000E92F0E94D31058F3BA176207730784071B
:101EA000950720F079F4A6F50C94F5100EF4E09562
:101EB0000B2EBA2FA02D0B01B90190010C01CA0104
:101EC000A0011124FF27591B99F0593F50F4503EAF
:101ED00068F11A16F040A22F232F342F4427585FA1
:101EE000F3CF469537952795A795F0405395C9F7B9
:101EF0007EF41F16BA0B620B730B840BBAF0915071
:101F0000A1F0FF0FBB1F661F771F881FC2F70EC00F
:101F1000BA0F621F731F841F48F4879577956795E2
:101F2000B795F7959E3F08F0B0CF9395880F08F0CE
:101F30009927EE0F9795879508950E94871008F4CA
:101F400081E008950E94B60F0C94C2100E94BB104D
:101F500058F00E94B41040F029F45F3F29F00C942F
:101F6000AB1051110C94F6100C94B1100E94D310C8
:101F700068F39923B1F3552391F3951B550BBB27B8
:101F8000AA2762177307840738F09F5F5F4F220FFD
:101F9000331F441FAA1FA9F335D00E2E3AF0E0E8F4
:101FA00032D091505040E695001CCAF72BD0FE2F3E
:101FB00029D0660F771F881FBB1F261737074807D2
:101FC000AB07B0E809F0BB0B802DBF01FF2793588A
:101FD0005F4F3AF09E3F510578F00C94AB100C9493
:101FE000F6105F3FE4F3983ED4F3869577956795B6
:101FF000B795F7959F5FC9F7880F911D96958795BF
:1020000097F90895E1E0660F771F881FBB1F6217DD
:1020100073078407BA0720F0621B730B840BBA0B9B
:10202000EE1F88F7E09508950E941B106894B11187
:102030000C94F61008950E94DB1088F09F5798F0DA
:10204000B92F9927B751B0F0E1F0660F771F881FBD
:10205000991F1AF0BA95C9F714C0B13091F00E94D7
:10206000F510B1E008950C94F510672F782F8827AC
:10207000B85F39F0B93FCCF3869577956795B395FE
:10208000D9F73EF490958095709561957F4F8F4F6D
:102090009F4F0895E89409C097FB3EF49095809572
:1020A000709561957F4F8F4F9F4F9923A9F0F92F1E
:1020B00096E9BB279395F695879577956795B7959C
:1020C000F111F8CFFAF4BB0F11F460FF1BC06F5F82
:1020D0007F4F8F4F9F4F16C0882311F096E911C094
:1020E000772321F09EE8872F762F05C0662371F0B5
:1020F00096E8862F70E060E02AF09A95660F771FC9
:10210000881FDAF7880F9695879597F90895990FA4
:102110000008550FAA0BE0E8FEEF16161706E807B1
:10212000F907C0F012161306E407F50798F0621BD2
:10213000730B840B950B39F40A2661F0232B242BA7
:10214000252B21F408950A2609F4A140A6958FEFC6
:10215000811D811D089597F99F6780E870E060E018
:1021600008959FEF80EC089500240A941616170630
:1021700018060906089500240A9412161306140678
:1021800005060895092E0394000C11F4882352F0DB
:10219000BB0F40F4BF2B11F460FF04C06F5F7F4F93
:1021A0008F4F9F4F089557FD9058440F551F59F07A
:1021B0005F3F71F04795880F97FB991F61F09F3F34
:1021C00079F087950895121613061406551FF2CF5D
:1021D0004695F1DF08C0161617061806991FF1CFAD
:1021E00086957105610508940895E894BB276627D4
:1021F0007727CB0197F908950E940F110C94C21014
:102200000E94B41038F00E94BB1020F0952311F00A
:102210000C94AB100C94B11011240C94F6100E9485
:10222000D31070F3959FC1F3950F50E0551F629F37
:10223000F001729FBB27F00DB11D639FAA27F00D1F
:10224000B11DAA1F649F6627B00DA11D661F829F46
:102250002227B00DA11D621F739FB00DA11D621F2B
:10226000839FA00D611D221F749F3327A00D611D48
:10227000231F849F600D211D822F762F6A2F11242A
:102280009F5750409AF0F1F088234AF0EE0FFF1F5D
:10229000BB1F661F771F881F91505040A9F79E3FB4
:1022A000510580F00C94AB100C94F6105F3FE4F3F2
:1022B000983ED4F3869577956795B795F795E7950A
:1022C0009F5FC1F7FE2B880F911D9695879597F913
:1022D000089581E090E0F8940C946E11F894FFCF8B
:1022E00000000000990C020C310CE00C620C400C58
:0222F000540C8C
:00000001FF
