:100000000C9462000C948A000C948A000C948A0070
:100010000C948A000C948A000C948A000C948A0038
:100020000C948A000C948A000C948A000C948A0028
:100030000C948A000C948A000C948A000C948A0018
:100040000C9498010C948A000C9408020C94E20120
:100050000C948A000C948A000C948A000C948A00F8
:100060000C948A000C948A000000000025002800EF
:100070002B0000000000240027002A0000000000E0
:1000800023002600290004040404040404040202DA
:100090000202020203030303030301020408102007
:1000A0004080010204081020010204081020000012
:1000B0000008000201000003040700000000000027
:1000C00000003B0311241FBECFEFD8E0DEBFCDBF41
:1000D00011E0A0E0B1E0EAEEF6E002C005900D927A
:1000E000A231B107D9F721E0A2E1B1E001C01D9230
:1000F000AC3BB207E1F710E0C2E6D0E004C02197C4
:10010000FE010E946803C136D107C9F70E943A0276
:100110000C9473030C940000CF92DF92EF92FF9245
:100120000F931F93CF93DF936C017A018B01C0E093
:10013000D0E0CE15DF0589F0D8016D918D01D60193
:10014000ED91FC910190F081E02DC6010995892B7C
:1001500011F47E0102C02196ECCFC701DF91CF914F
:100160001F910F91FF90EF90DF90CF900895089529
:1001700080E090E00895FC01538D448D252F30E000
:10018000842F90E0821B930B541710F0CF960895A4
:1001900001970895FC01918D828D981761F0828DF1
:1001A000DF01A80FB11D5D968C91928D9F5F9F73AB
:1001B000928F90E008958FEF9FEF0895FC01918D4D
:1001C000828D981731F0828DE80FF11D858D90E0BA
:1001D00008958FEF9FEF0895FC01918D228D892F57
:1001E00090E0805C9F4F821B91098F73992708953F
:1001F00082E191E00E94EC0021E0892B09F420E0EB
:10020000822F0895FC01848DDF01A80FB11DA35A30
:10021000BF4F2C91848D90E001968F739927848F26
:10022000A689B7892C93A089B1898C9180648C931D
:10023000938D848D981306C00288F389E02D808108
:100240008F7D80830895EF92FF920F931F93CF933A
:10025000DF93EC0181E0888F9B8D8C8D981305C016
:10026000E889F989808185FD24C0F62E0B8D10E088
:100270000F5F1F4F0F731127E02E8C8DE8120CC0FB
:100280000FB607FCFACFE889F989808185FFF5CFA1
:10029000CE010E940201F1CF8B8DFE01E80FF11D0E
:1002A000E35AFF4FF0820B8FEA89FB8980818062DD
:1002B00007C0EE89FF896083E889F98980818064BD
:1002C000808381E090E0DF91CF911F910F91FF90AB
:1002D000EF900895CF93DF93EC01888D8823C9F0C8
:1002E000EA89FB89808185FD05C0A889B9898C913F
:1002F00086FD0FC00FB607FCF5CF808185FFF2CFDA
:10030000A889B9898C9185FFEDCFCE010E940201A9
:10031000E7CFDF91CF91089580E090E0892B29F01D
:100320000E94F80081110C94000008950E946E0351
:100330001F920F920FB60F9211242F933F938F931A
:100340009F93AF93BF938091B8019091B901A09111
:10035000BA01B091BB013091B70123E0230F2D37D3
:1003600020F40196A11DB11D05C026E8230F0296B9
:10037000A11DB11D2093B7018093B8019093B901DD
:10038000A093BA01B093BB018091B3019091B401E5
:10039000A091B501B091B6010196A11DB11D809348
:1003A000B3019093B401A093B501B093B601BF918E
:1003B000AF919F918F913F912F910F900FBE0F9012
:1003C0001F9018951F920F920FB60F9211242F9322
:1003D0003F934F935F936F937F938F939F93AF93CD
:1003E000BF93EF93FF9382E191E00E940201FF919E
:1003F000EF91BF91AF919F918F917F916F915F919D
:100400004F913F912F910F900FBE0F901F90189515
:100410001F920F920FB60F9211242F938F939F93D9
:10042000EF93FF93E0912201F09123018081E0910D
:100430002801F091290182FD12C0908180912B0149
:100440008F5F8F7320912C01821751F0E0912B0167
:10045000F0E0EE5EFE4F958F80932B0101C080810E
:10046000FF91EF919F918F912F910F900FBE0F9061
:100470001F901895789484B5826084BD84B581609E
:1004800084BD85B5826085BD85B5816085BD80915F
:100490006E00816080936E001092810080918100D7
:1004A00082608093810080918100816080938100CF
:1004B000809180008160809380008091B100846091
:1004C0008093B1008091B00081608093B0008091F2
:1004D0007A00846080937A0080917A0082608093B1
:1004E0007A0080917A00816080937A0080917A000E
:1004F000806880937A001092C100C2EAD0E0FE01C9
:1005000024910EE810E0F80184918823C9F090E06E
:10051000880F991FFC01EE58FF4FA591B49188599F
:100520009F4FFC01459154913FB7F8949C91822FC5
:10053000809598239C93FA019081892380833FBF03
:10054000E0912201F091230182E08083E0911E017D
:10055000F0911F011082E0912001F091210183E3CD
:10056000808310922A01E0912601F091270186E014
:100570008083E0912401F091250180818061808356
:10058000E0912401F0912501808188608083E091D1
:100590002401F0912501808180688083E09124010D
:1005A000F091250180818F7D808346EBE42E40E031
:1005B000F42EF7019491FE012491F801849188238F
:1005C00009F43AC0992339F1933091F038F491301D
:1005D000A9F0923001F594B59F7D12C0973091F04B
:1005E0009830A1F09430B9F4909180009F7D03C0C1
:1005F000909180009F77909380000DC094B59F7775
:1006000094BD09C09091B0009F7703C09091B00055
:100610009F7D9093B00090E0880F991F84589F4F62
:10062000FC01A591B4918C91282391E080E009F41C
:1006300090E0C92ED82E02C0C12CD12CD092B2018C
:10064000C092B1018091AF019091B001C816D90656
:1006500059F0F1E0CF16D10411F461E301C060E379
:1006600082E191E00E942301D092B001C092AF01DB
:100670000E948C019ECFE2E1F1E01382128288EEAB
:1006800093E0A0E0B0E084839583A683B78384E001
:1006900091E09183808385EC90E09587848784EC5A
:1006A00090E09787868780EC90E0918B808B81EC3F
:1006B00090E0938B828B82EC90E0958B848B86EC20
:1006C00090E0978B868B118E128E138E148E089568
:1006D000EE0FFF1F0590F491E02D099481E090E06A
:0A06E000F8940C947303F894FFCF14
:1006EA000000000023018C00BB006A01EC00CA0074
:0206FA00DE0020
:00000001FF
